:020000040000fa
:080000000002040000000000f2
:020000040000fa
:040008009004000060
:020000040000fa
:04000c00900400005c
:020000040000fa
:040010009004000058
:020000040000fa
:040014009004000054
:020000040000fa
:040018009004000050
:020000040000fa
:04001c00900400004c
:020000040000fa
:040020009004000048
:020000040000fa
:040024009004000044
:020000040000fa
:040028009004000040
:020000040000fa
:04002c00900400003c
:020000040000fa
:040030009004000038
:020000040000fa
:0400340002030000c3
:020000040000fa
:040038009004000030
:020000040000fa
:04003c00900400002c
:020000040000fa
:040040009004000028
:020000040000fa
:040044009004000024
:020000040000fa
:04004800fa020000b8
:020000040000fa
:04004c00900400001c
:020000040000fa
:040050009004000018
:020000040000fa
:040054004c04000058
:020000040000fa
:04005800220400007e
:020000040000fa
:04005c00fe0300009f
:020000040000fa
:040060009004000008
:020000040000fa
:040064009004000004
:020000040000fa
:040068009004000000
:020000040000fa
:04006c0090040000fc
:020000040000fa
:0400700090040000f8
:020000040000fa
:0400740090040000f4
:020000040000fa
:0400780090040000f0
:020000040000fa
:04007c0090040000ec
:020000040000fa
:0400800090040000e8
:020000040000fa
:0400840090040000e4
:020000040000fa
:0400880090040000e0
:020000040000fa
:04008c0090040000dc
:020000040000fa
:0400900090040000d8
:020000040000fa
:04009400d403000091
:020000040000fa
:0400980090040000d0
:020000040000fa
:04009c0090040000cc
:020000040000fa
:0400a00090040000c8
:020000040000fa
:0400a40090040000c4
:020000040000fa
:0400a80090040000c0
:020000040000fa
:0400ac0090040000bc
:020000040000fa
:0400b00090040000b8
:020000040000fa
:0400b40090040000b4
:020000040000fa
:0400b80090040000b0
:020000040000fa
:0400bc0090040000ac
:020000040000fa
:0400c00090040000a8
:020000040000fa
:0400c40090040000a4
:020000040000fa
:0400c80090040000a0
:020000040000fa
:0400cc00900400009c
:020000040000fa
:0400d0009004000098
:020000040000fa
:0400d4009004000094
:020000040000fa
:0400d8009004000090
:020000040000fa
:0400dc00900400008c
:020000040000fa
:0400e0009004000088
:020000040000fa
:0400e4009004000084
:020000040000fa
:0400e8009004000080
:020000040000fa
:0400ec00900400007c
:020000040000fa
:0400f0009004000078
:020000040000fa
:0400f4009004000074
:020000040000fa
:0400f8009004000070
:020000040000fa
:0400fc00900400006c
:020000040000fa
:040100009004000067
:020000040000fa
:040104009004000063
:020000040000fa
:04010800900400005f
:020000040000fa
:04010c00900400005b
:020000040000fa
:040110009004000057
:020000040000fa
:040114009004000053
:020000040000fa
:04011800900400004f
:020000040000fa
:04011c00900400004b
:020000040000fa
:040120009004000047
:020000040000fa
:040124009004000043
:020000040000fa
:04012800900400003f
:020000040000fa
:04012c00900400003b
:020000040000fa
:040130009004000037
:020000040000fa
:040134009004000033
:020000040000fa
:04013800900400002f
:020000040000fa
:04013c00900400002b
:020000040000fa
:040140009004000027
:020000040000fa
:040144009004000023
:020000040000fa
:04014800900400001f
:020000040000fa
:04014c00900400001b
:020000040000fa
:040150009004000017
:020000040000fa
:040154009004000013
:020000040000fa
:04015800900400000f
:020000040000fa
:04015c00900400000b
:020000040000fa
:040160009004000007
:020000040000fa
:040164009004000003
:020000040000fa
:0401680090040000ff
:020000040000fa
:04016c0090040000fb
:020000040000fa
:0401700090040000f7
:020000040000fa
:0401740090040000f3
:020000040000fa
:0401780090040000ef
:020000040000fa
:04017c0090040000eb
:020000040000fa
:0401800090040000e7
:020000040000fa
:0401840090040000e3
:020000040000fa
:0401880090040000df
:020000040000fa
:04018c0090040000db
:020000040000fa
:0401900090040000d7
:020000040000fa
:0401940090040000d3
:020000040000fa
:0401980090040000cf
:020000040000fa
:04019c0090040000cb
:020000040000fa
:0401a00090040000c7
:020000040000fa
:0401a40090040000c3
:020000040000fa
:0401a80090040000bf
:020000040000fa
:0401ac0090040000bb
:020000040000fa
:0401b00090040000b7
:020000040000fa
:0401b40090040000b3
:020000040000fa
:0401b80090040000af
:020000040000fa
:0401bc0090040000ab
:020000040000fa
:0401c00090040000a7
:020000040000fa
:0401c40090040000a3
:020000040000fa
:0401c800900400009f
:020000040000fa
:0401cc00900400009b
:020000040000fa
:0401d0009004000097
:020000040000fa
:0401d4009004000093
:020000040000fa
:0401d800900400008f
:020000040000fa
:0401dc00900400008b
:020000040000fa
:0401e0009004000087
:020000040000fa
:0401e4009004000083
:020000040000fa
:0401e800900400007f
:020000040000fa
:0401ec00900400007b
:020000040000fa
:0401f0009004000077
:020000040000fa
:0401f4009004000073
:020000040000fa
:0401f800900400006f
:020000040000fa
:0401fc00900400006b
:020000040000fa
:040200009004000066
:020000040000fa
:040204009004000062
:020000040000fa
:04020800900400005e
:020000040000fa
:04020c00900400005a
:020000040000fa
:040210009004000056
:020000040000fa
:040214009004000052
:020000040000fa
:04021800900400004e
:020000040000fa
:04021c00900400004a
:020000040000fa
:040220009004000046
:020000040000fa
:040224009004000042
:020000040000fa
:04022800900400003e
:020000040000fa
:04022c00900400003a
:020000040000fa
:040230009004000036
:020000040000fa
:040234009004000032
:020000040000fa
:04023800900400002e
:020000040000fa
:04023c00900400002a
:020000040000fa
:040240009004000026
:020000040000fa
:040244009004000022
:020000040000fa
:04024800900400001e
:020000040000fa
:04024c00900400001a
:020000040000fa
:040250009004000016
:020000040000fa
:040254009004000012
:020000040000fa
:04025800900400000e
:020000040000fa
:04025c00900400000a
:020000040000fa
:040260009004000006
:020000040000fa
:040264009004000002
:020000040000fa
:0402680090040000fe
:020000040000fa
:04026c0090040000fa
:020000040000fa
:0402700090040000f6
:020000040000fa
:0402740090040000f2
:020000040000fa
:0402780090040000ee
:020000040000fa
:04027c0090040000ea
:020000040000fa
:0402800090040000e6
:020000040000fa
:10040000ef2221000eff2c000e01880000000000ea
:10041000000020000000e000020032000001200087
:1004200020028800140007003f0107000000e000e0
:1004300003003a0040dc21000100200002003700e8
:100440000000200001002000810f70000100320038
:100450000f000700000020000000e0000200320052
:1004600000000200000000009e09020000000000e1
:100470000040da000000fe00200020000000e00044
:1004800002003200100020009001880000000600e9
:10049000a1028800800478000000eb001f003700f4
:1004a000e284440054a0b4009905ba00e2844400f8
:1004b00054a0b4009906ba00e284440054a0b400e9
:1004c0000006eb00476fde00fd07b200ae018800ba
:1004d000636ce10003003a000ad801000000eb0061
:1004e0000e003700606ce10008003a00004deb00a0
:1004f0000a05e800020039003420ec000af0a000f0
:100500008b05e900f9ff3e00040037006168e10057
:10051000010032000086eb000b00070019c7ba008b
:100520000e04e0001905ba0003003a000a00e000da
:10053000dbff3a0000000600fe07b200ae028800b2
:100540008a047800f5ff37000cd0a300e20f4d00bd
:100550001c00390089027800354dba000a05e80010
:10056000020039003420ec000af0a0008b05e900fd
:100570000f003200254dba000a05e80002003900dc
:100580003420ec000af0a0008b05e90008003200de
:100590000c00e0000600320015cdba000a05e800a4
:1005a000020039003420ec000af0a0008b05e900bd
:1005b0008984e80054a0b4000b00e000e2ff3a0098
:1005c000000006009902ba00055d78008b05e9007d
:1005d000f7ff3200c82ade00055d78008b05e900d0
:1005e000f3ff32000c00e000f1ff320019ddba0029
:1005f000eeff37000000fa000108a9000080fa00b1
:10060000004006003600f800809fbe00829fbe00ba
:10061000849fbe00869fbe00889fbe000e00fa0029
:100620000068a900030d07002d0b070070818000f2
:1006300060079800a10020006e0090008101780002
:10064000110009000300d80001f0a7008100ea00b2
:100650008100e900cf08de00814078006e01900043
:100660000200e800708188000104e00046003200ca
:1006700031618000d0cc2c000008b8004508de00b5
:100680000041780031668000d0cc2c000008b80012
:100690004508de0000407800024f780010479800bf
:1006a000207180004a00de006140600011c0b3008c
:1006b0002147980030479800207380004700de00f3
:1006c0006140600021c0b300414798005047980046
:1006d000207380004600de006140600031c0b3003e
:1006e00061479800704798000e01780021002000b3
:1006f00000042000350807000e80e80000017800a3
:10070000210020000002200030080700640047009c
:100710000001780021002000000220002b080700c3
:100720006600470000017800210020000002200040
:1007300026080700408f8000518f8000420107008b
:1007400080447800808f8000918f80003e010700f8
:1007500000447800a08f8000b18f80003a0107002c
:1007600000407800094f9800184f9800204f9800db
:1007700068004700000178003100200000032000dd
:1007800012080700a50607000080fa004f04be000b
:100790004f03be004f02be004f01be004f00be001f
:1007a0003600f900004006003600f800809fbe00c9
:1007b000829fbe00849fbe00869fbe000000fa009c
:1007c0000368a900508180006181800061004000c1
:1007d000e080480050818800618188009203070012
:1007e0000080fa004f03be004f02be004f01be0062
:1007f0004f00be003600f90000400600801f780060
:100800000000fa0001a8a9000018800020918800cb
:1008100010188000309188002018800040918800d6
:100820003018800050918800401880006091880046
:1008300010c0b30051f0b7000080fa004f007800fc
:10084000004006003600f800809fbe00829fbe0078
:10085000849fbe00869fbe000000fa000188a900a8
:1008600001828000f0818000808f50000200320001
:10087000140c0700010037004270ef000080fa00fe
:100880004f03be004f02be004f01be004f00be002e
:100890003600f900004006003600f800809fbe00d8
:1008a000829fbe00849fbe00869fbe000000fa00ab
:1008b0000168a90010118000640060000000e000e1
:1008c000010032002242a900101180006200600085
:1008d0000000e000060032002222a90005003700d7
:1008e0003011800000407800620c070001003700e2
:1008f0000000000010118000610060000000e000b6
:10090000f7ff3a000080fa004f03be004f02be001e
:100910004f01be004f00be003600f9000040060047
:100920000040da000000fe000000050003f0a20015
:10093000889fbe008a9fbe008c1f78006e01070052
:10094000750133006450e1004f0032006420e10083
:100950005200320003826c0007003b000905d00002
:100960000306d000820f54000c065d00020039001f
:100970000200320089017800030678008582550064
:1009800004003d000003fd008103fd008502ea0034
:100990008b854200840f720002003b006000100053
:1009a000e08018006011b8000005eb007a28e10033
:1009b0000a00390006007800c75ddd00f707b200c5
:1009c000878075002d003700828171000a01780050
:1009d000610560008180d1000080d3008502e900bc
:1009e000f9ff3b00060440008784480002003b00fa
:1009f00060041400e0841c000988a3000700320092
:100a00008a81710082817100610164008904d100d2
:100a10000884d3008b05e800170037000978a3008d
:100a200013003a000b00e000130034008b05e900ce
:100a30000804440089844c000a4474000978a30027
:100a40000d003a000b00e000070034008b05e900c0
:100a50000804440089844c0001003a000b00200087
:100a60000978a300f7ff32000001eb000200370015
:100a7000828171000a017800e40007000cf0a700f1
:100a800001f0a0002d0137006420e10002003a00cf
:100a9000838f6c002d0133000801be000200be00f0
:100aa000260137000081eb005f013700889fbe0000
:100ab0008a9fbe008c1f78000f01070016013300cb
:100ac00003866c006450e1002e0032006420e100d7
:100ad000330032006150e1002f0032006120e1005c
:100ae0003100320085855500eb07b0000900200079
:100af00008042000050037000804440089844c00e5
:100b00000a0031000603430087834b0000015300b5
:100b100081815b00f8ff33000203be000800a000e3
:100b20000804440089844c00f6ff3900c639dd0012
:100b30008301730001003200130020008904d100fa
:100b40000884d3000998a300050032000800a7001c
:100b50000300a0008904d1000884d3008b05e800bd
:100b60008904d1000884d3000001eb000281d20087
:100b7000a600070001f0a1000cf0a70001f0a00002
:100b8000ee0037006420e100f00032000801be00f2
:100b90000200be00f7ff37006120e100eb003200e9
:100ba0006000b800f3ff37000000200001f82700c4
:100bb000f0ff37001400200086013700f4ff2f00fb
:100bc000840137000001be00b60007000470a700d2
:100bd00003f0a1006509b100160032000d003500d8
:100be0006828e10006003500f0ff2f00f1ff270024
:100bf0000300e00013003b00010028000000050096
:100c000000004000818048008502e900fcff3a00b6
:100c100008003700f88f420002003c008000eb0023
:100c2000000005008100d1000080d3008502e800ab
:100c3000fcff3a000300e00002003b0060001000ef
:100c4000e0801800000006000001be0095000700cb
:100c50000470a70003f0a10003f8a30013003a00fa
:100c60006509b10010003200090035006928e10073
:100c700002003500010028000000050000004000cf
:100c8000818048008502e900fcff3a000000060070
:100c9000f88f4200050035008100d1000080d300ac
:100ca0008502e800fcff3a00000006008000eb002f
:100cb000000005004f89de008201780060013700e6
:100cc0006011b8006e0137000400200000003700fa
:100cd000889fbe008a9fbe008c1f78004f26dd00d3
:100ce000850007008c0033006120e10043003200e2
:100cf0006250e10041003e003e0039006420e10006
:100d00003c003200058255000f003b000402e80061
:100d100038003a00800f5300818f5b0035003400ab
:100d20000800be0003f0a10001f0a60003f0a0003f
:100d30000cf0a700fefe070080003700060343000a
:100d400087834b000c4646000005530081855b00fd
:100d5000020033000a03be000c00a0000402e900f8
:100d6000f6ff3b00850578000602430087824b00b2
:100d700004003a006000b80009f0a70001f0a000ec
:100d80006e0037000002520081825a000704e00022
:100d9000040033000603430087834b008b05e90002
:100da000faff3700090578000604be000203be0002
:100db0006011b80015000700e00f5200e08f5a00e4
:100dc0000700350002003c000c08a30004003200bc
:100dd0000601be0003f0a0000cf0a700d4fe07003f
:100de0000a85680001f0a1000af0a70001f0a00048
:100df000520037000800be005000370010022000eb
:100e00000cf0a600a082880050003700810020006e
:100e1000618055000b003d000b00200061fe2f009b
:100e20000100e1001d003400828171006101640055
:100e30008904d1000884d3000000e800faff3a00da
:100e40007100200061006400030070000200600077
:100e50000900320061044400e0844c000988a500c8
:100e6000050032008b05e8006808e10002003a0046
:100e70008904d1000884d300f20f20000258e10059
:100e800005003d00c75ddd00f907b20089807500ef
:100e900008007800000006000bf827008b0078009f
:100ea00000000500c70ade00f107b200f50fb2002e
:100eb00008003200e1cf4200020032000170a000c1
:100ec00024000500810f70000100320004080500b5
:100ed00044000500810f700002003a001400050074
:100ee0008502e9000000400081c04800fcff3b0093
:100ef0000170a000240005000004be00e9ff070007
:100f00000003be000405be000200be00e5ff0700ae
:100f1000844f7500000006000200be006450e1002e
:100f2000050036006420e100020036000968a300d5
:100f300001003a000800be000160a0004f067800e2
:100f40004f05be004f04be0000000600f0ff2f005a
:100f5000f1ff2700f9ff3700889fbe008a9fbe007f
:100f60008c1f7800e4ff0700ebff330003866c0062
:100f70006450e100240032006420e10027003200c8
:100f80006150e100220032006120e10021003200c6
:100f90008b854200eb07b1000134b800003ab8007d
:100fa0000804420089844a00013ab8000030b800c1
:100fb0008880400009014a0004003300000040001e
:100fc00081804800020149008b05e900c909dd0064
:100fd000830170000100320013002000c814de00fd
:100fe0004814dd004709de001200b200c808de0028
:100ff0000884700085ff070001f0a1000cf0a70035
:1010000001f0a000cdff37006120e100cfff3200ea
:101010000801be000200be00f7ff37006150e1008a
:10102000fcff3a00c9ff3700889fbe008a9fbe00c0
:101030008c9fbe00820578000004be0099ff070067
:101040000800be006420e1000700390002003a00f9
:10105000f1ff2700f0ff2f000160a0001202200026
:10106000a2828800550037006120e10003003a00a9
:101070000b00a70001f823005000370001f0a10089
:101080000200210093642400cafe07000800be008d
:1010900004003500b2fd2000930c24000aff070075
:1010a0000004be000005eb000b00a6004f0dde00a3
:1010b00001f0a1000004be0032982f0023ea2300b3
:1010c000a5ff07000001eb0003f023000b00a700c1
:1010d00003f8230016fe0700bafe07000000a70071
:1010e0000a00a200f3fe07000b00e000030032003c
:1010f0000200200003f023000cfe070001f0a20014
:101100000006be00020020009304240092ff0700a6
:101110000801be0006fe0700809fbe000c00be0056
:1011200022a22a00d3a723008bff07004f01be0095
:10113000fffd07000004be0001f0a1000200200036
:10114000039823009bfe07000800be00190035002d
:101150000001be0080ff07000006be00b2c52900e6
:10116000e36223007cff070022222b00f3942b0074
:10117000effd07000c01be0077ff0700e2732800b7
:1011800083c02300eafd07000c01be0072ff0700c8
:1011900042aa2a00a3e22b00e5fd07000c01be00d5
:1011a0006dff07000801be006bff07000801be00cd
:1011b000dffd07000a00a70001f0a2004f06be00f5
:1011c0004f05be004f04be00000006000001eb000a
:1011d00095ff3700889fbe008a9fbe00841f78005d
:1011e00045ff07004f00780011003300f0ff2f008b
:1011f000838f6c0006003b00040565000a00a70011
:101200000800370009f0a600100020000800370091
:10121000820f5400838f5c0003003900100020000f
:1012200001003e000000200009f0a7000000ea00d5
:101230004f05be004f04be000000e00000000600a5
:10124000881f7800030478000300e00007003d00d9
:1012500060001000e080180060011900e0811900b2
:1012600002003b0001f02d000300370004000700de
:1012700008f0a70001f0a0004f047800000006006d
:10128000889fbe008a9fbe00008270000402710029
:1012900004827100260032000004be000200be007d
:1012a0006011b8006b092000950220000182cf0078
:1012b0000a0039000541b1000082cf000700390063
:1012c0000541b1000982cf00040039000541b10099
:1012d0000882cf00010039000541b10005425200eb
:1012e000120032000a003b0082817100610164003b
:1012f0008100d1000080d3008984d3000884d3000a
:101300008b05e8000442e800f7ff3a0007003700c9
:101310000804440089844c00000048008180480093
:101320008b05e9000442e900f9ff3a00b7fe070027
:0c1330004f05be004f04be000000060088
:020000040000fa
:10133c000600fa00ae0a0700450a0700c9070700b5
:10134c007f090700f6030700dc0307006f040700a2
:10135c00730a0700af020700b7020700ba090700bb
:10136c00e14f500083003a00bb090700b2090700a7
:10137c00000f78001e007800100078008000eb0051
:10138c004cfe07003233230033052400effe070028
:10139c000200200003582400c1fd0700d2cc2c0011
:1013ac00c3042400e9fe07001007980021079800e9
:1013bc001e019000ae01900000002000812024004e
:1013cc00b7fd070002002000030a240054fd0700ab
:1013dc00608f8800718f88001e80e80010007800f4
:1013ec008000eb0033fe070032332300330524006a
:1013fc00d6fe07000200200003582400a8fd0700b9
:10140c00d2cc2c00c3042400d0fe07001007980097
:10141c00210798001e019000ae01900000002000f2
:10142c00812024009efd070002002000030a2400f6
:10143c003bfd0700408f8800518f88009e0078008c
:10144c0064804000100078008000eb0019fe07005b
:10145c003233230033052400bcfe070002002000b9
:10146c00035824008efd0700d2cc2c00c3042400aa
:10147c00b6fe070010079800210798001e01900087
:10148c00ae019000000020008120240084fd0700a4
:10149c0002002000030a240021fd0700808f880031
:1014ac00918f88009e0078006880400010007800c2
:1014bc008000eb00fffd07003233230033052400ce
:1014cc00a2fe0700020020000358240074fd070050
:1014dc00d2cc2c00c30424009cfe070010079800fb
:1014ec00210798001e019000ae0190000000200022
:1014fc00812024006afd070002002000030a24005a
:10150c0007fd0700a08f8800b18f88009e0078002f
:10151c0066804000100078008000eb00e5fd0700bd
:10152c00323323003305240088fe0700020020001c
:10153c00035824005afd0700d2cc2c00c30424000d
:10154c0082fe070010079800210798001e019000ea
:10155c00ae019000000020008120240050fd070007
:10156c0002002000030a2400edfc0700c08f880055
:10157c00d18f88002430ef00070037004e09070098
:10158c0026f0b70026d0bf00e604070020818000bb
:10159c000000e800208188007209070080007800b4
:1015ac0020818000808f5000f4ff3e002b0207004a
:1015bc006aff37000200fa00004f78001e417800e5
:1015cc0071022100824878000080fa0000000600b9
:1015dc000200fa00004f78001e4078000004e00082
:1015ec0006003a004670ef00c0c0b30027f0b70009
:1015fc00f000200020828800060037001e40780092
:10160c00e14f500003003a0010c0b30046f0b700a1
:10161c002770ef000080fa00000006000000fa00be
:10162c0000818000e10f500006003a00f00020001d
:10163c002082880064cea90064eea900254ea80083
:10164c001100370000818000e20f500006003a00c4
:10165c00400120002082880064cea80064eea9001e
:10166c00254ea9000800370000818000e30f5000d0
:10167c0005003a00e00120002082880064cea90019
:10168c0064eea800254ea90027d0bf000080fb0007
:10169c00cf80de007201200003002000820f50007a
:1016ac00838f5800ba003e00000601001700370077
:1016bc002000370032003700410037006900370046
:1016cc0072003700730037007c0037007d00370054
:1016dc008700370088003700920037001f00370062
:1016ec00ae003700380037004200370043003700a7
:1016fc004d0037004e003700580037008b00370084
:10170c0095003700960037009f0037002a30ef0015
:10171c002c30ef000001eb006000b8008e070700d2
:10172c00120020006000b8008b07070010c0b30047
:10173c0027f0b7005281800063818000803e20003a
:10174c0001002000800f5100818f59009500360058
:10175c0020c0b30027f0b700930037000001eb0066
:10176c006000b8007c070700120020006000b80081
:10177c0079070700d0c0b30027f0b7008a00370004
:10178c00108180000000e800108188002082800019
:10179c008000eb0047fd07000001eb006e0707001f
:1017ac00208280008000eb0042fd07001200200028
:1017bc006907070030c0b30027f0b7007a00370084
:1017cc007b000700780037000001eb0000002000d0
:1017dc0001172c00600707001200200000002000f9
:1017ec0001172c005c070700f0c0b30027f0b7000e
:1017fc006d0037006e0007006b0037000001eb0036
:10180c0000002000011724005307070012002000dd
:10181c0000002000011024004f07070010c1b30086
:10182c0027f0b70060003700610007005e0037004a
:10183c000001eb0000002000011024004607070007
:10184c0012002000000020000117240042070700ae
:10185c0030c1b30027f0b700530037005400070025
:10186c00510037000001eb0000002000011724009c
:10187c0039070700120020006000b8003607070087
:10188c0050c0b30027f0b7004700370048000700ee
:10189c00450037000001eb006000b8002e07070080
:1018ac001200200000002000011724002a07070066
:1018bc0070c0b30027f0b7003b0037003c000700b6
:1018cc00390037000001eb00000020000112240059
:1018dc0021070700120020000000200001122c003c
:1018ec001d07070090c0b30027f0b7002e0037008b
:1018fc002f0007002c0037000001eb000000200037
:10190c0001122c0014070700120020000000200018
:10191c000112240010070700b0c0b30027f0b70075
:10192c0021003700220007001f0037000001eb00e8
:10193c0000002000011024000707070012002000ff
:10194c006000b800040707001201070050c1b30083
:10195c0027f0b700140037001500070012003700fd
:10196c000001eb006000b800fb060700120020002d
:10197c000000200001102400f706070070c1b3001e
:10198c0027f0b700080037000900070006003700f1
:10199c002770ef000000000003003700000000007b
:1019ac0001003700000000000080fa000000060073
:1019bc000200fa00881f780046d0bf00e14f5000ab
:1019cc00f1003a000040eb00004f7800c08f80001f
:1019dc00d18f800018c0b30002002000031a24002d
:1019ec0071fc07000000e000010035000044eb0032
:1019fc000804e0002c003a00a08f8000b18f80001a
:101a0c0018c0b30002002000031f240066fc07006e
:101a1c000000e000010035000044eb000804e00089
:101a2c0021003a00808f8000918f800018c0b30095
:101a3c0002002000c32024005bfc07000000e00033
:101a4c00010035000044eb000804e00016003a00e9
:101a5c00408f8000518f800018c0b300020020001e
:101a6c00031f240050fc07000000e00001003500bb
:101a7c000044eb000804e0000b003a00608f80008b
:101a8c00718f800018c0b30002002000031a2400dc
:101a9c0045fc07000000e000010035000044eb00ad
:101aac000804e000050032001000200000818800ce
:101abc000c050700004f780073003700c08f8000c2
:101acc00d18f800018c0b300020020000322240034
:101adc0035fc07000000e000010035000044eb007d
:101aec000804e0002c003a00a08f8000b18f800029
:101afc0018c0b30002002000832424002afc070035
:101b0c000000e000010035000044eb000804e00098
:101b1c0021003a00808f8000918f800018c0b300a4
:101b2c0002002000032724001ffc07000000e00037
:101b3c00010035000044eb000804e00016003a00f8
:101b4c00408f8000518f800018c0b300020020002d
:101b5c008324240014fc07000000e0000100350081
:101b6c000044eb000804e0000b003a00608f80009a
:101b7c00718f800018c0b3000200200003222400e3
:101b8c0009fc07000000e000010035000044eb00f8
:101b9c000804e000030032002000200000818800cf
:101bac0039003700c08f8000d18f800018c0b3007f
:101bbc000200200003222400fdfb07000000e000cf
:101bcc0001003d000044eb000804e0002c003a004a
:101bdc00a08f8000b18f800018c0b30002002000dd
:101bec0083242400f2fb07000000e00001003d000c
:101bfc000044eb000804e00021003a00808f8000d4
:101c0c00918f800018c0b30002002000032724002d
:101c1c00e7fb07000000e00001003d000044eb0082
:101c2c000804e00016003a00408f8000518f8000bd
:101c3c0018c0b3000200200083242400dcfb070042
:101c4c000000e00001003d000044eb000804e0004f
:101c5c000b003a00608f8000718f800018c0b300b9
:101c6c000200200003222400d1fb07000000e0004a
:101c7c0001003d000044eb000804e00002003200cb
:101c8c0030002000008188001e4078000004e00035
:101c9c0003003a0020c0b30028f0b7003000370032
:101cac001e407800e34f500003003a0000c1b3001f
:101cbc0028f0b7002a0037001e407800e14f500092
:101ccc0003003a0020c1b30028f0b700240037000d
:101cdc001e407800e44f500003003a0040c0b300af
:101cec0028f0b7001e0037001e407800e24f50006d
:101cfc0003003a0060c0b30028f0b70018003700aa
:101d0c001e407800e54f50000a003a001081800018
:101d1c00610060000000e00003003a0080c0b300e6
:101d2c0028f0b7000e003700a0c0b30028f0b700b1
:101d3c000b0037001e407800e64f500003003a00bd
:101d4c0040c1b30028f0b700050037001e407800f2
:101d5c00e74f500002003a0060c1b30028f0b70012
:101d6c0028d0bf008080fb0027d0bf000080fb0084
:101d7c000000e900808f50000300320028d0bf0023
:101d8c0027f0b700030007004f0478000080fa002a
:101d9c00000006000600fa0075022100954278004a
:101dac0050818000618180004808de00004278008c
:101dbc0050818000618180004008de008041780005
:101dcc0050818000618180004809dd004800de0000
:101ddc0000007100c808de000041780050818000ce
:101dec006181800000407800054f7800144798000e
:101dfc002347980032479800404798000e0178001e
:101e0c0051002000000520006d0207000080fa0040
:101e1c00000006000000fa00c301a8000080eb00df
:101e2c00e00e88000080eb00f00e8800c1e1a800f5
:101e3c000080fa00000006000000fa00c305a800ac
:101e4c000080eb00e02e88000080eb00f02e880074
:101e5c00c1e5a8000080fa00000006000800fa00a6
:101e6c00889fbe008a9fbe00408080005180800009
:101e7c000080880011808800608080007180800064
:101e8c002080880031808800d0818000e10f5000d4
:101e9c000a003a006000b800c0908800d190880019
:101eac006000b800e0908800f19088006000b800f5
:101ebc0000918800119188003a30ef00300e8000bc
:101ecc008000eb00008fbe00500e80008000eb0005
:101edc00c000dd00000020001e0f40005e9748008f
:101eec00302e80008000eb0020079800310798000e
:101efc00502e80008000eb00c000dd0000002000b0
:101f0c002e019000be01900002004000838048002a
:101f1c0020079800310798001e0078009e00900062
:101f2c0061fb070072b3200093782b0007fc0700bd
:101f3c0040808800518088002e009000be009000e8
:101f4c0059fb070072b3200093782300fffb0700b6
:101f5c0060808800718088004480800055808000fb
:101f6c0000808000118080000001be000400be00d3
:101f7c006bfa070080808800918088006480800064
:101f8c007580800020808000318080000001be00c0
:101f9c000400be0062fa0700a0808800b1808800af
:101fac008480800095808000a0808000b1808000bb
:101fbc000001be000400be0059fa070042b623001f
:101fcc00f3e52300b6fa0700c0808800d1808800b2
:101fdc008480800095808000a0808000b18080008b
:101fec000001be000400be004efa070002002000f3
:101ffc0003002400aafa0700e0808800f180880022
:10200c00808080009180800002002000a337240093
:10201c00cefb0700e08f8800f18f8800a080800045
:10202c00b180800002002000a3372400c7fb07000a
:10203c000090880011908800e48f8000f58f80005c
:10204c0000908000119080000001be000400be00d2
:10205c0034fa0700020020000300240090fa070065
:10206c002090880031908800c0808000d180800052
:10207c0002002000a3372400b4fb07004090880026
:10208c0051908800c0908000d190800060908800b2
:10209c0071908800e0908000f19080008090880022
:1020ac00919088000091800011918000a090880090
:1020bc00b19088006890800079908000209080001a
:1020cc003190800002002000a337240074fa07002e
:1020dc000005be00a0908000b19080006efa070051
:1020ec000001be000a00be0098fb07000001be0004
:1020fc000800be000bfa0700c0908800d190880041
:10210c008890800099908000209080003190800011
:10211c0002002000a337240061fa07000005be006e
:10212c00a0908000b190800025fc07000001be004b
:10213c000a00be0085fb07000001be000800be00bf
:10214c00f8f90700e0908800f1908800a4908000d6
:10215c00b5908000c0808000d18080000001be005e
:10216c000400be00eff9070000918800119188006f
:10217c00009180001191800018c0b300b2fd2000c6
:10218c00930424008afa07000000e00001003c00e0
:10219c000044eb000804e0000700320000918000ce
:1021ac0011918000b2fd2000930c2400dcf9070093
:1021bc00009188001191880000918000119180009d
:1021cc0018c0b300b2fd200093042c0076fa07006f
:1021dc000000e000010035000044eb000804e000c2
:1021ec00070032000091800011918000b2fd2000a8
:1021fc00930c2400cbf90700009188001191880002
:10220c004f05be004f04be000080fa00000006001f
:10221c001800fa0050818000618180000001be002e
:10222c008000eb000e007800fb020700c0908000dd
:10223c00d19080000001be00410020000e0078000b
:10224c00dc020700e0908000f19080000001be00ed
:10225c00810020000e007800d6020700009180005b
:10226c00119180000001be00c10020000e0078001a
:10227c00d002070020908000319080000001be0049
:10228c00010120000e007800ca0207004090800077
:10229c00519080000001be00410120000e0078002a
:1022ac00c40207000e0178008101200010062000f6
:1022bc00430107000080fa00000006000000fa004d
:1022cc0013e1a90011e1a9001061a8001021a900d7
:1022dc0081088000f0fc2f000080600080088800de
:1022ec000a21ef000621ef00404c20007008880006
:1022fc0000402b00600888002142800080ff2f00e6
:10230c00008060000000a000204288000108a900a5
:10231c002108a80011e1a8000080fa0000000600c6
:10232c000000fa0005e1a9000421a900000020002a
:10233c00a1372400050007000068a9002068a80048
:10234c0005e1a8000080fa00000006000400fa0075
:10235c00881f7800008fbe001e0178009e0190003f
:10236c000068290081c12400cdf9070018c0b30012
:10237c0002f02f00f37724000dfa07000000e000b4
:10238c0001003c000044eb000804e0005400320063
:10239c0021088000f0fc2f00008060000040a000ad
:1023ac00200888001e0178009e019000006829001a
:1023bc0081c12400baf90700020020000310240098
:1023cc00b7f9070018c0b30002f02f00f377240010
:1023dc00f7f907000000e00001003c000044eb00ae
:1023ec000804e0003200320021088000f0fc2f00cd
:1023fc00008060000050a000200888001e017800ba
:10240c009e0190000068290081c12400a4f90700f6
:10241c000200200003282400a1f9070018c0b30013
:10242c0002f02f00f3772400e1f907000000e00030
:10243c0001003c000044eb000804e00010003200f6
:10244c002108800000032000010070002008880093
:10245c001e0178009e0190000068290081c12400b3
:10246c008ff9070002002000033824008cf90700c4
:10247c00d1f9070000007800100888002000370010
:10248c001e0178009e0190000068290081c1240083
:10249c0083f90700020020000328240080f90700bc
:1024ac00c5f90700000078001008880014003700f8
:1024bc001e0178009e0190000068290081c1240053
:1024cc0077f90700020020000310240074f90700bc
:1024dc00b9f90700000078001008880008003700e0
:1024ec001e0178009e0190000068290081c1240023
:1024fc006bf90700b0f9070000007800100888009d
:10250c004f0478000080fa00000006000000fa007a
:10251c001fe1a90000002000a147240006000700cd
:10252c001e21a9000368a9002368a8001fe1a800c8
:10253c000080fa00000006000400fa00881f7800f2
:10254c00008fbe00f1088000f0fc2f0000806000be
:10255c00f00888001e0178009e0190000068290098
:10256c0081c124004ef9070018c0b30002f02f00ff
:10257c00f37724008ef907000000e00001003c0016
:10258c000044eb000804e00054003200f108800025
:10259c00f0fc2f00008060000040a000f0088800d4
:1025ac001e0178009e0190000068290081c1240062
:1025bc003bf90700020020000310240038f9070043
:1025cc0018c0b30002f02f00f377240078f907004d
:1025dc000000e00001003c000044eb000804e000b7
:1025ec0032003200f1088000f0fc2f000080600007
:1025fc000050a000f00888001e0178009e01900099
:10260c000068290081c1240025f907000200200080
:10261c000328240022f9070018c0b30002f02f0091
:10262c00f377240062f907000000e00001003c0091
:10263c000044eb000804e00010003200f1088000b8
:10264c000003200001007000f00888001e017800d3
:10265c009e0190000068290081c1240010f9070038
:10266c0002002000033824000df9070052f907007e
:10267c0000007800d0088800200037001e01780088
:10268c009e0190000068290081c1240004f9070014
:10269c00020020000328240001f9070046f9070076
:1026ac0000007800d0088800140037001e01780064
:1026bc009e0190000068290081c12400f8f80700f1
:1026cc000200200003102400f5f807003af9070077
:1026dc0000007800d0088800080037001e01780040
:1026ec009e0190000068290081c12400ecf80700cd
:1026fc0031f9070000007800d00888004f047800fa
:10270c000080fa00000006000a00fa00200798007a
:10271c003107980042079800e0cfb300204798009b
:10272c002e0090004880de00804078002e40900003
:10273c0000c06800204798002e0090008040780070
:10274c002e40900000c06800204798003e0090008a
:10275c004880de00804078002e40900000c0680069
:10276c00204798003e009000804078002e4090005a
:10277c0000c06800204798000000eb00000f7800b4
:10278c00080037001e007800ce009000008040004a
:10279c0010407800ae40900000c0680020479800c0
:1027ac001e0fe8003e0090009e007800808f5000c5
:1027bc00f4ff35002e4090000080fa000000060067
:1027cc000e00fa00889fbe00400798005107980041
:1027dc00620798000f0478000f00780080047800de
:1027ec000000eb00000f78005e00900066004000d7
:1027fc008000e900210798000000e8000000e800d4
:10280c000000d100800040000f0078008187470055
:10281c000000e8000000d1000000400030079800e4
:10282c003e0090001e004000e1cfb300014878004c
:10283c001e0fe8004e0090004880de0080407800bb
:10284c003e0090001e004000014878001e0fe8007a
:10285c004e009000804078003e0090001e0040002a
:10286c00014878001e0fe8005e0090004880de00f2
:10287c00804078003e0090001e0040000148780027
:10288c001e0fe8005e009000804078003e00900033
:10289c001e004000014878001e0fe8000000eb000d
:1028ac00100798000b0037001e009000ee009000ff
:1028bc0000804000904078003e0090001e004000d8
:1028cc00014878001e0fe8001e0090000000e80090
:1028dc00100798009e0090005e009000808f5000c2
:1028ec00f1ff35006e019000de0090004e0090006c
:1028fc0085ff0700be0090009e8040008048780055
:10290c001e0fe8003e0090009e007800ac0307000c
:10291c0089077800880778004f04be000080fa0011
:10292c00000006000400fa0020479800e0818000b7
:10293c00e30f500023003200e30f500005003e006f
:10294c00e10f500013003200e10f500015003e0063
:10295c0007003700e50f50002d003200e50f500046
:10296c001c003900e60f50003800320049003700d7
:10297c002e409000e24f400002003a001000200070
:10298c00e08188003430ef003830ef003630ef0053
:10299c00440037003430ef0020002000e081880034
:1029ac00400037002e4090008080fb00a08180000a
:1029bc0000804000a081880030002000e081880069
:1029cc00380037003630ef0040002000e0818800ee
:1029dc00340037002e4090008080fb00b0818000d6
:1029ec0000804000b0818800b08180000000e000d1
:1029fc00040032003830ef0050002000e0818800e5
:102a0c002800370060002000e08188002500370096
:102a1c00c08180006115210000804000ae40900014
:102a2c0001487800c08180000000e800c081880067
:102a3c00c1818000b0818000808f5000180035006b
:102a4c0060002000e081880016003700ae40900046
:102a5c00014f7800b1818000a081800062152100b7
:102a6c0029ff0700104798001e4090009e4f500011
:102a7c0006003a00b081800080407800a081800080
:102a8c000040780062152100080007003c30ef0080
:102a9c00040037003c30ef0000000000010037005c
:102aac00000000000080fa00000006000400fa009c
:102abc00004f780011479800120798001e80fb0009
:102acc0021052000810f50000d003200210620004e
:102adc00810f50000e00320011052000810f5000b4
:102aec000e003a001e00900010407800b1fa07006a
:102afc001e019000110020003005200030ff07005f
:102b0c001e00900010407800b1fa07000300370057
:102b1c0010002000d0818800000000000080fa0026
:102b2c00000006000400fa00881f7800008fbe0029
:102b3c0018c0b3006011b8001e0078009e00900011
:102b4c001bf807000000e00001003d000044eb0012
:102b5c000804e000030032001e0078009e00900084
:102b6c00030037001e0078009e00900001f0a200c8
:102b7c004f0478000080fa00000006000800fa00fc
:102b8c00881f7800008fbe0022079800330798003a
:102b9c0018c0b3002e019000be0190001e007800fa
:102bac009e00900002f807000000e00001003c00cd
:102bbc000044eb000804e000030032001e00780023
:102bcc009e009000020037002e009000be00900086
:102bdc004f0478000080fa00000006000800fa009c
:102bec00881f7800008fbe002207980033079800da
:102bfc0018c0b3002e019000be0190001e0078009a
:102c0c009e009000e8f707000000e000010035008e
:102c1c000044eb000804e000030032001e007800c2
:102c2c009e009000020037002e009000be00900025
:102c3c004f0478000080fa00000006000c00fa0037
:102c4c00881f7800008fbe00220798003307980079
:102c5c00440798005507980018c0b3002e01900047
:102c6c00be0190001e0078009e009000cef7070079
:102c7c000000e000010035000044eb000804e00017
:102c8c00030032002e009000be00900010003700b0
:102c9c0018c0b3004e019000de0190001e007800b9
:102cac009e009000c2f707000000e00001003c000d
:102cbc000044eb000804e000030032004e009000da
:102ccc00de009000020037001e0078009e0090008d
:102cdc004f0478000080fa00000006000800fa009b
:102cec002007980031079800b2fd200093042400bf
:102cfc002e009000be00900009f70700b2fd2000e6
:102d0c00930c2400edf70700b2fd2000930424007f
:102d1c0004f70700008fbe00b2fd200093042400ce
:102d2c001e0078009e009000fef60700b2fd200009
:102d3c00930c2400e1f70700b2fd2000930424005b
:102d4c00f7f607000080fa00000006000a00fa00ff
:102d5c003007980041079800be0090004e0090008c
:102d6c00008f40001e007800100178009001900048
:102d7c0012079800230798001e009000ae009000e8
:102d8c000080fa00000006000600fa001007980008
:102d9c00210798009e0090002e009000008f4000ac
:102dac001e00780090009000100078000080fa005f
:102dbc00000006000c00fa0020079800310798006c
:102dcc0042079800530798006800470010079800c6
:102ddc000000eb00000f78000a0037003e00900066
:102dec001e004000ae009000008040009e00780065
:102dfc001e0190008100410091407800014878004c
:102e0c001e0fe8001e007800e30f5000f3ff3400a3
:102e1c000080fa00000006000c00fa002007980061
:102e2c003107980042079800530798006800470044
:102e3c00100798000000eb00000f78000b00370023
:102e4c003e0090001e004000ae009000008040004c
:102e5c00320020009e0051001e01900081004100b4
:102e6c0091407800014878001e0fe8001e007800a1
:102e7c00e30f5000f2ff34000080fa00000006005f
:102e8c000c00fa00200798003107980042079800c0
:102e9c005307980068004700100798000000eb00eb
:102eac00000f78000a0037003e0090001e00400022
:102ebc00ae009000008040009e0078001e01900043
:102ecc008100410091407800014878001e0fe80015
:102edc001e007800e70f5000f3ff34000080fa006a
:102eec00000006000000fa00881f7800a08f800008
:102efc00b18f800018c0b30002002000831c240096
:102f0c0029f707000000e000010035000044eb0049
:102f1c000804e0000e003200408f8000518f8000ca
:102f2c0018c0b30002002000831c24001ef7070009
:102f3c000000e000010035000044eb000804e00054
:102f4c00030032005000200090828800c10037003e
:102f5c00808f8000918f800018c0b3000200200089
:102f6c00c320240010f707000000e000010035002a
:102f7c000044eb000804e000030032005000200085
:102f8c0090828800b3003700a08f8000b18f800042
:102f9c0018c0b30002002000c320240002f7070071
:102fac000000e000010035000044eb000804e000e4
:102fbc0019003200808f8000918f800018c0b30000
:102fcc0002002000831c2400f9f607000000e0003a
:102fdc0001003c000044eb000804e0000e0032004d
:102fec00408f8000518f800018c0b3000200200079
:102ffc00c3202400eef607000000e00001003c00b6
:10300c000044eb000804e000030032002000200024
:10301c00908288008f003700a08f8000b18f8000d5
:10302c0018c0b30002002000c3202400e0f6070003
:10303c000000e00001003c000044eb000804e0004c
:10304c0019003200808f8000918f800018c0b3006f
:10305c0002002000831c2400d5f607000000e000cd
:10306c0001003c000044eb000804e0000e003200bc
:10307c00408f8000518f800018c0b30002002000e8
:10308c00c3202400c8f607000000e0000100350052
:10309c000044eb000804e000030032004000200074
:1030ac00908288006b003700c08f8000d18f800029
:1030bc0018c0b3000200200003122400baf6070067
:1030cc000000e000010035000044eb000804e000c3
:1030dc0041003200608f8000718f800018c0b300f7
:1030ec000200200003122400aff607000000e000ed
:1030fc00010035000044eb000804e000360032000b
:10310c00c48f8000d58f8000608f8000718f80000d
:10311c0018c0b3000001be000400be00a2f60700f8
:10312c000000e000010035000044eb000804e00062
:10313c000b003a00a08f8000b18f800018c0b30044
:10314c0002002000030a240097f607000000e000ac
:10315c00010035000044eb000804e00003003200dd
:10316c0060002000908288003a003700c48f8000f5
:10317c00d58f8000608f8000718f800018c0b300e5
:10318c000001be000400be0089f607000000e0004c
:10319c0001003c000044eb000804e0000b003a0086
:1031ac00408f8000518f800018c0b30002002000b7
:1031bc00030a24007cf607000000e0000100350043
:1031cc000044eb000804e0002100320070002000f5
:1031dc00908288001f003700c08f8000d18f800044
:1031ec0018c0b30002002000031724006ef607007d
:1031fc000000e000010035000044eb000804e00092
:10320c00030032001000200090828800110037006b
:10321c00608f8000718f800018c0b3000200200006
:10322c000317240060f607000000e00001003500e1
:10323c000044eb000804e0000300320030002000e2
:10324c0090828800030037005230ef0001003700f5
:10325c0000000000908280004f0478000080fa008b
:10326c00000006000000fa001160800080ff2f00b3
:10327c00008060001060880000fa20002060880048
:10328c0023aca800238ca80011618000f03f2f0014
:10329c000080600000a0a0001061880030002000b9
:1032ac0020618800c3aca800c38ca8001166800004
:1032bc00f03f2f000080600000a0a0001066880086
:1032cc00300020002066880001eca8000080fa0085
:1032dc00000006000000fa00889fbe00248f8000ca
:1032ec00358f8000008f8000118f800018c0b300d4
:1032fc000001be000400be002bf607000000e00039
:10330c00010035000044eb000804e0000d00320021
:10331c00088f8000198f8000248f8000358f8000eb
:10332c0040828000518280000001be000400be007b
:10333c007cf507000801be00c8000700208f88003c
:10334c00318f8800248f8000358f8000008f8000a3
:10335c00118f800018c0b3000001be000400be0035
:10336c0013f607000000e00001003c000044eb00f5
:10337c000804e0000d003200088f8000198f8000d7
:10338c00248f8000358f8000408280005182800025
:10339c000001be000400be0061f507000801be007c
:1033ac0096000700208f8800318f8800208f8000c6
:1033bc00318f800018c0b3006011b800fcf5070015
:1033cc000000e00001003c000044eb000804e000b9
:1033dc0004003200c3eca90024cea800c3cca80082
:1033ec0003003700c3cca90024eea800c3eca8004e
:1033fc00208f8000318f80006a00070002002000bf
:10340c0003222400d1f607000cf607000000780018
:10341c0030668800e48e8000f58e8000c08e8000bf
:10342c00d18e800018c0b3000001be000400be00a5
:10343c00ddf507000000e000010035000044eb0062
:10344c000804e0000d003200c88e8000d98e800088
:10345c00e48e8000f58e80004082800051828000d6
:10346c000001be000400be002ef507000801be00de
:10347c007a000700e08e8800f18e8800e48e8000d0
:10348c00f58e8000c08e8000d18e800018c0b300f5
:10349c000001be000400be00c5f507000000e000fe
:1034ac0001003c000044eb000804e0000d00320079
:1034bc00c88e8000d98e8000e48e8000f58e80004e
:1034cc0040828000518280000001be000400be00da
:1034dc0013f507000801be0048000700e08e8800c5
:1034ec00f18e8800e08e8000f18e800018c0b30051
:1034fc006011b800aef507000000e00001003c00d0
:10350c000044eb000804e0000400320023cca900c6
:10351c0015eea80023eca8000300370023eca9004b
:10352c0015cea80023cca800e08e8000f18e800080
:10353c001c000700020020000322240083f6070071
:10354c00bef5070000007800306188004f04be0013
:10355c000080fa00000006000600fa00008fbe0092
:10356c00220798002e0090000000e00006003a00b0
:10357c001e0078009e00900001f0a200008f8800d1
:10358c00118f8800050037001e0078009e00900007
:10359c0001f0a200c08e8800d18e88000080fa0055
:1035ac00000006000400fa00881f7800008fbe009f
:1035bc0018c0b3006011b8001e0078009e00900087
:1035cc007bf507000000e00001003d000044eb002b
:1035dc000804e000030032001e0078009e009000fa
:1035ec00030037001e0078009e00900001f0a2003e
:1035fc004f0478000080fa00000006000800fa0072
:10360c00881f7800008fbe002207980033079800af
:10361c0018c0b3002e019000be0190001e0078006f
:10362c009e00900062f507000000e00001003c00e5
:10363c000044eb000804e000030032001e00780098
:10364c009e009000020037002e009000be009000fb
:10365c004f0478000080fa00000006000800fa0011
:10366c00881f7800008fbe0022079800330798004f
:10367c0018c0b3002e019000be0190001e0078000f
:10368c009e00900048f507000000e00001003500a6
:10369c000044eb000804e000030032001e00780038
:1036ac009e009000020037002e009000be0090009b
:1036bc004f0478000080fa00000006000c00fa00ad
:1036cc00881f7800008fbe002207980033079800ef
:1036dc00440798005507980018c0b3004e0190009d
:1036ec00de0190001e0078009e00900030f507006f
:1036fc000000e00001003c000044eb000804e00086
:10370c00040032004e019000de019000028fbe00da
:10371c000e00370018c0b3002e019000be019000bf
:10372c001e0078009e0090001ff507000000e000ce
:10373c00010035000044eb000804e00003003200f7
:10374c002e019000be019000028fbe001e0078007a
:10375c009e0090004f0478000080fa0000000600e4
:10376c000400fa00008fbe00b2fd20009304240078
:10377c001e0078009e009000c9f407000200200093
:10378c0043332400f1f507000080fa000000060026
:10379c000400fa00008fbe00b2fd20009304240048
:1037ac001e0078009e009000e8f507000200200043
:1037bc0043332400baf407000080fa00000006002e
:1037cc000600fa0010079800210798000040eb0053
:1037dc00004f780054000700ae009000810f50009d
:1037ec00110034000040eb00004f78000600370059
:1037fc001e80fb009e00900000804000104078006e
:10380c000b0007001e4fe8009e80fb002e0090006e
:10381c00808f5000f6ff3500300007000004e000f8
:10382c0001003a00240007000080fa0000000600a6
:10383c000200fa00004f7800f08180006105210041
:10384c00008040001e487800f1818000e0072000d5
:10385c00808f5000020034003e30ef000300370030
:10386c00f08180000000e800f08188000080fa0000
:10387c00000006000200fa000082800061052100b1
:10388c0000804000104f780001828000e00720008b
:10389c00808f5000020034004030ef0003003700ee
:1038ac00008280000000e800008288001e40780042
:1038bc000080fa00000006000200fa0010c0b300fd
:1038cc0042f0b700ebff0700004f78001e80fb00b2
:1038dc00201188000080fa00000006000000fa00a9
:1038ec0042d0bf000080fa00000006000000fa0081
:1038fc00f181800000828000808f50000400350030
:10390c00f1818000008280000080500004003700ac
:10391c00f181800000828000008050000008b0001f
:10392c000080fa00000006000000fa00efff07001c
:10393c0001082000008050000080fa000000060002
:10394c000000fa0021e3a9002143a800011980001e
:10395c00f0cf2f0000806000001988002043a900e0
:10396c0001198000000e2000010070000019880071
:10397c0011198000f0ff21000080600010198800f0
:10398c002343a80011198000f0cf2f0000806000a5
:10399c00101988001119800030f82f000080600089
:1039ac000040a000101988002203a9002223a900be
:1039bc0025e3a900f0c0b30024e3b700211980006f
:1039cc00f00f2e008080600000f0200001007000dd
:1039dc00201988003303a9004feea8002e0ea80072
:1039ec002f6ea8006f2ea8001e2ea80031e3a80091
:1039fc0030c3a8003163a8002e03a8003063a800d0
:103a0c004119800000fc2f000080600040198800e4
:103a1c0028e3a90001a8a90021a8a80021e3a80077
:103a2c000080fa00000006000000fa002023a80025
:103a3c000080fa00000006000000fa00402221007d
:103a4c000080fa00000006000000fa0051d0bf0010
:103a5c000080fa00000006000000fa005170ef0030
:103a6c000080fa00000006000200fa00004f780007
:103a7c002c0007000000e0000d0034006082800084
:103a8c00610d2100008040001e487800618280009a
:103a9c00e0072000808f5000020034004c30ef0013
:103aac0003003700608280000000e800608288001c
:103abc000080fa00000006000200fa00708280000c
:103acc00610d210000804000104f78007182800051
:103adc00e0072000808f5000020034004e30ef00d1
:103aec0003003700708280000000e80070828800bc
:103afc001e4078000080fa00000006000000fa006a
:103b0c006182800070828000808f50000200320041
:103b1c0010c0b300010037000040eb000080fa0039
:103b2c00000006000000fa006182800070828000b4
:103b3c00808f50000500340071828000608280000c
:103b4c00008050000008b000040037006182800043
:103b5c0070828000008050000008b0000080fa00e5
:103b6c00000006000000fa00eeff0700010820002c
:0c3b7c00008050000080fa0000000600ed
:020000040000fa
:103b8800201000000a00000080000000441000001f
:103b980004000000820000000f0001000000000087
:103ba8002a1000000a00000080000000d611000062
:103bb8004e000000800000004810000004000000d3
:103bc8008200000000007000410000002412000084
:103bd8000a000000800000005010000002000000f1
:103be8008000000052100000020000008000000069
:103bf8005610000080000000800000003e10000009
:103c08000600000080000000d610000080000000c0
:103c1800800000004c10000004000000800000003c
:103c280056110000800000008000000034100000e1
:103c38000a000000800000000010000020000000c2
:103c48008000000054100000020000008000000006
:043c58000000000068
:020000040000fa
:103c5c000000fa000e2eef001e2eef002e2eef00ad
:103c6c003e2eef004e2eef005e2eef006e2eef007c
:103c7c00214ea90060cea90060eea90011cea900ca
:103c8c0011eea90020cea90020eea900002ea8005c
:103c9c002136800000f82f00008060008001b30006
:103cac00203688001134800000fc2f00008060005a
:103cbc000000a000103488000136800000f82f00ae
:103ccc008080600010062000010070000036880023
:103cdc0001368000f00f2800808060000000260074
:103cec000100700000368800e135800000f82f00dc
:103cfc00808060006004200001007000e0358800c6
:103d0c00e1358000f00f2800808060000050240016
:103d1c0001007000e03588000080fa000000060009
:103d2c000000fa002002a9000111800090ff2f0072
:103d3c00008060000011880020a2a9002062a80069
:103d4c00500520004011880023a2a90023e2a900fd
:103d5c000188a9002188a80011118000f0f32f0020
:103d6c0000806000101188000168a9002168a8007b
:103d7c0021e2a8002342a8000080fa0000000600ff
:103d8c000600fa0010079800210798000040eb008d
:103d9c00004f78000040eb00004f78000e00370019
:103dac000000000011118000002020000080600045
:103dbc000000e000fbff3a001e009000104078006d
:103dcc000080fb00201188001e0090000000e8001d
:103ddc00100798001e4fe8009e80fb002e009000fc
:103dec00808f5000eeff35000080fa0000000600c6
:103dfc000000fa00f0032000303a8800213a8000dd
:103e0c00f0f32f0000806000203a8800213a8000f7
:103e1c0000fe2f00008060000000a000203a880007
:103e2c001200200080072000a1092000337420001c
:103e3c00804978008149780082497800103a8000e6
:103e4c00000178000200a000600420007105200031
:103e5c0023742000804978008149780082497800d9
:103e6c0000000000113a80000000270080806000f4
:103e7c0000002100808f5000faff3a000000000083
:103e8c00113a800000022000008060000000e00079
:0c3e9c00fbff32000080fa00000006006e
:020000040000fa
:02000004000af0
:04afe000cfff00009f
:020000040000fa
:02000004000af0
:04afe400ffff00006b
:020000040000fa
:02000004000af0
:04afe8007fff0000e7
:020000040000fa
:02000004000af0
:04afec005fff000003
:020000040000fa
:02000004000af0
:04aff00038ff000026
:020000040000fa
:02000004000af0
:04aff400ffff00005b
:00000001FF
