:020000040000fa
:080000000002040000000000f2
:020000040000fa
:04000800f8030000f9
:020000040000fa
:04000c00f8030000f5
:020000040000fa
:04001000f8030000f1
:020000040000fa
:04001400f8030000ed
:020000040000fa
:04001800f8030000e9
:020000040000fa
:04001c00f8030000e5
:020000040000fa
:04002000f8030000e1
:020000040000fa
:04002400f8030000dd
:020000040000fa
:04002800f8030000d9
:020000040000fa
:04002c00f8030000d5
:020000040000fa
:04003000f8030000d1
:020000040000fa
:0400340002030000c3
:020000040000fa
:04003800f8030000c9
:020000040000fa
:04003c00f8030000c5
:020000040000fa
:04004000f8030000c1
:020000040000fa
:04004400f8030000bd
:020000040000fa
:04004800fa020000b8
:020000040000fa
:04004c00f8030000b5
:020000040000fa
:04005000f8030000b1
:020000040000fa
:04005400b4030000f1
:020000040000fa
:040058008a03000017
:020000040000fa
:04005c006603000037
:020000040000fa
:04006000f8030000a1
:020000040000fa
:04006400f80300009d
:020000040000fa
:04006800f803000099
:020000040000fa
:04006c00f803000095
:020000040000fa
:04007000f803000091
:020000040000fa
:04007400f80300008d
:020000040000fa
:04007800f803000089
:020000040000fa
:04007c00f803000085
:020000040000fa
:04008000f803000081
:020000040000fa
:04008400f80300007d
:020000040000fa
:04008800f803000079
:020000040000fa
:04008c00f803000075
:020000040000fa
:04009000f803000071
:020000040000fa
:040094004e03000017
:020000040000fa
:04009800f803000069
:020000040000fa
:04009c00f803000065
:020000040000fa
:0400a000f803000061
:020000040000fa
:0400a400f80300005d
:020000040000fa
:0400a800f803000059
:020000040000fa
:0400ac00f803000055
:020000040000fa
:0400b000f803000051
:020000040000fa
:0400b400f80300004d
:020000040000fa
:0400b800f803000049
:020000040000fa
:0400bc00f803000045
:020000040000fa
:0400c000f803000041
:020000040000fa
:0400c400f80300003d
:020000040000fa
:0400c800f803000039
:020000040000fa
:0400cc00f803000035
:020000040000fa
:0400d000f803000031
:020000040000fa
:0400d400f80300002d
:020000040000fa
:0400d800f803000029
:020000040000fa
:0400dc00f803000025
:020000040000fa
:0400e000f803000021
:020000040000fa
:0400e400f80300001d
:020000040000fa
:0400e800f803000019
:020000040000fa
:0400ec00f803000015
:020000040000fa
:0400f000f803000011
:020000040000fa
:0400f400f80300000d
:020000040000fa
:0400f800f803000009
:020000040000fa
:0400fc00f803000005
:020000040000fa
:04010000f803000000
:020000040000fa
:04010400f8030000fc
:020000040000fa
:04010800f8030000f8
:020000040000fa
:04010c00f8030000f4
:020000040000fa
:04011000f8030000f0
:020000040000fa
:04011400f8030000ec
:020000040000fa
:04011800f8030000e8
:020000040000fa
:04011c00f8030000e4
:020000040000fa
:04012000f8030000e0
:020000040000fa
:04012400f8030000dc
:020000040000fa
:04012800f8030000d8
:020000040000fa
:04012c00f8030000d4
:020000040000fa
:04013000f8030000d0
:020000040000fa
:04013400f8030000cc
:020000040000fa
:04013800f8030000c8
:020000040000fa
:04013c00f8030000c4
:020000040000fa
:04014000f8030000c0
:020000040000fa
:04014400f8030000bc
:020000040000fa
:04014800f8030000b8
:020000040000fa
:04014c00f8030000b4
:020000040000fa
:04015000f8030000b0
:020000040000fa
:04015400f8030000ac
:020000040000fa
:04015800f8030000a8
:020000040000fa
:04015c00f8030000a4
:020000040000fa
:04016000f8030000a0
:020000040000fa
:04016400f80300009c
:020000040000fa
:04016800f803000098
:020000040000fa
:04016c00f803000094
:020000040000fa
:04017000f803000090
:020000040000fa
:04017400f80300008c
:020000040000fa
:04017800f803000088
:020000040000fa
:04017c00f803000084
:020000040000fa
:04018000f803000080
:020000040000fa
:04018400f80300007c
:020000040000fa
:04018800f803000078
:020000040000fa
:04018c00f803000074
:020000040000fa
:04019000f803000070
:020000040000fa
:04019400f80300006c
:020000040000fa
:04019800f803000068
:020000040000fa
:04019c00f803000064
:020000040000fa
:0401a000f803000060
:020000040000fa
:0401a400f80300005c
:020000040000fa
:0401a800f803000058
:020000040000fa
:0401ac00f803000054
:020000040000fa
:0401b000f803000050
:020000040000fa
:0401b400f80300004c
:020000040000fa
:0401b800f803000048
:020000040000fa
:0401bc00f803000044
:020000040000fa
:0401c000f803000040
:020000040000fa
:0401c400f80300003c
:020000040000fa
:0401c800f803000038
:020000040000fa
:0401cc00f803000034
:020000040000fa
:0401d000f803000030
:020000040000fa
:0401d400f80300002c
:020000040000fa
:0401d800f803000028
:020000040000fa
:0401dc00f803000024
:020000040000fa
:0401e000f803000020
:020000040000fa
:0401e400f80300001c
:020000040000fa
:0401e800f803000018
:020000040000fa
:0401ec00f803000014
:020000040000fa
:0401f000f803000010
:020000040000fa
:0401f400f80300000c
:020000040000fa
:0401f800f803000008
:020000040000fa
:0401fc00f803000004
:020000040000fa
:04020000f8030000ff
:020000040000fa
:04020400f8030000fb
:020000040000fa
:04020800f8030000f7
:020000040000fa
:04020c00f8030000f3
:020000040000fa
:04021000f8030000ef
:020000040000fa
:04021400f8030000eb
:020000040000fa
:04021800f8030000e7
:020000040000fa
:04021c00f8030000e3
:020000040000fa
:04022000f8030000df
:020000040000fa
:04022400f8030000db
:020000040000fa
:04022800f8030000d7
:020000040000fa
:04022c00f8030000d3
:020000040000fa
:04023000f8030000cf
:020000040000fa
:04023400f8030000cb
:020000040000fa
:04023800f8030000c7
:020000040000fa
:04023c00f8030000c3
:020000040000fa
:04024000f8030000bf
:020000040000fa
:04024400f8030000bb
:020000040000fa
:04024800f8030000b7
:020000040000fa
:04024c00f8030000b3
:020000040000fa
:04025000f8030000af
:020000040000fa
:04025400f8030000ab
:020000040000fa
:04025800f8030000a7
:020000040000fa
:04025c00f8030000a3
:020000040000fa
:04026000f80300009f
:020000040000fa
:04026400f80300009b
:020000040000fa
:04026800f803000097
:020000040000fa
:04026c00f803000093
:020000040000fa
:04027000f80300008f
:020000040000fa
:04027400f80300008b
:020000040000fa
:04027800f803000087
:020000040000fa
:04027c00f803000083
:020000040000fa
:04028000f80300007f
:020000040000fa
:100400000f3a21000eff2c000e01880000000000b2
:10041000000020000000e000020032000001200087
:100420002002880014000700f30007000000e0002d
:1004300003003a00401022000100200002003700b3
:100440000000200001002000810f70000100320038
:100450000f000700000020000000e0000200320052
:100460000000020000000000060902000000000079
:100470000040da000000fe00200020000000e00044
:1004800002003200100020009001880000000600e9
:10049000a1028800800478000000eb001f003700f4
:1004a000e284440054a0b4009905ba00e2844400f8
:1004b00054a0b4009906ba00e284440054a0b400e9
:1004c0000006eb00476fde00fd07b200ae018800ba
:1004d000636ce10003003a000ad801000000eb0061
:1004e0000e003700606ce10008003a00004deb00a0
:1004f0000a05e800020039003420ec000af0a000f0
:100500008b05e900f9ff3e00040037006168e10057
:10051000010032000086eb000b00070019c7ba008b
:100520000e04e0001905ba0003003a000a00e000da
:10053000dbff3a0000000600fe07b200ae028800b2
:100540008a047800f5ff37000cd0a300e20f4d00bd
:100550001c00390089027800354dba000a05e80010
:10056000020039003420ec000af0a0008b05e900fd
:100570000f003200254dba000a05e80002003900dc
:100580003420ec000af0a0008b05e90008003200de
:100590000c00e0000600320015cdba000a05e800a4
:1005a000020039003420ec000af0a0008b05e900bd
:1005b0008984e80054a0b4000b00e000e2ff3a0098
:1005c000000006009902ba00055d78008b05e9007d
:1005d000f7ff3200c82ade00055d78008b05e900d0
:1005e000f3ff32000c00e000f1ff320019ddba0029
:1005f000eeff37000000fa000108a9000080fa00b1
:10060000004006003600f800809fbe00829fbe00ba
:10061000849fbe00869fbe000200fa000068a90009
:10062000a40e0700b6080700a6070700c8070700c2
:100630005a07070090828000000f7800a100200078
:100640001e00780081017800110009000300d80025
:1006500001f0a7008100ea008100e900cf08de0078
:10066000814078001e0178000200e8009082880036
:100670000104e00002003200f807070095090700b6
:100680000080fa004f03be004f02be004f01be00c3
:100690004f00be003600f90000400600809fbe00fb
:1006a0000000fa000368a900708280008182800047
:1006b00061004000e08048007082880081828800ec
:1006c0000080fa004f00be0000400600801f780046
:1006d0000000fa0001a8a90000188000b09c880062
:1006e00010188000c09c880020188000d09c8800d2
:1006f00030188000e09c880040188000f09c880042
:1007000010c0b3006bf0b7000080fa004f00780013
:10071000004006003600f800809fbe00829fbe00a9
:10072000849fbe00869fbe000000fa000188a900d9
:10073000d1828000c0828000808f50000200320091
:10074000000e0700010037005c70ef000080fa0027
:100750004f03be004f02be004f01be004f00be005f
:100760003600f900004006003600f800809fbe0009
:10077000829fbe00849fbe00869fbe000000fa00dc
:100780000168a90010118000640060000000e00012
:10079000010032002242a9001011800062006000b6
:1007a0000000e000060032002222a9000500370008
:1007b00030118000004078004e0e07000100370025
:1007c0000000000010118000610060000000e000e7
:1007d000f7ff3a000080fa004f03be004f02be0050
:1007e0004f01be004f00be003600f9000040060079
:1007f0000040da000000fe000000050003f0a20047
:10080000889fbe008a9fbe008c1f78006e01070083
:10081000750133006450e1004f0032006420e100b4
:100820005200320003826c0007003b000905d00033
:100830000306d000820f54000c065d000200390050
:100840000200320089017800030678008582550095
:1008500004003d000003fd008103fd008502ea0065
:100860008b854200840f720002003b006000100084
:10087000e08018006011b8000005eb007a28e10064
:100880000a00390006007800c75ddd00f707b200f6
:10089000878075002d003700828171000a01780081
:1008a000610560008180d1000080d3008502e900ed
:1008b000f9ff3b00060440008784480002003b002b
:1008c00060041400e0841c000988a30007003200c3
:1008d0008a81710082817100610164008904d10004
:1008e0000884d3008b05e800170037000978a300bf
:1008f00013003a000b00e000130034008b05e90000
:100900000804440089844c000a4474000978a30058
:100910000d003a000b00e000070034008b05e900f1
:100920000804440089844c0001003a000b002000b8
:100930000978a300f7ff32000001eb000200370046
:10094000828171000a017800e40007000cf0a70022
:1009500001f0a0002d0137006420e10002003a0000
:10096000838f6c002d0133000801be000200be0021
:10097000260137000081eb005f013700889fbe0031
:100980008a9fbe008c1f78000f01070016013300fc
:1009900003866c006450e1002e0032006420e10008
:1009a000330032006150e1002f0032006120e1008d
:1009b0003100320085855500eb07b00009002000aa
:1009c00008042000050037000804440089844c0016
:1009d0000a0031000603430087834b0000015300e7
:1009e00081815b00f8ff33000203be000800a00015
:1009f0000804440089844c00f6ff3900c639dd0044
:100a00008301730001003200130020008904d1002b
:100a10000884d3000998a300050032000800a7004d
:100a20000300a0008904d1000884d3008b05e800ee
:100a30008904d1000884d3000001eb000281d200b8
:100a4000a600070001f0a1000cf0a70001f0a00033
:100a5000ee0037006420e100f00032000801be0023
:100a60000200be00f7ff37006120e100eb0032001a
:100a70006000b800f3ff37000000200001f82700f5
:100a8000f0ff37001400200086013700f4ff2f002c
:100a9000840137000001be00b60007000470a70003
:100aa00003f0a1006509b100160032000d00350009
:100ab0006828e10006003500f0ff2f00f1ff270055
:100ac0000300e00013003b000100280000000500c7
:100ad00000004000818048008502e900fcff3a00e8
:100ae00008003700f88f420002003c008000eb0055
:100af000000005008100d1000080d3008502e800dd
:100b0000fcff3a000300e00002003b006000100020
:100b1000e0801800000006000001be0095000700fc
:100b20000470a70003f0a10003f8a30013003a002b
:100b30006509b10010003200090035006928e100a4
:100b40000200350001002800000005000000400000
:100b5000818048008502e900fcff3a0000000600a1
:100b6000f88f4200050035008100d1000080d300dd
:100b70008502e800fcff3a00000006008000eb0060
:100b8000000005004f89de00820178006001370017
:100b90006011b8006e01370004002000000037002b
:100ba000889fbe008a9fbe008c1f78004f26dd0004
:100bb000850007008c0033006120e1004300320013
:100bc0006250e10041003e003e0039006420e10037
:100bd0003c003200058255000f003b000402e80093
:100be00038003a00800f5300818f5b0035003400dd
:100bf0000800be0003f0a10001f0a60003f0a00071
:100c00000cf0a700fefe070080003700060343003b
:100c100087834b000c4646000005530081855b002e
:100c2000020033000a03be000c00a0000402e90029
:100c3000f6ff3b00850578000602430087824b00e3
:100c400004003a006000b80009f0a70001f0a0001d
:100c50006e0037000002520081825a000704e00053
:100c6000040033000603430087834b008b05e90033
:100c7000faff3700090578000604be000203be0033
:100c80006011b80015000700e00f5200e08f5a0015
:100c90000700350002003c000c08a30004003200ed
:100ca0000601be0003f0a0000cf0a700d4fe070070
:100cb0000a85680001f0a1000af0a70001f0a00079
:100cc000520037000800be0050003700100220001c
:100cd0000cf0a600708388005000370081002000cf
:100ce000618055000b003d000b00200061fe2f00cd
:100cf0000100e1001d003400828171006101640087
:100d00008904d1000884d3000000e800faff3a000b
:100d100071002000610064000300700002006000a8
:100d20000900320061044400e0844c000988a500f9
:100d3000050032008b05e8006808e10002003a0077
:100d40008904d1000884d300f20f20000258e1008a
:100d500005003d00c75ddd00f907b2008980750020
:100d600008007800000006000bf827008b007800d0
:100d700000000500c70ade00f107b200f50fb2005f
:100d800008003200e1cf4200020032000170a000f2
:100d900024000500810f70000100320004080500e6
:100da00044000500810f700002003a0014000500a5
:100db0008502e9000000400081c04800fcff3b00c4
:100dc0000170a000240005000004be00e9ff070038
:100dd0000003be000405be000200be00e5ff0700e0
:100de000844f7500000006000200be006450e10060
:100df000050036006420e100020036000968a30007
:100e000001003a000800be000160a0004f06780013
:100e10004f05be004f04be0000000600f0ff2f008b
:100e2000f1ff2700f9ff3700889fbe008a9fbe00b0
:100e30008c1f7800e4ff0700ebff330003866c0093
:100e40006450e100240032006420e10027003200f9
:100e50006150e100220032006120e10021003200f7
:100e60008b854200eb07b1000134b800003ab800ae
:100e70000804420089844a00013ab8000030b800f2
:100e80008880400009014a0004003300000040004f
:100e900081804800020149008b05e900c909dd0095
:100ea000830170000100320013002000c814de002e
:100eb0004814dd004709de001200b200c808de0059
:100ec0000884700085ff070001f0a1000cf0a70066
:100ed00001f0a000cdff37006120e100cfff32001c
:100ee0000801be000200be00f7ff37006150e100bc
:100ef000fcff3a00c9ff3700889fbe008a9fbe00f2
:100f00008c9fbe00820578000004be0099ff070098
:100f10000800be006420e1000700390002003a002a
:100f2000f1ff2700f0ff2f000160a0001202200057
:100f300072838800550037006120e10003003a0009
:100f40000b00a70001f823005000370001f0a100ba
:100f50000200210093642400cafe07000800be00be
:100f600004003500b2fd2000930c24000aff0700a6
:100f70000004be000005eb000b00a6004f0dde00d4
:100f800001f0a1000004be0032982f0023ea2300e4
:100f9000a5ff07000001eb0003f023000b00a700f2
:100fa00003f8230016fe0700bafe07000000a700a2
:100fb0000a00a200f3fe07000b00e000030032006d
:100fc0000200200003f023000cfe070001f0a20045
:100fd0000006be00020020009304240092ff0700d8
:100fe0000801be0006fe0700809fbe000c00be0088
:100ff00022a22a00d3a723008bff07004f01be00c7
:10100000fffd07000004be0001f0a1000200200067
:10101000039823009bfe07000800be00190035005e
:101020000001be0080ff07000006be00b2c5290017
:10103000e36223007cff070022222b00f3942b00a5
:10104000effd07000c01be0077ff0700e2732800e8
:1010500083c02300eafd07000c01be0072ff0700f9
:1010600042aa2a00a3e22b00e5fd07000c01be0006
:101070006dff07000801be006bff07000801be00fe
:10108000dffd07000a00a70001f0a2004f06be0026
:101090004f05be004f04be00000006000001eb003b
:1010a00095ff3700889fbe008a9fbe00841f78008e
:1010b00045ff07004f00780011003300f0ff2f00bc
:1010c000838f6c0006003b00040565000a00a70042
:1010d0000800370009f0a6001000200008003700c3
:1010e000820f5400838f5c00030039001000200041
:1010f00001003e000000200009f0a7000000ea0007
:101100004f05be004f04be000000e00000000600d6
:10111000881f7800030478000300e00007003d000a
:1011200060001000e080180060011900e0811900e3
:1011300002003b0001f02d0003003700040007000f
:1011400008f0a70001f0a0004f047800000006009e
:10115000889fbe008a9fbe0000827000040271005a
:1011600004827100260032000004be000200be00ae
:101170006011b8006b092000950220000182cf00a9
:101180000a0039000541b1000082cf000700390094
:101190000541b1000982cf00040039000541b100ca
:1011a0000882cf00010039000541b100054252001c
:1011b000120032000a003b0082817100610164006c
:1011c0008100d1000080d3008984d3000884d3003b
:1011d0008b05e8000442e800f7ff3a0007003700fb
:1011e0000804440089844c000000480081804800c5
:1011f0008b05e9000442e900f9ff3a00b7fe070059
:0c1200004f05be004f04be0000000600b9
:020000040000fa
:10120c000600fa009a0c0700310c07004404070092
:10121c006b0b0700f0060700d606070069070700ee
:10122c005f0c0700a1050700a90507006000b800c6
:10123c0090888800a18888006000b800b08788007a
:10124c00c1878800a00b0700e14f500083003a00d3
:10125c00a10b0700980b0700000f78001e00780008
:10126c00100078008000eb0046fe070032332300ac
:10127c0033052400e9fe0700020020000358240077
:10128c00bbfd0700d2cc2c00c3042400e3fe0700f6
:10129c0010079800210798001e019000ae019000e5
:1012ac000000200081202400b1fd07000200200076
:1012bc00030a24004efd0700308488004184880016
:1012cc001e80e800100078008000eb002dfe070067
:1012dc003233230033052400d0fe07000200200027
:1012ec0003582400a2fd0700d2cc2c00c304240018
:1012fc00cafe070010079800210798001e019000f5
:10130c00ae019000000020008120240098fd070011
:10131c0002002000030a240035fd07001084880019
:10132c00218488009e0078006480400010007800c2
:10133c008000eb0013fe070032332300330524003a
:10134c00b6fe0700020020000358240088fd0700a9
:10135c00d2cc2c00c3042400b0fe07001007980068
:10136c00210798001e019000ae01900000002000a3
:10137c00812024007efd070002002000030a2400c7
:10138c001bfd070050848800618488009e00780053
:10139c0068804000100078008000eb00f9fd070029
:1013ac0032332300330524009cfe0700020020008a
:1013bc00035824006efd0700d2cc2c00c30424007b
:1013cc0096fe070010079800210798001e01900058
:1013dc00ae019000000020008120240064fd070075
:1013ec0002002000030a240001fd0700708488001d
:1013fc00818488009e007800668040001000780090
:10140c008000eb00dffd070032332300330524009e
:10141c0082fe0700020020000358240054fd070040
:10142c00d2cc2c00c30424007cfe070010079800cb
:10143c00210798001e019000ae01900000002000d2
:10144c00812024004afd070002002000030a24002a
:10145c00e7fc070090848800a18488004830ef00e6
:10146c0007003700340b07004af0b7004ad0bf0022
:10147c00b9020700408280000000e800408288002a
:10148c00580b07008000780040828000808f50004d
:10149c00f4ff3e006bff37000200fa00004f7800ab
:1014ac001e417800b1042100824878000080fa00c7
:1014bc00000006000200fa00004f78001e40780081
:1014cc000004e00006003a006070ef00c0c0b300fa
:1014dc004bf0b700f0002000f082880006003700c7
:1014ec001e407800e14f500003003a0010c0b300da
:1014fc0060f0b7004b70ef000080fa0000000600af
:10150c000000fa0020828000e10f500006003a0033
:10151c00f0002000f082880064cea90064eea900df
:10152c00254ea8001100370020828000e20f5000e9
:10153c0006003a0040012000f082880064cea8002a
:10154c0064eea900254ea900080037002082800017
:10155c00e30f500005003a00e0012000f082880003
:10156c0064cea90064eea800254ea9004bd0bf00a4
:10157c000080fb00cf80de00720120000300200001
:10158c00820f5000838f5800ba003e000006010005
:10159c0017003700200037003200370041003700b9
:1015ac006900370072003700730037007c00370089
:1015bc007d00370087003700880037009200370025
:1015cc001f003700ae0037003800370042003700ec
:1015dc00430037004d0037004e00370058003700ed
:1015ec008b00370095003700960037009f003700be
:1015fc004e30ef005030ef000001eb006000b800ff
:10160c009c030700120020006000b800990307003b
:10161c0010c0b3004bf0b700728280008382800050
:10162c00803e200001002000800f5100818f590066
:10163c009500360020c0b3004bf0b7009300370084
:10164c000001eb006000b8008a03070012002000c4
:10165c006000b80087030700d0c0b3004bf0b700a0
:10166c008a003700308280000000e8003082880059
:10167c00f08280008000eb0042fd07000001eb00cf
:10168c007c030700f08280008000eb003dfd07002a
:10169c00120020007703070030c0b3004bf0b700f6
:1016ac007a0037007b000700780037000001eb0060
:1016bc000000200001172c006e0307001200200010
:1016cc000000200001172c006a030700f0c0b300d3
:1016dc004bf0b7006d0037006e0007006b00370051
:1016ec000001eb000000200001172400610307003b
:1016fc001200200000002000011024005d030700f0
:10170c0010c1b3004bf0b700600037006100070058
:10171c005e0037000001eb000000200001102400e7
:10172c0054030700120020000000200001172400c1
:10173c005003070030c1b3004bf0b7005300370023
:10174c0054000700510037000001eb00000020009e
:10175c000117240047030700120020006000b800a6
:10176c004403070050c0b3004bf0b70047003700ec
:10177c0048000700450037000001eb006000b8008e
:10178c003c03070012002000000020000117240079
:10179c003803070070c0b3004bf0b7003b003700b4
:1017ac003c000700390037000001eb00000020006e
:1017bc00011224002f03070012002000000020005b
:1017cc0001122c002b03070090c0b3004bf0b700a4
:1017dc002e0037002f0007002c0037000001eb0013
:1017ec000000200001122c00220307001200200030
:1017fc0000002000011224001e030700b0c0b3003b
:10180c004bf0b70021003700220007001f00370003
:10181c000001eb000000200001102400150307005c
:10182c00120020006000b80012030700120107002c
:10183c0050c1b3004bf0b70014003700150007007f
:10184c00120037000001eb006000b800090307002c
:10185c0012002000000020000110240005030700e6
:10186c0070c1b3004bf0b700080037000900070047
:10187c00060037004b70ef0000000000030037003b
:10188c000000000001003700000000000080fa009a
:10189c00000006000200fa00881f780060d0bf002c
:1018ac00e14f5000f1003a000040eb00004f78008f
:1018bc0090848000a184800018c0b3000200200036
:1018cc00031a24006cfc07000000e0000100350046
:1018dc000044eb000804e0002c003a007084800007
:1018ec008184800018c0b30002002000031f240074
:1018fc0061fc07000000e000010035000044eb0033
:10190c000804e00021003a005084800061848000cb
:10191c0018c0b30002002000c320240056fc0700ae
:10192c000000e000010035000044eb000804e0007a
:10193c0016003a00108480002184800018c0b30087
:10194c0002002000031f24004bfc07000000e000f5
:10195c00010035000044eb000804e0000b003a00e5
:10196c00308480004184800018c0b3000200200045
:10197c00031a240040fc07000000e00001003500c1
:10198c000044eb000804e0000500320010002000c9
:10199c0020828800fa060700004f78007300370099
:1019ac0090848000a184800018c0b3000200200045
:1019bc000322240030fc07000000e0000100350089
:1019cc000044eb000804e0002c003a007084800016
:1019dc008184800018c0b3000200200083242400fe
:1019ec0025fc07000000e000010035000044eb007e
:1019fc000804e00021003a005084800061848000db
:101a0c0018c0b30002002000032724001afc0700b2
:101a1c000000e000010035000044eb000804e00089
:101a2c0016003a00108480002184800018c0b30096
:101a3c0002002000832424000ffc07000000e000bb
:101a4c00010035000044eb000804e0000b003a00f4
:101a5c00308480004184800018c0b3000200200054
:101a6c000322240004fc07000000e0000100350004
:101a7c000044eb000804e0000300320020002000ca
:101a8c00208288003900370090848000a184800077
:101a9c0018c0b3000200200003222400f8fb07004a
:101aac000000e00001003d000044eb000804e000f1
:101abc002c003a00708480008184800018c0b30030
:101acc000200200083242400edfb07000000e0004e
:101adc0001003d000044eb000804e00021003a0046
:101aec00508480006184800018c0b3000200200084
:101afc0003272400e2fb07000000e00001003d008a
:101b0c000044eb000804e00016003a00108480004a
:101b1c002184800018c0b30002002000832424001c
:101b2c00d7fb07000000e00001003d000044eb0083
:101b3c000804e0000b003a003084800041848000ef
:101b4c0018c0b3000200200003222400ccfb0700c5
:101b5c000000e00001003d000044eb000804e00040
:101b6c000200320030002000208288001e407800e5
:101b7c000004e00003003a0020c0b3004cf0b700b2
:101b8c00300037001e407800e34f500003003a004d
:101b9c0000c1b3004cf0b7002a0037001e4078009b
:101bac00e14f500003003a0020c1b3004cf0b700e5
:101bbc00240037001e407800e44f500003003a0028
:101bcc0040c0b3004cf0b7001e0037001e40780038
:101bdc00e24f500003003a0060c0b3004cf0b70075
:101bec00180037001e407800e54f50000a003a00fc
:101bfc0030828000610060000000e00003003a00c9
:101c0c0080c0b3004cf0b7000e003700a0c0b3008a
:101c1c004cf0b7000b0037001e407800e64f500028
:101c2c0003003a0040c1b3004cf0b7000500370088
:101c3c001e407800e74f500002003a0060c1b3002c
:101c4c004cf0b7004cd0bf008080fb004bd0bf00e5
:101c5c000080fb000000e900808f50000300320080
:101c6c004cd0bf004bf0b700030007004f047800c6
:101c7c000080fa00000006000600fa00b5042100fe
:101c8c009542780070828000818280004808de00d6
:101c9c000042780070828000818280004008de0063
:101cac008041780070828000818280004809dd00cc
:101cbc004800de0000007100c808de00004178001a
:101ccc00708280008182800000407800054f78008f
:101cdc0014479800234798003247980040479800d3
:101cec000e01780051002000000520004100070083
:101cfc000080fa00000006000800fa00008fbe0009
:101d0c0022079800330798000200200003122400d9
:101d1c001e0078009e00900015fb0700b08788001d
:101d2c00c18788002e019000be0190009288880027
:101d3c00a38888000080fa00000006000a00fa0060
:101d4c00200798003107980042079800e0cfb300b5
:101d5c00204798002e0090004880de0080407800dc
:101d6c002e40900000c06800204798002e00900084
:101d7c00804078002e40900000c0680020479800fa
:101d8c003e0090004880de00804078002e4090009d
:101d9c0000c06800204798003e009000804078000a
:101dac002e40900000c06800204798000000eb0017
:101dbc00000f7800080037001e007800ce0090005d
:101dcc000080400010407800ae40900000c06800d9
:101ddc00204798001e0fe8003e0090009e007800ff
:101dec00808f5000f4ff35002e4090000080fa00e8
:101dfc00000006000e00fa00889fbe004007980005
:101e0c0051079800620798000f0478000f007800c3
:101e1c00800478000000eb00000f78005e0090005a
:101e2c00660040008000e900210798000000e800ef
:101e3c000000e8000000d100800040000f00780096
:101e4c00818747000000e8000000d100000040003e
:101e5c00300798003e0090001e004000e1cfb30018
:101e6c00014878001e0fe8004e0090004880de000c
:101e7c00804078003e0090001e0040000148780031
:101e8c001e0fe8004e009000804078003e0090004d
:101e9c001e004000014878001e0fe8005e00900014
:101eac004880de00804078003e0090001e0040001c
:101ebc00014878001e0fe8005e009000804078001a
:101ecc003e0090001e004000014878001e0fe80004
:101edc000000eb00100798000b0037001e0090006c
:101eec00ee00900000804000904078003e00900092
:101efc001e004000014878001e0fe8001e009000f4
:101f0c000000e800100798009e0090005e00900012
:101f1c00808f5000f1ff35006e019000de009000c4
:101f2c004e00900085ff0700be0090009e80400090
:101f3c00804878001e0fe8003e0090009e0078005c
:101f4c00bf07070089077800880778004f04be0098
:101f5c000080fa00000006000400fa0020479800f8
:101f6c0040808000e30f500023003200e30f50004c
:101f7c0005003e00e10f500013003200e10f50004d
:101f8c0015003e0007003700e50f50002d00320011
:101f9c00e50f50001c003900e60f500038003200ed
:101fac00490037002e409000e24f400002003a00fa
:101fbc0010002000408088000030ef000430ef005b
:101fcc000230ef00440037000030ef00200020000a
:101fdc0040808800400037002e4090008080fb003d
:101fec0000808000008040000080880030002000cd
:101ffc0040808800380037000230ef00400020009d
:10200c0040808800340037002e4090008080fb0018
:10201c0010808000008040001080880010808000bc
:10202c000000e000040032000430ef0050002000fb
:10203c004080880028003700600020004080880025
:10204c002500370020808000613121000080400095
:10205c00ae40900001487800208080000000e8002d
:10206c00208088002180800010808000808f5000ac
:10207c0018003500600020004080880016003700f2
:10208c00ae409000014f78001180800000808000ed
:10209c006231210029ff0700104798001e40900074
:1020ac009e4f500006003a0010808000804078005f
:1020bc000080800000407800623121000800070099
:1020cc000830ef00040037000830ef00000000007b
:1020dc0001003700000000000080fa00000006003c
:1020ec000400fa00889fbe008a9fbe00004f780053
:1020fc0011479800120798001e80fb003105200044
:10210c00810f50002000320031052000810f50005b
:10211c0007003c0011052000810f50000b0032001d
:10212c0021052000810f500010003200780037008c
:10213c0021062000810f50001000320041062000c3
:10214c00810f50001f003200710037001e009000fc
:10215c0010407800d0fc07001e01900011002000f8
:10216c003005200023ff0700690037001e00900097
:10217c0010407800cffc07006500370010002000ed
:10218c0030808800620037001e0090000000e800dc
:10219c00104078000080fb008000eb0079fa07000b
:1021ac000004be001e009000104078000080fb0070
:1021bc008000eb0073fa07000801be00cefe07009a
:1021cc00530037008000eb001e00900086040700cf
:1021dc002dfa070000007800508088004100200094
:1021ec001e009000800407006080880071808800c9
:1021fc00810020001e0090007b0407008080880076
:10220c0091808800c10020001e0090007604070019
:10221c00a0808800b1808800010120001e00900081
:10222c0071040700c0808800d18088004101200023
:10223c001e0090006c040700e0808800f18088008c
:10224c00810120001e0090006704070000818800b7
:10225c0011818800508080000000e00016003a00d8
:10226c000a8180001b818000e8808000f98080005a
:10227c00c6808000d7808000a4808000b58080005c
:10228c00828080009380800060808000718080005c
:10229c008a9fbe00889fbe00869fbe000403be00be
:1022ac000202be000001be00e012210094050700ee
:1022bc00ec875700160037000a8180001b818000d4
:1022cc00e8808000f9808000c6808000d780800084
:1022dc00a4808000b5808000828080009380800084
:1022ec0060808000718080008a9fbe00889fbe0045
:1022fc00869fbe000403be000202be000001be00a9
:10230c00e01521007e050700ec8757000000000057
:10231c004f05be004f04be000080fa00000006000e
:10232c000000fa001160800080ff2f000080600028
:10233c001060880000fa20002060880023aca80000
:10234c00238ca80011618000f03f2f0000806000fa
:10235c0000a0a000106188003000200020618800df
:10236c00c3aca800c38ca80011668000f03f2f00fe
:10237c000080600000a0a0001066880030002000e3
:10238c002066880001eca8000080fa00000006001e
:10239c000000fa00881f7800d0838000e183800061
:1023ac0018c0b3006011b800b5f907000000e000d8
:1023bc0001003c000044eb000804e0000400320083
:1023cc00c3eca90024cea800c3cca800030037009e
:1023dc00c3cca90024eea800c3eca800d0838000d5
:1023ec00e18380000f060700020020000322240076
:1023fc008afa0700c5f907000000780030668800eb
:10240c0090838000a183800018c0b3006011b800d5
:10241c009bf907000000e00001003c000044eb00c9
:10242c000804e0000400320023cca90015eea8003b
:10243c0023eca8000300370023eca90015cea8005c
:10244c0023cca80090838000a1838000f5050700b1
:10245c00020020000322240070fa0700abf90700e9
:10246c0000007800306188004f0478000080fa008a
:10247c00000006000600fa00008fbe00220798003c
:10248c002e0090000000e00005003a001e017800cc
:10249c009e019000d2838800e383880004003700fb
:1024ac001e0178009e01900092838800a38388000f
:1024bc000080fa00000006000000fa00b4878000db
:1024cc00c5878000f0848000018580000001be007b
:1024dc000400be00c6f80700708a8800818a880054
:1024ec0094888000a588800010858000218580005c
:1024fc000001be000400be00bdf80700f08b880090
:10250c00018c8800708a8000818a80000001be00e6
:10251c00e012210021050700708c8800818c880056
:10252c00f08b8000018c80000001be00e0152100c2
:10253c001a050700908c8800a18c88000080fa0096
:10254c00000006000000fa00889fbe00908c8000fe
:10255c00a18c800002002000b32924002ffa070070
:10256c00b0888800c1888800708c8000818c8000c5
:10257c0002002000c328240028fa0700d087880016
:10258c00e1878800d8878000e9878000b0888000c8
:10259c00c188800042b62300f3e523001ffa070030
:1025ac000200200003002400f1f807000001be0027
:1025bc000800be008ff80700d0838800e1838800f4
:1025cc00d0838000e183800004002000852c24004f
:1025dc0002002000832c2c00d8050700d083880033
:1025ec00e1838800d8878000e9878000b08880006c
:1025fc00c188800042b62300f3e5230007fa0700e8
:10260c000200200003002400d9f807000001be00de
:10261c000800be0076f8070090838800a18388002c
:10262c0090838000a183800004002000852c24006e
:10263c0002002000832c2c00c0050700908388002a
:10264c00a18388004f04be000080fa000000060041
:10265c006000fa00d0888000e18880000001be0094
:10266c008000eb000e00780079030700908c80004e
:10267c00a18c80000001be00410020000e007800fb
:10268c0073030700f08a8000018b80000001be00fc
:10269c00810020000e0078006d030700108c800074
:1026ac00218c80000001be00c10020000e007800cb
:1026bc0067030700108b8000218b80000001be0097
:1026cc00010120000e00780061030700308c8000af
:1026dc00418c80000001be00410120000e007800fa
:1026ec005b030700308b8000418b80000001be0033
:1026fc00810120000e00780055030700508c8000eb
:10270c00618c80000001be00c10120000e00780029
:10271c004f030700f0878000018880000001be0095
:10272c00010220000e00780049030700708c800025
:10273c00818c80000001be00410220000e00780058
:10274c004303070070898000818980000001be006e
:10275c00810220000e0078003d030700908a800063
:10276c00a18a80000001be00c10220000e0078008a
:10277c003703070090898000a18980000001be000a
:10278c00010320000e00780031030700b08a80009e
:10279c00c18a80000001be00410320000e007800b9
:1027ac002b030700b0898000c18980000001be00a6
:1027bc00810320000e00780025030700d08a8000da
:1027cc00e18a80000001be00c10320000e007800e9
:1027dc001f03070090888000a18880000001be00c4
:1027ec00010420000e00780019030700b087800058
:1027fc00c18780000001be00410420000e0078005b
:10280c0013030700508b8000618b80000001be0019
:10281c00810420000e0078000d030700708b8000ef
:10282c00818b80000001be00c10420000e007800e6
:10283c0007030700908b8000a18b80000001be0075
:10284c00010520000e00780001030700d0898000ec
:10285c00e18980000001be00410520000e007800d7
:10286c00fb020700f0898000018a80000001be0095
:10287c00810520000e007800f5020700108a800008
:10288c00218a80000001be00c10520000e007800e6
:10289c00ef0207000e017800010620002006200040
:1028ac0054fd07000080fa00000006000000fa004a
:1028bc00c301a8000080eb00e00e88000080eb0054
:1028cc00f00e8800c1e1a8000080fa0000000600ac
:1028dc000000fa00c305a8000080eb00e02e880081
:1028ec000080eb00f02e8800c1e5a8000080fa0003
:1028fc00000006000800fa00889fbe008a9fbe00f8
:10290c006081800071818000208188003181880085
:10291c0080818000918180004081880051818800f5
:10292c0030808000e10f50000a003a006000b800cf
:10293c00d0858800e18588006000b800f0858800ab
:10294c00018688006000b800108688002186880007
:10295c000630ef00300e80008000eb00008fbe00d0
:10296c00500e80008000eb00c000dd000000200055
:10297c001e0f40005e974800302e80008000eb0058
:10298c002007980031079800502e80008000eb0043
:10299c00c000dd00000020002e019000be01900060
:1029ac0002004000838048002007980031079800ff
:1029bc001e0078009e0090006ff80700b294200073
:1029cc009378230015f907006081880071818800d5
:1029dc002e009000be00900067f80700b294200013
:1029ec0093782b000df90700808188009181880075
:1029fc00648180007581800020818000318180009d
:102a0c000001be000400be0079f70700a081880019
:102a1c00b181880084818000958180004081800094
:102a2c00518180000001be000400be0070f7070059
:102a3c00c0818800d1818800a4818000b58180008c
:102a4c00c0818000d18180000001be000400be0066
:102a5c0067f7070042b62300f3e52300c4f707002d
:102a6c00e0818800f1818800a4818000b58180001c
:102a7c00c0818000d18180000001be000400be0036
:102a8c005cf707000200200003002400b8f70700e1
:102a9c000082880011828800f0848000018580000b
:102aac003085880041858800108580002185800054
:102abc005085880061858800a0818000b1818000ec
:102acc0002002000a3372400d4f80700b08488004b
:102adc00c1848800c0818000d18180000200200068
:102aec00a3372400cdf80700d0848800e184880047
:102afc00b4848000c5848000d0848000e184800090
:102b0c000001be000400be003af7070002002000de
:102b1c000300240096f70700f084880001858800e4
:102b2c00e0818000f181800002002000a3372400a6
:102b3c00baf807001085880021858800d0858000b0
:102b4c00e18580007085880081858800f085800093
:102b5c000186800090858800a18588001086800001
:102b6c0021868000b0858800c1858800d8858000ca
:102b7c00e9858000f084800001858000020020003f
:102b8c00a33724007af707000005be0010868000ea
:102b9c002186800074f707000001be000a00be0009
:102bac009ef807000001be000800be0011f70700e8
:102bbc00d0858800e1858800f88580000986800032
:102bcc00f08480000185800002002000a3372400df
:102bdc0067f707000005be00108680002186800084
:102bec002bf907000001be000a00be008bf807009d
:102bfc000001be000800be00fef60700f08588004c
:102c0c00018688001486800025868000e081800083
:102c1c00f18180000001be000400be00f5f6070043
:102c2c00108688002186880010868000218680000e
:102c3c0018c0b300b2fd20009304240090f70700e5
:102c4c000000e00001003c000044eb000804e00040
:102c5c00070032001086800021868000b2fd200023
:102c6c00930c2400e2f60700108688002186880069
:102c7c00108680002186800018c0b300b2fd2000b1
:102c8c0093042c007cf707000000e00001003500e5
:102c9c000044eb000804e0000700320010868000be
:102cac0021868000b2fd2000930c2400d1f6070091
:102cbc0010868800218688004f05be004f04be0098
:102ccc000080fa00000006001800fa0070828000f4
:102cdc00818280000001be008000eb000e007800b5
:102cec00f4010700d0858000e18580000001be0062
:102cfc00410020000e007800d5010700f08580000f
:102d0c00018680000001be00810020000e007800ca
:102d1c00cf01070010868000218680000001be00d4
:102d2c00c10020000e007800c9010700f08480006b
:102d3c00018580000001be00010120000e0078001a
:102d4c00c301070010858000218580000001be00b2
:102d5c00410120000e007800bd0107000e01780033
:102d6c00810120001006200022fc07000080fa00e0
:102d7c00000006000000fa0013e1a90011e1a9000f
:102d8c001061a8001021a90081088000f0fc2f0020
:102d9c0000806000800888000a21ef000621ef0007
:102dac00404c20007008880000402b006008880010
:102dbc002142800080ff2f00008060000000a000f6
:102dcc00204288000108a9002108a80011e1a800f0
:102ddc000080fa00000006000000fa0005e1a900de
:102dec000421a90000002000a137240005000700e1
:102dfc000068a9002068a80005e1a8000080fa007e
:102e0c00000006000400fa00881f7800008fbe0046
:102e1c001e0178009e0190000068290081c12400e9
:102e2c00d3f6070018c0b30002f02f00f37724008c
:102e3c0013f707000000e00001003c000044eb0029
:102e4c000804e0005400320021088000f0fc2f0040
:102e5c00008060000040a000200888001e0178005f
:102e6c009e0190000068290081c12400c0f6070073
:102e7c000200200003102400bdf6070018c0b300a8
:102e8c0002f02f00f3772400fdf607000000e000ad
:102e9c0001003c000044eb000804e000320032006a
:102eac0021088000f0fc2f00008060000050a00082
:102ebc00200888001e0178009e01900000682900ff
:102ecc0081c12400aaf60700020020000328240078
:102edc00a7f6070018c0b30002f02f00f377240008
:102eec00e7f607000000e00001003c000044eb00a6
:102efc000804e000100032002108800000032000cc
:102f0c0001007000200888001e0178009e019000ce
:102f1c000068290081c1240095f6070002002000fa
:102f2c000338240092f60700d7f60700000078005b
:102f3c0010088800200037001e0178009e019000c8
:102f4c000068290081c1240089f6070002002000d6
:102f5c000328240086f60700cbf607000000780053
:102f6c0010088800140037001e0178009e019000a4
:102f7c000068290081c124007df6070002002000b2
:102f8c00031024007af60700bff607000000780053
:102f9c0010088800080037001e0178009e01900080
:102fac000068290081c1240071f60700b6f60700fd
:102fbc0000007800100888004f0478000080fa00a8
:102fcc00000006000000fa001fe1a900000020002c
:102fdc00a1472400060007001e21a9000368a900d0
:102fec002368a8001fe1a8000080fa00000006007a
:102ffc000400fa00881f7800008fbe00f1088000e2
:10300c00f0fc2f0000806000f00888001e017800a2
:10301c009e0190000068290081c1240054f607002d
:10302c0018c0b30002f02f00f377240094f60700c9
:10303c000000e00001003c000044eb000804e0004c
:10304c0054003200f1088000f0fc2f00008060007a
:10305c000040a000f00888001e0178009e0190003e
:10306c000068290081c1240041f6070002002000fd
:10307c00031024003ef6070018c0b30002f02f0026
:10308c00f37724007ef607000000e00001003c000e
:10309c000044eb000804e00032003200f10880002c
:1030ac00f0fc2f00008060000050a000f0088800a9
:1030bc001e0178009e0190000068290081c1240047
:1030cc002bf60700020020000328240028f6070036
:1030dc0018c0b30002f02f00f377240068f6070045
:1030ec000000e00001003c000044eb000804e0009c
:1030fc0010003200f1088000000320000100700075
:10310c00f00888001e0178009e01900000682900dc
:10311c0081c1240016f607000200200003382400a9
:10312c0013f6070058f6070000007800d008880056
:10313c00200037001e0178009e01900000682900d5
:10314c0081c124000af60700020020000328240095
:10315c0007f607004cf6070000007800d00888003e
:10316c00140037001e0178009e01900000682900b1
:10317c0081c12400fef5070002002000031024008a
:10318c00fbf5070040f6070000007800d008880027
:10319c00080037001e0178009e019000006829008d
:1031ac0081c12400f2f5070037f607000000780013
:1031bc00d00888004f0478000080fa000000060058
:1031cc000400fa00881f7800008fbe0018c0b300fe
:1031dc006011b8001e0078009e00900028f60700d1
:1031ec000000e00001003d000044eb000804e0009a
:1031fc00030032001e0078009e0090000300370090
:10320c001e0078009e00900001f0a2004f04780090
:10321c000080fa00000006000800fa00881f780001
:10322c00008fbe00220798003307980018c0b30027
:10323c002e019000be0190001e0078009e009000b0
:10324c000ff607000000e00001003c000044eb001a
:10325c000804e000030032001e0078009e0090007d
:10326c00020037002e009000be0090004f04780042
:10327c000080fa00000006000800fa00881f7800a1
:10328c00008fbe00220798003307980018c0b300c7
:10329c002e019000be0190001e0078009e00900050
:1032ac00f5f507000000e000010035000044eb00dc
:1032bc000804e000030032001e0078009e0090001d
:1032cc00020037002e009000be0090004f047800e2
:1032dc000080fa00000006000c00fa00881f78003d
:1032ec00008fbe002207980033079800440798000f
:1032fc005507980018c0b3002e019000be01900035
:10330c001e0078009e009000dbf507000000e00036
:10331c00010035000044eb000804e000030032001b
:10332c002e009000be0090001000370018c0b300b3
:10333c004e019000de0190001e0078009e0090006f
:10334c00cff507000000e00001003c000044eb005a
:10335c000804e000030032004e009000de009000f4
:10336c00020037001e0078009e0090004f04780089
:10337c000080fa00000006000800fa002007980000
:10338c0031079800b2fd2000930424002e00900019
:10339c00be00900016f50700b2fd2000930c24002f
:1033ac00faf50700b2fd20009304240011f5070084
:1033bc00008fbe00b2fd2000930424001e00780094
:1033cc009e0090000bf50700b2fd2000930c24002a
:1033dc00eef50700b2fd20009304240004f507006d
:1033ec000080fa00000006000a00fa00300798007e
:1033fc0041079800be0090004e009000008f4000e6
:10340c001e007800100178009001900012079800bf
:10341c00230798001e009000ae0090000080fa0078
:10342c00000006000600fa0010079800210798001b
:10343c009e0090002e009000008f40001e0078002f
:10344c0090009000100078000080fa000000060048
:10345c000c00fa00200798003107980042079800ea
:10346c005307980068004700100798000000eb0015
:10347c00000f78000a0037003e0090001e0040004c
:10348c00ae009000008040009e0078001e0190006d
:10349c008100410091407800014878001e0fe8003f
:1034ac001e007800e30f5000f3ff34000080fa0098
:1034bc00000006000c00fa00200798003107980065
:1034cc0042079800530798006800470010079800bf
:1034dc000000eb00000f78000b0037003e0090005e
:1034ec001e004000ae009000008040003200200022
:1034fc009e0051001e019000810041009140780017
:10350c00014878001e0fe8001e007800e30f500001
:10351c00f2ff34000080fa00000006000c00fa00f4
:10352c00200798003107980042079800530798002d
:10353c0068004700100798000000eb00000f7800af
:10354c000a0037003e0090001e004000ae009000c4
:10355c00008040009e0078001e0190008100410018
:10356c0091407800014878001e0fe8001e0078009a
:10357c00e70f5000f3ff34000080fa000000060053
:10358c000000fa00881f780070848000818480001d
:10359c0018c0b30002002000831c240036f507007d
:1035ac000000e000010035000044eb000804e000de
:1035bc000e003200108480002184800018c0b300fb
:1035cc0002002000831c24002bf507000000e00003
:1035dc00010035000044eb000804e0000300320059
:1035ec005000200060838800c100370050848000a8
:1035fc006184800018c0b30002002000c3202400a6
:10360c001df507000000e000010035000044eb0050
:10361c000804e000030032005000200060838800a2
:10362c00b3003700708480008184800018c0b30020
:10363c0002002000c32024000ff507000000e0006a
:10364c00010035000044eb000804e00019003200d2
:10365c00508480006184800018c0b30002002000f8
:10366c00831c240006f507000000e00001003c006c
:10367c000044eb000804e0000e00320010848000cf
:10368c002184800018c0b30002002000c320240055
:10369c00fbf407000000e00001003c000044eb00dc
:1036ac000804e00003003200200020006083880042
:1036bc008f003700708480008184800018c0b300b4
:1036cc0002002000c3202400edf407000000e000fd
:1036dc0001003c000044eb000804e000190032003b
:1036ec00508480006184800018c0b3000200200068
:1036fc00831c2400e2f407000000e00001003c0001
:10370c000044eb000804e0000e003200108480003e
:10371c002184800018c0b30002002000c3202400c4
:10372c00d5f407000000e000010035000044eb0078
:10373c000804e00003003200400020006083880091
:10374c006b00370090848000a184800018c0b30007
:10375c000200200003122400c7f407000000e00060
:10376c00010035000044eb000804e0004100320089
:10377c00308480004184800018c0b3000200200017
:10378c0003122400bcf407000000e0000100350027
:10379c000044eb000804e000360032009484800002
:1037ac00a5848000308480004184800018c0b30060
:1037bc000001be000400be00aff407000000e000f2
:1037cc00010035000044eb000804e0000b003a0057
:1037dc00708480008184800018c0b3000200200037
:1037ec00030a2400a4f407000000e00001003500e7
:1037fc000044eb000804e0000300320060002000ed
:10380c00608388003a00370094848000a58480008f
:10381c00308480004184800018c0b3000001be00d9
:10382c000400be0096f407000000e00001003c001c
:10383c000044eb000804e0000b003a001084800008
:10384c002184800018c0b30002002000030a240069
:10385c0089f407000000e000010035000044eb0093
:10386c000804e00021003200700020006083880012
:10387c001f00370090848000a184800018c0b30022
:10388c0002002000031724007bf407000000e00076
:10389c00010035000044eb000804e0000300320096
:1038ac0010002000608388001100370030848000f5
:1038bc004184800018c0b3000200200003172400cc
:1038cc006df407000000e000010035000044eb003f
:1038dc000804e00003003200300020006083880000
:1038ec00030037006c30ef000100370000000000cf
:1038fc00608380004f0478000080fa00000006000e
:10390c000e00fa00000f78001207980023079800a9
:10391c0034079800450798005607980067079800e9
:10392c001e0078001e019000ae0190000288be00bf
:10393c001e0078003eb99700ceb99700620098003f
:10394c00730098001e0078003e019000ce0190009c
:10395c0022009800330098001e0078001eb99700d2
:10396c00aeb9970002089800130898001e00780062
:10397c005e019000ee019000420098005300980008
:10398c001e0078007eb197008eb99700220898002f
:10399c00330898000080fa00000006001200fa00bc
:1039ac00889fbe006007980072079800030f98006c
:1039bc006e0090007e0190008e099000021098001d
:1039cc00131098006e00900060019000f0019000c0
:1039dc006e009000f00090006000900001f0a200da
:1039ec000202be000001be007e0090008e08900016
:1039fc0039fe0700008fbe006e0090009000900012
:103a0c00100078001e0178009e01900003f507005d
:103a1c006e01900020119800311198006e009000fa
:103a2c00400c9000d00c900002002000a337240022
:103a3c007e0090008e089000cdf307000001be00c0
:103a4c000800be006bf307006e019000400998005f
:103a5c00510998006e009000000a9000900a9000a6
:103a6c006e009000b0009000200090000001be009d
:103a7c000400be00bef307000004be006e00900000
:103a8c0090089000000890000002be0005f0a20013
:103a9c006e009000b0009000200090000001be006d
:103aac000400be00b2f307006e019000420b9000c0
:103abc00d20b90000802be000001be000600be0042
:103acc0005fe07006e01900040099800510998000e
:103adc006e009000400a9000d00a90006e0090009a
:103aec00b0009000200090000001be000400be0059
:103afc00caf407006e019000401198005111980013
:103b0c006e009000f0089000600890000001be006c
:103b1c007e0090008e08900035f307000200200014
:103b2c00a3372400bdf40700200798003107980044
:103b3c006e009000200a9000b00a90006e00900079
:103b4c00d0009000400090000001be000400be00b8
:103b5c0087f307000004be006e009000b0089000d0
:103b6c00200890000002be0005f0a2006e0090003c
:103b7c00d0009000400090000001be000400be0088
:103b8c007bf307000802be000001be002e0090006f
:103b9c00be009000d0fd0700400798005107980028
:103bac006e0090007e0190008e09900062089800d3
:103bbc00730898006e009000d000900040009000b8
:103bcc004e019000de01900094f407006e0190000d
:103bdc0060119800711198006e00900020129000f6
:103bec00b01290006e009000d01090004010900029
:103bfc000001be000400be00fef207000002be0081
:103c0c006e009000f0109000601090000001be005b
:103c1c000400be00f7f207004f04be000080fa005b
:103c2c00000006000400fa00881f7800008fbe0018
:103c3c0018c0b3006011b8001e0078009e00900000
:103c4c008ff307000000e00001003d000044eb0092
:103c5c000804e000030032001e0078009e00900073
:103c6c00030037001e0078009e00900001f0a200b7
:103c7c004f0478000080fa00000006000800fa00eb
:103c8c00881f7800008fbe00220798003307980029
:103c9c0018c0b3002e019000be0190001e007800e9
:103cac009e00900076f307000000e00001003c004d
:103cbc000044eb000804e000030032001e00780012
:103ccc009e009000020037002e009000be00900075
:103cdc004f0478000080fa00000006000800fa008b
:103cec00881f7800008fbe002207980033079800c9
:103cfc0018c0b3002e019000be0190001e00780089
:103d0c009e0090005cf307000000e000010035000d
:103d1c000044eb000804e000030032001e007800b1
:103d2c009e009000020037002e009000be00900014
:103d3c004f0478000080fa00000006000c00fa0026
:103d4c00881f7800008fbe00220798003307980068
:103d5c00440798005507980018c0b3004e01900016
:103d6c00de0190001e0078009e00900044f30700d6
:103d7c000000e00001003c000044eb000804e000ff
:103d8c00040032004e019000de019000028fbe0054
:103d9c000e00370018c0b3002e019000be01900039
:103dac001e0078009e00900033f307000000e00036
:103dbc00010035000044eb000804e0000300320071
:103dcc002e019000be019000028fbe001e007800f4
:103ddc009e0090004f0478000080fa00000006005e
:103dec000400fa00008fbe00b2fd200093042400f2
:103dfc001e0078009e009000ddf2070002002000fb
:103e0c004333240005f407000080fa00000006008c
:103e1c000400fa00008fbe00b2fd200093042400c1
:103e2c001e0078009e009000fcf3070002002000aa
:103e3c0043332400cef207000080fa000000060095
:103e4c000600fa0010079800210798000040eb00cc
:103e5c00004f780054000700ae009000810f500016
:103e6c00110034000040eb00004f780006003700d2
:103e7c001e80fb009e0090000080400010407800e7
:103e8c000b0007001e4fe8009e80fb002e009000e8
:103e9c00808f5000f6ff3500300007000004e00072
:103eac0001003a00240007000080fa000000060020
:103ebc000200fa00004f7800c082800061192100d6
:103ecc00008040001e487800c1828000d00f200086
:103edc00808f5000020034005830ef000300370090
:103eec00c08280000000e800c08288000080fa00d8
:103efc00000006000200fa00d08280006119210047
:103f0c0000804000104f7800d1828000d00f20003c
:103f1c00808f5000020034005a30ef00030037004d
:103f2c00d08280000000e800d08288001e4078001b
:103f3c000080fa00000006000200fa0010c0b30076
:103f4c005cf0b700ebff0700004f78001e80fb0011
:103f5c00201188000080fa00000006000000fa0022
:103f6c005cd0bf000080fa00000006000000fa00e0
:103f7c00c1828000d0828000808f50000400350008
:103f8c00c1828000d0828000008050000400370085
:103f9c00c1828000d082800000805000f00fb00001
:103fac000080fa00000006000000fa00efff070096
:103fbc00f10f2000008050000080fa000000060085
:103fcc000000fa0021e3a9002143a8000119800098
:103fdc00f0cf2f0000806000001988002043a9005a
:103fec0001198000000e20000100700000198800eb
:103ffc0011198000f0ff210000806000101988006a
:10400c002343a80011198000f0cf2f00008060001e
:10401c00101988001119800030f82f000080600002
:10402c000040a000101988002203a9002223a90037
:10403c0025e3a900f0c0b30024e3b70021198000e8
:10404c00f00f2e008080600000f020000100700056
:10405c00201988003303a9004feea8002e0ea800eb
:10406c002f6ea8006f2ea8001e2ea80031e3a8000a
:10407c0030c3a8003163a8002e03a8003063a80049
:10408c004119800000fc2f0000806000401988005e
:10409c0028e3a90001a8a90021a8a80021e3a800f1
:1040ac000080fa00000006000000fa002023a8009f
:1040bc000080fa00000006000000fa0060392100c0
:1040cc000080fa00000006000000fa006bd0bf0070
:1040dc000080fa00000006000000fa006b70ef0090
:1040ec000080fa00000006000200fa00004f780081
:1040fc002c0007000000e0000d003400308380002d
:10410c0061292100008040001e4878003183800026
:10411c00e0072000808f5000020034006630ef0072
:10412c0003003700308380000000e80030838800f3
:10413c000080fa00000006000200fa0040838000b4
:10414c006129210000804000104f780041838000dd
:10415c00e0072000808f5000020034006830ef0030
:10416c0003003700408380000000e8004083880093
:10417c001e4078000080fa00000006000000fa00e3
:10418c003183800040838000808f50000200320019
:10419c0010c0b300010037000040eb000080fa00b3
:1041ac00000006000000fa0031838000408380008c
:1041bc00808f5000050034004183800030838000e4
:1041cc00008050000008b0000400370031838000ec
:1041dc0040838000008050000008b0000080fa008e
:1041ec00000006000000fa00eeff070001082000a6
:0c41fc00008050000080fa000000060067
:020000040000fa
:10420800441000000a000000800000005e1000005a
:1042180004000000820000000f0001000000000000
:104228004e1000000a00000080000000701000001e
:104238002601000080000000621000000400000059
:10424800820000000000700041000000961300008a
:104258000a000000800000006a1000000200000050
:10426800800000006c1000000200000080000000c8
:1042780096110000000100008000000058100000a6
:104288000600000080000000961200008000000078
:10429800800000006610000004000000800000009c
:1042a80016130000800000008000000000100000cd
:1042b80024000000800000002410000020000000fe
:1042c800800000006e100000020000008000000066
:0442d80000000000e2
:020000040000fa
:1042dc000000fa000e2eef001e2eef002e2eef0027
:1042ec003e2eef004e2eef005e2eef006e2eef00f6
:1042fc00214ea90060cea90060eea90011cea90044
:10430c0011eea90020cea90020eea900002ea800d5
:10431c002136800000f82f00008060008001b3007f
:10432c00203688001134800000fc2f0000806000d3
:10433c000000a000103488000136800000f82f0027
:10434c00808060001006200001007000003688009c
:10435c0001368000f00f28008080600000002600ed
:10436c000100700000368800e135800000f82f0055
:10437c00808060006004200001007000e03588003f
:10438c00e1358000f00f2800808060000050240090
:10439c0001007000e03588000080fa000000060083
:1043ac000000fa002002a9000111800090ff2f00ec
:1043bc00008060000011880020a2a9002062a800e3
:1043cc00500520004011880023a2a90023e2a90077
:1043dc000188a9002188a80011118000f0f32f009a
:1043ec0000806000101188000168a9002168a800f5
:1043fc0021e2a8002342a8000080fa000000060079
:10440c000600fa0010079800210798000040eb0006
:10441c00004f78000040eb00004f78000e00370092
:10442c0000000000111180000020200000806000be
:10443c000000e000fbff3a001e00900010407800e6
:10444c000080fb00201188001e0090000000e80096
:10445c00100798001e4fe8009e80fb002e00900075
:10446c00808f5000eeff35000080fa00000006003f
:10447c000000fa00f0032000303a8800213a800056
:10448c00f0f32f0000806000203a8800213a800071
:10449c0000fe2f00008060000000a000203a880081
:1044ac001200200080072000a10920003374200096
:1044bc00804978008149780082497800103a800060
:1044cc00000178000200a0006004200071052000ab
:1044dc002374200080497800814978008249780053
:1044ec0000000000113a800000002700808060006e
:1044fc0000002100808f5000faff3a0000000000fd
:10450c00113a800000022000008060000000e000f2
:0c451c00fbff32000080fa0000000600e7
:020000040000fa
:02000004000af0
:04afe000cfff00009f
:020000040000fa
:02000004000af0
:04afe400ffff00006b
:020000040000fa
:02000004000af0
:04afe8007fff0000e7
:020000040000fa
:02000004000af0
:04afec005fff000003
:020000040000fa
:02000004000af0
:04aff00038ff000026
:020000040000fa
:02000004000af0
:04aff400ffff00005b
:00000001FF
