:020000040000fa
:080000000002040000000000f2
:020000040000fa
:04000800f6030000fb
:020000040000fa
:04000c00f6030000f7
:020000040000fa
:04001000f6030000f3
:020000040000fa
:04001400f6030000ef
:020000040000fa
:04001800f6030000eb
:020000040000fa
:04001c00f6030000e7
:020000040000fa
:04002000f6030000e3
:020000040000fa
:04002400f6030000df
:020000040000fa
:04002800f6030000db
:020000040000fa
:04002c00f6030000d7
:020000040000fa
:04003000f6030000d3
:020000040000fa
:0400340002030000c3
:020000040000fa
:04003800f6030000cb
:020000040000fa
:04003c00f6030000c7
:020000040000fa
:04004000f6030000c3
:020000040000fa
:04004400f6030000bf
:020000040000fa
:04004800fa020000b8
:020000040000fa
:04004c00f6030000b7
:020000040000fa
:04005000f6030000b3
:020000040000fa
:04005400b2030000f3
:020000040000fa
:040058008803000019
:020000040000fa
:04005c006403000039
:020000040000fa
:04006000f6030000a3
:020000040000fa
:04006400f60300009f
:020000040000fa
:04006800f60300009b
:020000040000fa
:04006c00f603000097
:020000040000fa
:04007000f603000093
:020000040000fa
:04007400f60300008f
:020000040000fa
:04007800f60300008b
:020000040000fa
:04007c00f603000087
:020000040000fa
:04008000f603000083
:020000040000fa
:04008400f60300007f
:020000040000fa
:04008800f60300007b
:020000040000fa
:04008c00f603000077
:020000040000fa
:04009000f603000073
:020000040000fa
:040094004c03000019
:020000040000fa
:04009800f60300006b
:020000040000fa
:04009c00f603000067
:020000040000fa
:0400a000f603000063
:020000040000fa
:0400a400f60300005f
:020000040000fa
:0400a800f60300005b
:020000040000fa
:0400ac00f603000057
:020000040000fa
:0400b000f603000053
:020000040000fa
:0400b400f60300004f
:020000040000fa
:0400b800f60300004b
:020000040000fa
:0400bc00f603000047
:020000040000fa
:0400c000f603000043
:020000040000fa
:0400c400f60300003f
:020000040000fa
:0400c800f60300003b
:020000040000fa
:0400cc00f603000037
:020000040000fa
:0400d000f603000033
:020000040000fa
:0400d400f60300002f
:020000040000fa
:0400d800f60300002b
:020000040000fa
:0400dc00f603000027
:020000040000fa
:0400e000f603000023
:020000040000fa
:0400e400f60300001f
:020000040000fa
:0400e800f60300001b
:020000040000fa
:0400ec00f603000017
:020000040000fa
:0400f000f603000013
:020000040000fa
:0400f400f60300000f
:020000040000fa
:0400f800f60300000b
:020000040000fa
:0400fc00f603000007
:020000040000fa
:04010000f603000002
:020000040000fa
:04010400f6030000fe
:020000040000fa
:04010800f6030000fa
:020000040000fa
:04010c00f6030000f6
:020000040000fa
:04011000f6030000f2
:020000040000fa
:04011400f6030000ee
:020000040000fa
:04011800f6030000ea
:020000040000fa
:04011c00f6030000e6
:020000040000fa
:04012000f6030000e2
:020000040000fa
:04012400f6030000de
:020000040000fa
:04012800f6030000da
:020000040000fa
:04012c00f6030000d6
:020000040000fa
:04013000f6030000d2
:020000040000fa
:04013400f6030000ce
:020000040000fa
:04013800f6030000ca
:020000040000fa
:04013c00f6030000c6
:020000040000fa
:04014000f6030000c2
:020000040000fa
:04014400f6030000be
:020000040000fa
:04014800f6030000ba
:020000040000fa
:04014c00f6030000b6
:020000040000fa
:04015000f6030000b2
:020000040000fa
:04015400f6030000ae
:020000040000fa
:04015800f6030000aa
:020000040000fa
:04015c00f6030000a6
:020000040000fa
:04016000f6030000a2
:020000040000fa
:04016400f60300009e
:020000040000fa
:04016800f60300009a
:020000040000fa
:04016c00f603000096
:020000040000fa
:04017000f603000092
:020000040000fa
:04017400f60300008e
:020000040000fa
:04017800f60300008a
:020000040000fa
:04017c00f603000086
:020000040000fa
:04018000f603000082
:020000040000fa
:04018400f60300007e
:020000040000fa
:04018800f60300007a
:020000040000fa
:04018c00f603000076
:020000040000fa
:04019000f603000072
:020000040000fa
:04019400f60300006e
:020000040000fa
:04019800f60300006a
:020000040000fa
:04019c00f603000066
:020000040000fa
:0401a000f603000062
:020000040000fa
:0401a400f60300005e
:020000040000fa
:0401a800f60300005a
:020000040000fa
:0401ac00f603000056
:020000040000fa
:0401b000f603000052
:020000040000fa
:0401b400f60300004e
:020000040000fa
:0401b800f60300004a
:020000040000fa
:0401bc00f603000046
:020000040000fa
:0401c000f603000042
:020000040000fa
:0401c400f60300003e
:020000040000fa
:0401c800f60300003a
:020000040000fa
:0401cc00f603000036
:020000040000fa
:0401d000f603000032
:020000040000fa
:0401d400f60300002e
:020000040000fa
:0401d800f60300002a
:020000040000fa
:0401dc00f603000026
:020000040000fa
:0401e000f603000022
:020000040000fa
:0401e400f60300001e
:020000040000fa
:0401e800f60300001a
:020000040000fa
:0401ec00f603000016
:020000040000fa
:0401f000f603000012
:020000040000fa
:0401f400f60300000e
:020000040000fa
:0401f800f60300000a
:020000040000fa
:0401fc00f603000006
:020000040000fa
:04020000f603000001
:020000040000fa
:04020400f6030000fd
:020000040000fa
:04020800f6030000f9
:020000040000fa
:04020c00f6030000f5
:020000040000fa
:04021000f6030000f1
:020000040000fa
:04021400f6030000ed
:020000040000fa
:04021800f6030000e9
:020000040000fa
:04021c00f6030000e5
:020000040000fa
:04022000f6030000e1
:020000040000fa
:04022400f6030000dd
:020000040000fa
:04022800f6030000d9
:020000040000fa
:04022c00f6030000d5
:020000040000fa
:04023000f6030000d1
:020000040000fa
:04023400f6030000cd
:020000040000fa
:04023800f6030000c9
:020000040000fa
:04023c00f6030000c5
:020000040000fa
:04024000f6030000c1
:020000040000fa
:04024400f6030000bd
:020000040000fa
:04024800f6030000b9
:020000040000fa
:04024c00f6030000b5
:020000040000fa
:04025000f6030000b1
:020000040000fa
:04025400f6030000ad
:020000040000fa
:04025800f6030000a9
:020000040000fa
:04025c00f6030000a5
:020000040000fa
:04026000f6030000a1
:020000040000fa
:04026400f60300009d
:020000040000fa
:04026800f603000099
:020000040000fa
:04026c00f603000095
:020000040000fa
:04027000f603000091
:020000040000fa
:04027400f60300008d
:020000040000fa
:04027800f603000089
:020000040000fa
:04027c00f603000085
:020000040000fa
:04028000f603000081
:020000040000fa
:100400006f3821000eff2c000e0188000000000054
:10041000000020000000e000020032000001200087
:100420002002880014000700f20007000000e0002e
:1004300003003a00a026220001002000020037003d
:100440000000200001002000810f70000100320038
:100450000f000700000020000000e0000200320052
:10046000000002000000000004090200000000007b
:100470000040da000000fe00200020000000e00044
:1004800002003200100020009001880000000600e9
:10049000a1028800800478000000eb001f003700f4
:1004a000e284440054a0b4009905ba00e2844400f8
:1004b00054a0b4009906ba00e284440054a0b400e9
:1004c0000006eb00476fde00fd07b200ae018800ba
:1004d000636ce10003003a000ad801000000eb0061
:1004e0000e003700606ce10008003a00004deb00a0
:1004f0000a05e800020039003420ec000af0a000f0
:100500008b05e900f9ff3e00040037006168e10057
:10051000010032000086eb000b00070019c7ba008b
:100520000e04e0001905ba0003003a000a00e000da
:10053000dbff3a0000000600fe07b200ae028800b2
:100540008a047800f5ff37000cd0a300e20f4d00bd
:100550001c00390089027800354dba000a05e80010
:10056000020039003420ec000af0a0008b05e900fd
:100570000f003200254dba000a05e80002003900dc
:100580003420ec000af0a0008b05e90008003200de
:100590000c00e0000600320015cdba000a05e800a4
:1005a000020039003420ec000af0a0008b05e900bd
:1005b0008984e80054a0b4000b00e000e2ff3a0098
:1005c000000006009902ba00055d78008b05e9007d
:1005d000f7ff3200c82ade00055d78008b05e900d0
:1005e000f3ff32000c00e000f1ff320019ddba0029
:1005f000eeff37000000fa000108a9000080fa00b1
:10060000004006003600f800809fbe00829fbe00ba
:10061000849fbe00869fbe000200fa000068a90009
:10062000570f07005309070097060700e405070066
:1006300070818000000f7800a10020001e0078006b
:1006400081017800110009000300d80001f0a70023
:100650008100ea008100e900cf08de0081407800d7
:100660001e0178000200e800708188000104e000ab
:1006700002003200f4060700330a07000080fa0087
:100680004f03be004f02be004f01be004f00be0030
:100690003600f90000400600809fbe000000fa000e
:1006a0000368a900508180006181800061004000e2
:1006b000e080480050818800618188000080fa0055
:1006c0004f00be0000400600801f78000000fa00c6
:1006d00001a8a90000188000e09b88001018800085
:1006e000f09b880020188000009c88003018800053
:1006f000109c880040188000209c880010c0b30027
:1007000051f0b7000080fa004f007800004006006a
:100710003600f800809fbe00829fbe00849fbe000e
:10072000869fbe000000fa000188a90001828000b7
:10073000f0818000808f500002003200b40e07006c
:10074000010037004270ef000080fa004f03be0046
:100750004f02be004f01be004f00be003600f90040
:10076000004006003600f800809fbe00829fbe0059
:10077000849fbe00869fbe000000fa000168a900a9
:1007800010118000640060000000e00001003200f1
:100790002242a90010118000620060000000e00009
:1007a000060032002222a900050037003011800027
:1007b00000407800020f0700010037000000000031
:1007c00010118000610060000000e000f7ff3a00b7
:1007d0000080fa004f03be004f02be004f01be0072
:1007e0004f00be003600f900004006000040da006d
:1007f0000000fe000000050003f0a200889fbe007c
:100800008a9fbe008c1f78006e01070075013300bf
:100810006450e1004f0032006420e10052003200d9
:1008200003826c0007003b000905d0000306d000de
:10083000820f54000c065d000200390002003200f5
:1008400089017800030678008582550004003d0088
:100850000003fd008103fd008502ea008b85420054
:10086000840f720002003b0060001000e08018005e
:100870006011b8000005eb007a28e1000a00390099
:1008800006007800c75ddd00f707b20087807500bd
:100890002d003700828171000a0178006105600037
:1008a0008180d1000080d3008502e900f9ff3b0080
:1008b000060440008784480002003b0060041400e6
:1008c000e0841c000988a300070032008a817100bf
:1008d00082817100610164008904d1000884d30021
:1008e0008b05e800170037000978a30013003a00d1
:1008f0000b00e000130034008b05e90008044400fd
:1009000089844c000a4474000978a3000d003a0061
:100910000b00e000070034008b05e90008044400e8
:1009200089844c0001003a000b0020000978a300e4
:10093000f7ff32000001eb000200370082817100f6
:100940000a017800e40007000cf0a70001f0a00005
:100950002d0137006420e10002003a00838f6c0013
:100960002d0133000801be000200be002601370041
:100970000081eb005f013700889fbe008a9fbe00a8
:100980008c1f78000f0107001601330003866c00ee
:100990006450e1002e0032006420e1003300320098
:1009a0006150e1002f0032006120e100310032008f
:1009b00085855500eb07b0000900200008042000e1
:1009c000050037000804440089844c000a00310007
:1009d0000603430087834b000001530081815b00c5
:1009e000f8ff33000203be000800a0000804440022
:1009f00089844c00f6ff3900c639dd00830173009d
:100a000001003200130020008904d1000884d300c3
:100a10000998a300050032000800a7000300a00009
:100a20008904d1000884d3008b05e8008904d10033
:100a30000884d3000001eb000281d200a600070069
:100a400001f0a1000cf0a70001f0a000ee003700bb
:100a50006420e100f00032000801be000200be0088
:100a6000f7ff37006120e100eb0032006000b800c2
:100a7000f3ff37000000200001f82700f0ff3700e7
:100a80001400200086013700f4ff2f008401370096
:100a90000001be00b60007000470a70003f0a1002b
:100aa0006509b100160032000d0035006828e1002c
:100ab00006003500f0ff2f00f1ff27000300e000e3
:100ac00013003b000100280000000500000040006a
:100ad000818048008502e900fcff3a0008003700e9
:100ae000f88f420002003c008000eb00000005008f
:100af0008100d1000080d3008502e800fcff3a00ad
:100b00000300e00002003b0060001000e0801800dd
:100b1000000006000001be00950007000470a70059
:100b200003f0a10003f8a30013003a006509b10027
:100b300010003200090035006928e100020035008c
:100b400001002800000005000000400081804800ee
:100b50008502e900fcff3a0000000600f88f420021
:100b6000050035008100d1000080d3008502e80037
:100b7000fcff3a00000006008000eb0000000500ca
:100b80004f89de0082017800600137006011b800f3
:100b90006e0137000400200000003700889fbe006f
:100ba0008a9fbe008c1f78004f26dd00850007005d
:100bb0008c0033006120e100430032006250e1000c
:100bc00041003e003e0039006420e1003c0032005c
:100bd000058255000f003b000402e80038003a008f
:100be000800f5300818f5b00350034000800be0089
:100bf00003f0a10001f0a60003f0a0000cf0a70094
:100c0000fefe0700800037000603430087834b0089
:100c10000c4646000005530081855b00020033004e
:100c20000a03be000c00a0000402e900f6ff3b002e
:100c3000850578000602430087824b0004003a00d5
:100c40006000b80009f0a70001f0a0006e003700b6
:100c50000002520081825a000704e00004003300c1
:100c60000603430087834b008b05e900faff37003a
:100c7000090578000604be000203be006011b8003a
:100c800015000700e00f5200e08f5a000700350002
:100c900002003c000c08a300040032000601be0064
:100ca00003f0a0000cf0a700d4fe07000a8568003e
:100cb00001f0a1000af0a70001f0a00052003700e7
:100cc0000800be0050003700100220000cf0a60003
:100cd000a08288005000370081002000618055000c
:100ce0000b003d000b00200061fe2f000100e10021
:100cf0001d00340082817100610164008904d1000b
:100d00000884d3000000e800faff3a0071002000d8
:100d100061006400030070000200600009003200fe
:100d200061044400e0844c000988a50005003200fd
:100d30008b05e8006808e10002003a008904d10050
:100d40000884d300f20f20000258e10005003d00a6
:100d5000c75ddd00f907b2008980750008007800e2
:100d6000000006000bf827008b007800000005004b
:100d7000c70ade00f107b200f50fb200080032002a
:100d8000e1cf4200020032000170a0002400050003
:100d9000810f7000010032000408050044000500c6
:100da000810f700002003a00140005008502e9007e
:100db0000000400081c04800fcff3b000170a00023
:100dc000240005000004be00e9ff07000003be0088
:100dd0000405be000200be00e5ff0700844f750059
:100de000000006000200be006450e100050036006d
:100df0006420e100020036000968a30001003a0007
:100e00000800be000160a0004f0678004f05be003c
:100e10004f04be0000000600f0ff2f00f1ff270086
:100e2000f9ff3700889fbe008a9fbe008c1f7800a4
:100e3000e4ff0700ebff330003866c006450e10021
:100e4000240032006420e100270032006150e100fc
:100e5000220032006120e100210032008b85420037
:100e6000eb07b1000134b800003ab80008044200b2
:100e700089844a00013ab8000030b80088804000f8
:100e800009014a000400330000004000818048004e
:100e9000020149008b05e900c909dd0083017000ea
:100ea0000100320013002000c814de004814dd00e9
:100eb0004709de001200b200c808de000884700096
:100ec00085ff070001f0a1000cf0a70001f0a000d1
:100ed000cdff37006120e100cfff32000801be00e6
:100ee0000200be00f7ff37006150e100fcff3a004e
:100ef000c9ff3700889fbe008a9fbe008c9fbe003e
:100f0000820578000004be0099ff07000800be00bb
:100f10006420e1000700390002003a00f1ff2700d9
:100f2000f0ff2f000160a00012022000a2828800c2
:100f3000550037006120e10003003a000b00a700d4
:100f400001f823005000370001f0a1000200210049
:100f500093642400cafe07000800be0004003500a8
:100f6000b2fd2000930c24000aff07000004be001d
:100f70000005eb000b00a6004f0dde0001f0a10004
:100f80000004be0032982f0023ea2300a5ff0700cb
:100f90000001eb0003f023000b00a70003f823007f
:100fa00016fe0700bafe07000000a7000a00a20014
:100fb000f3fe07000b00e0000300320002002000f7
:100fc00003f023000cfe070001f0a2000006be00a3
:100fd000020020009304240092ff07000801be00d5
:100fe00006fe0700809fbe000c00be0022a22a0061
:100ff000d3a723008bff07004f01be00fffd0700b2
:101000000004be0001f0a1000200200003982300ac
:101010009bfe07000800be00190035000001be005d
:1010200080ff07000006be00b2c52900e36223006e
:101030007cff070022222b00f3942b00effd07001a
:101040000c01be0077ff0700e273280083c0230075
:10105000eafd07000c01be0072ff070042aa2a0049
:10106000a3e22b00e5fd07000c01be006dff0700a9
:101070000801be006bff07000801be00dffd07008e
:101080000a00a70001f0a2004f06be004f05be00f7
:101090004f04be00000006000001eb0095ff370082
:1010a000889fbe008a9fbe00841f780045ff07000e
:1010b0004f00780011003300f0ff2f00838f6c0089
:1010c00006003b00040565000a00a7000800370081
:1010d00009f0a6001000200008003700820f54001d
:1010e000838f5c00030039001000200001003e00e7
:1010f0000000200009f0a7000000ea004f05be0034
:101100004f04be000000e00000000600881f7800c9
:10111000030478000300e00007003d0060001000b9
:10112000e080180060011900e081190002003b0016
:1011300001f02d00030037000400070008f0a700ad
:1011400001f0a0004f04780000000600889fbe0058
:101150008a9fbe0000827000040271000482710048
:10116000260032000004be000200be006011b8007c
:101170006b092000950220000182cf000a0039008f
:101180000541b1000082cf00070039000541b100e0
:101190000982cf00040039000541b1000882cf0068
:1011a000010039000541b100054252001200320031
:1011b0000a003b0082817100610164008100d1005e
:1011c0000080d3008984d3000884d3008b05e80015
:1011d0000442e800f7ff3a00070037000804440023
:1011e00089844c0000004800818048008b05e9009c
:1011f0000442e900f9ff3a00b7fe07004f05be00c0
:081200004f04be0000000600cf
:020000040000fa
:101208000600fa004e0d0700e50c0700ce020700a5
:101218001f0c07008e070700740707000708070060
:10122800130d07003f060700470607006000b800d7
:10123800c0878800d18788006000b800e0868800f1
:10124800f1868800540c0700e14f500083003a00f3
:10125800550c07004c0c0700000f78001e007800a2
:10126800100078008000eb0046fe070032332300b0
:1012780033052400e9fe070002002000035824007b
:10128800bbfd0700d2cc2c00c3042400e3fe0700fa
:1012980010079800210798001e019000ae019000e9
:1012a8000000200081202400b1fd0700020020007a
:1012b800030a24004efd07006083880071838800bc
:1012c8001e80e800100078008000eb002dfe07006b
:1012d8003233230033052400d0fe0700020020002b
:1012e80003582400a2fd0700d2cc2c00c30424001c
:1012f800cafe070010079800210798001e019000f9
:10130800ae019000000020008120240098fd070015
:1013180002002000030a240035fd070040838800ee
:10132800518388009e007800648040001000780097
:101338008000eb0013fe070032332300330524003e
:10134800b6fe0700020020000358240088fd0700ad
:10135800d2cc2c00c3042400b0fe0700100798006c
:10136800210798001e019000ae01900000002000a7
:10137800812024007efd070002002000030a2400cb
:101388001bfd070080838800918388009e007800f9
:1013980068804000100078008000eb00f9fd07002d
:1013a80032332300330524009cfe0700020020008e
:1013b800035824006efd0700d2cc2c00c30424007f
:1013c80096fe070010079800210798001e0190005c
:1013d800ae019000000020008120240064fd070079
:1013e80002002000030a240001fd0700a0838800f2
:1013f800b18388009e007800668040001000780065
:101408008000eb00dffd07003233230033052400a2
:1014180082fe0700020020000358240054fd070044
:10142800d2cc2c00c30424007cfe070010079800cf
:10143800210798001e019000ae01900000002000d6
:10144800812024004afd070002002000030a24002e
:10145800e7fc0700c0838800d18388002430ef00b0
:1014680007003700e80b070026f0b70026d0bf00ba
:1014780091040700208180000000e8002081880096
:101488000c0c07008000780020818000808f5000bd
:10149800f4ff3e006bff37000200fa00004f7800af
:1014a8001e41780071022100824878000080fa000d
:1014b800000006000200fa00004f78001e40780085
:1014c8000004e00006003a004670ef00c0c0b30018
:1014d80027f0b700f00020002082880006003700bf
:1014e8001e407800e14f500003003a0010c0b300de
:1014f80046f0b7002770ef000080fa0000000600f1
:101508000000fa0000818000e10f500006003a0058
:10151800f00020002082880064cea90064eea900b3
:10152800254ea8001100370000818000e20f50000e
:1015380006003a00400120002082880064cea800fe
:1015480064eea900254ea90008003700008180003c
:10155800e30f500005003a00e001200020828800d7
:1015680064cea90064eea800254ea90027d0bf00cc
:101578000080fb00cf80de00720120000300200005
:10158800820f5000838f5800ba003e000006010009
:1015980017003700200037003200370041003700bd
:1015a8006900370072003700730037007c0037008d
:1015b8007d00370087003700880037009200370029
:1015c8001f003700ae0037003800370042003700f0
:1015d800430037004d0037004e00370058003700f1
:1015e8008b00370095003700960037009f003700c2
:1015f8002a30ef002c30ef000001eb006000b8004b
:101608008e020700120020006000b8008b0207005d
:1016180010c0b30027f0b7005281800063818000ba
:10162800803e200001002000800f5100818f59006a
:101638009500360020c0b30027f0b70093003700ac
:101648000001eb006000b8007c02070012002000d7
:101658006000b80079020700d0c0b30027f0b700d7
:101668008a003700108180000000e800108188009f
:10167800208280008000eb0042fd07000001eb00a3
:101688006e020700208280008000eb003dfd07000d
:10169800120020006902070030c0b30027f0b7002d
:1016a8007a0037007b000700780037000001eb0064
:1016b8000000200001172c00600207001200200023
:1016c8000000200001172c005c020700f0c0b300e6
:1016d80027f0b7006d0037006e0007006b00370079
:1016e8000001eb000000200001172400530207004e
:1016f8001200200000002000011024004f02070003
:1017080010c1b30027f0b700600037006100070080
:101718005e0037000001eb000000200001102400eb
:1017280046020700120020000000200001172400d4
:101738004202070030c1b30027f0b700530037005a
:1017480054000700510037000001eb0000002000a2
:101758000117240039020700120020006000b800b9
:101768003602070050c0b30027f0b7004700370023
:1017780048000700450037000001eb006000b80092
:101788002e0207001200200000002000011724008c
:101798002a02070070c0b30027f0b7003b003700eb
:1017a8003c000700390037000001eb000000200072
:1017b800011224002102070012002000000020006e
:1017c80001122c001d02070090c0b30027f0b700db
:1017d8002e0037002f0007002c0037000001eb0017
:1017e8000000200001122c00140207001200200043
:1017f800000020000112240010020700b0c0b3004e
:1018080027f0b70021003700220007001f0037002b
:101818000001eb000000200001102400070207006f
:10182800120020006000b80004020700120107003f
:1018380050c1b30027f0b7001400370015000700a7
:10184800120037000001eb006000b800fb01070040
:10185800120020000000200001102400f7010700fa
:1018680070c1b30027f0b70008003700090007006f
:10187800060037002770ef00000000000300370063
:101888000000000001003700000000000080fa009e
:10189800000006000200fa00881f780046d0bf004a
:1018a800e14f5000f1003a000040eb00004f780093
:1018b800c0838000d183800018c0b30002002000dc
:1018c800031a24006cfc07000000e000010035004a
:1018d8000044eb000804e0002c003a00a0838000dc
:1018e800b183800018c0b30002002000031f240049
:1018f80061fc07000000e000010035000044eb0037
:101908000804e00021003a00808380009183800071
:1019180018c0b30002002000c320240056fc0700b2
:101928000000e000010035000044eb000804e0007e
:1019380016003a00408380005183800018c0b3002d
:1019480002002000031f24004bfc07000000e000f9
:10195800010035000044eb000804e0000b003a00e9
:10196800608380007183800018c0b30002002000eb
:10197800031a240040fc07000000e00001003500c5
:101988000044eb000804e0000500320010002000cd
:101998000081880098070700004f7800730037001f
:1019a800c0838000d183800018c0b30002002000eb
:1019b8000322240030fc07000000e000010035008d
:1019c8000044eb000804e0002c003a00a0838000eb
:1019d800b183800018c0b3000200200083242400d3
:1019e80025fc07000000e000010035000044eb0082
:1019f8000804e00021003a00808380009183800081
:101a080018c0b30002002000032724001afc0700b6
:101a18000000e000010035000044eb000804e0008d
:101a280016003a00408380005183800018c0b3003c
:101a380002002000832424000ffc07000000e000bf
:101a4800010035000044eb000804e0000b003a00f8
:101a5800608380007183800018c0b30002002000fa
:101a68000322240004fc07000000e0000100350008
:101a78000044eb000804e0000300320020002000ce
:101a88000081880039003700c0838000d18380003e
:101a980018c0b3000200200003222400f8fb07004e
:101aa8000000e00001003d000044eb000804e000f5
:101ab8002c003a00a0838000b183800018c0b300d6
:101ac8000200200083242400edfb07000000e00052
:101ad80001003d000044eb000804e00021003a004a
:101ae800808380009183800018c0b300020020002a
:101af80003272400e2fb07000000e00001003d008e
:101b08000044eb000804e00016003a00408380001f
:101b18005183800018c0b3000200200083242400f1
:101b2800d7fb07000000e00001003d000044eb0087
:101b38000804e0000b003a00608380007183800095
:101b480018c0b3000200200003222400ccfb0700c9
:101b58000000e00001003d000044eb000804e00044
:101b68000200320030002000008188001e4078000a
:101b78000004e00003003a0020c0b30028f0b700da
:101b8800300037001e407800e34f500003003a0051
:101b980000c1b30028f0b7002a0037001e407800c3
:101ba800e14f500003003a0020c1b30028f0b7000d
:101bb800240037001e407800e44f500003003a002c
:101bc80040c0b30028f0b7001e0037001e40780060
:101bd800e24f500003003a0060c0b30028f0b7009d
:101be800180037001e407800e54f50000a003a0000
:101bf80010818000610060000000e00003003a00ee
:101c080080c0b30028f0b7000e003700a0c0b300b2
:101c180028f0b7000b0037001e407800e64f500050
:101c280003003a0040c1b30028f0b70005003700b0
:101c38001e407800e74f500002003a0060c1b30030
:101c480028f0b70028d0bf008080fb0027d0bf0055
:101c58000080fb000000e900808f50000300320084
:101c680028d0bf0027f0b700030007004f04780012
:101c78000080fa00000006000600fa007502210044
:101c88009542780050818000618180004808de001c
:101c98000042780050818000618180004008de00a9
:101ca8008041780050818000618180004809dd0012
:101cb8004800de0000007100c808de00004178001e
:101cc800508180006181800000407800054f7800d5
:101cd80014479800234798003247980040479800d7
:101ce8000e017800510020000005200019020700ad
:101cf8000080fa00000006000800fa00008fbe000d
:101d080022079800330798000200200003122400dd
:101d18001e0078009e00900015fb0700e0868800f2
:101d2800f186880002002000031224002e00900093
:101d3800be0090000efb0700c0878800d18788008e
:101d48000080fa00000006000000fa001160800020
:101d580080ff2f00008060001060880000fa2000db
:101d68002060880023aca800238ca80011618000a3
:101d7800f03f2f000080600000a0a00010618800e4
:101d88003000200020618800c3aca800c38ca800e4
:101d980011668000f03f2f000080600000a0a000c6
:101da80010668800300020002066880001eca8003a
:101db8000080fa00000006000000fa00889fbe00bc
:101dc8002483800035838000008380001183800095
:101dd80018c0b3000001be000400be0026fb0700c7
:101de8000000e000010035000044eb000804e000ba
:101df8000d0032000883800019838000248380004e
:101e08003583800040828000518280000001be003e
:101e18000400be0077fa07000801be006308070047
:101e280020838800318388002483800035838000e4
:101e3800008380001183800018c0b3000001be0039
:101e48000400be000efb07000000e00001003c009b
:101e58000044eb000804e0000d0032000883800015
:101e680019838000248380003583800040828000ad
:101e7800518280000001be000400be005cfa070029
:101e88000801be00310807002083880031838800dc
:101e9800208380003183800018c0b3006011b8002f
:101ea800f7fa07000000e00001003c000044eb00e6
:101eb8000804e00004003200c3eca90024cea80006
:101ec800c3cca80003003700c3cca90024eea800a7
:101ed800c3eca80020838000318380000508070038
:101ee8000200200003222400ccfb070007fb0700a8
:101ef8000000780030668800e4828000f582800067
:101f0800c0828000d182800018c0b3000001be00ea
:101f18000400be00d8fa07000000e0000100350008
:101f28000044eb000804e0000d003200c882800085
:101f3800d9828000e4828000f5828000408280009f
:101f4800518280000001be000400be0029fa07008b
:101f58000801be0015080700e0828800f1828800a9
:101f6800e4828000f5828000c0828000d1828000f7
:101f780018c0b3000001be000400be00c0fa07008c
:101f88000000e00001003c000044eb000804e00011
:101f98000d003200c8828000d9828000e48280006f
:101fa800f582800040828000518280000001be00de
:101fb8000400be000efa07000801be00e307070090
:101fc800e0828800f1828800e0828000f18280004f
:101fd80018c0b3006011b800a9fa07000000e000bb
:101fe80001003c000044eb000804e000040032005b
:101ff80023cca90015eea80023eca80003003700a5
:1020080023eca90015cea80023cca800e08280000c
:10201800f1828000b7070700020020000322240095
:102028007efb0700b9fa07000000780030618800dd
:102038004f04be000080fa00000006000600fa0007
:10204800008fbe00220798002e0090000000e000dc
:1020580005003a001e0178009e0190000283880066
:1020680013838800040037001e0178009e01900049
:10207800c2828800d38288000080fa00000006002f
:102088000000fa00e4868000f58680002084800045
:10209800318480000001be000400be00d4f90700ae
:1020a800a0898800b1898800c4878000d58780000e
:1020b80040848000518480000001be000400be00fe
:1020c800cbf90700208b8800318b8800a08980001d
:1020d800b18980000001be0040112100cd06070033
:1020e800a08b8800b18b8800208b8000318b80000a
:1020f8000001be0040142100c6060700c08b8800fe
:10210800d18b8800c08b8000d18b8000a48b80008d
:10211800b58b80000001be000400be00020007006d
:102128000080fa00000006000800fa00889fbe0040
:10213800008fbe002207980033079800c0878000f0
:10214800d1878000020020005329240033fb0700b8
:10215800e0878800f1878800e0868000f1868000ab
:1021680002002000932824002cfb07000087880029
:10217800118788000887800019878000e087800021
:10218800f187800042b62300f3e5230023fb070014
:102198000200200003002400f5f907000001be003a
:1021a8000800be0093f907000083880011838800a7
:1021b800008380001183800004002000852c240007
:1021c80002002000832c2c00900707000083880061
:1021d800118388000887800019878000e0878000c5
:1021e800f187800042b62300f3e523000bfb0700cc
:1021f8000200200003002400ddf907000001be00f2
:102208000800be007af90700c0828800d1828800e1
:10221800c0828000d182800004002000852c240028
:1022280002002000832c2c0078070700c082880059
:10223800d18288004f04be000080fa00000006002a
:102248006000fa0000888000118880000001be004c
:102258008000eb000e0078001b050700e087800077
:10226800f18780000001be00410020000e007800c8
:1022780015050700208a8000318a80000001be0011
:10228800810020000e0078000f050700408b8000b9
:10229800518b80000001be00c10020000e007800b4
:1022a80009050700408a8000518a80000001be00ad
:1022b800010120000e00780003050700608b8000f4
:1022c800718b80000001be00410120000e007800e3
:1022d800fd040700608a8000718a80000001be004a
:1022e800810120000e007800f7040700808b800031
:1022f800918b80000001be00c10120000e00780013
:10230800f104070020878000318780000001be00ab
:10231800010220000e007800eb040700008780000f
:10232800118780000001be00410220000e007800e5
:10233800e5040700a0888000b18880000001be0085
:10234800810220000e007800df040700c0898000a9
:10235800d18980000001be00c10220000e00780073
:10236800d9040700c0888000d18880000001be0021
:10237800010320000e007800d3040700e0898000e4
:10238800f18980000001be00410320000e007800a2
:10239800cd040700e0888000f18880000001be00bd
:1023a800810320000e007800c7040700008a80001f
:1023b800118a80000001be00c10320000e007800d1
:1023c800c1040700c0878000d18780000001be00db
:1023d800010420000e007800bb040700e08680009e
:1023e800f18680000001be00410420000e00780044
:1023f800b5040700808a8000918a80000001be0031
:10240800810420000e007800af040700a08a800035
:10241800b18a80000001be00c10420000e007800cf
:10242800a9040700c08a8000d18a80000001be008c
:10243800010520000e007800a30407000089800031
:10244800118980000001be00410520000e007800bf
:102458009d04070020898000318980000001be00aa
:10246800810520000e00780097040700408980004d
:10247800518980000001be00c10520000e007800cf
:10248800910407000e0178000106200020062000b4
:10249800300007000080fa00000006000a00fa0079
:1024a800200798003107980042079800e0cfb30052
:1024b800204798002e0090004880de008040780079
:1024c8002e40900000c06800204798002e00900021
:1024d800804078002e40900000c068002047980097
:1024e8003e0090004880de00804078002e4090003a
:1024f80000c06800204798003e00900080407800a7
:102508002e40900000c06800204798000000eb00b3
:10251800000f7800080037001e007800ce009000f9
:102528000080400010407800ae40900000c0680075
:10253800204798001e0fe8003e0090009e0078009b
:10254800808f5000f4ff35002e4090000080fa0084
:10255800000006000e00fa00889fbe0040079800a1
:1025680051079800620798000f0478000f00780060
:10257800800478000000eb00000f78005e009000f7
:10258800660040008000e900210798000000e8008c
:102598000000e8000000d100800040000f00780033
:1025a800818747000000e8000000d10000004000db
:1025b800300798003e0090001e004000e1cfb300b5
:1025c800014878001e0fe8004e0090004880de00a9
:1025d800804078003e0090001e00400001487800ce
:1025e8001e0fe8004e009000804078003e009000ea
:1025f8001e004000014878001e0fe8005e009000b1
:102608004880de00804078003e0090001e004000b8
:10261800014878001e0fe8005e00900080407800b6
:102628003e0090001e004000014878001e0fe800a0
:102638000000eb00100798000b0037001e00900008
:10264800ee00900000804000904078003e0090002e
:102658001e004000014878001e0fe8001e00900090
:102668000000e800100798009e0090005e009000af
:10267800808f5000f1ff35006e019000de00900061
:102688004e00900085ff0700be0090009e8040002d
:10269800804878001e0fe8003e0090009e007800f9
:1026a8009b06070089077800880778004f04be005a
:1026b8000080fa00000006000400fa002047980095
:1026c800e0818000e30f500023003200e30f500048
:1026d80005003e00e10f500013003200e10f5000ea
:1026e80015003e0007003700e50f50002d003200ae
:1026f800e50f50001c003900e60f5000380032008a
:10270800490037002e409000e24f400002003a0096
:1027180010002000e08188003430ef003830ef00ee
:102728003630ef00440037003430ef00200020003e
:10273800e0818800400037002e4090008080fb0038
:10274800a081800000804000a08188003000200027
:10275800e0818800380037003630ef004000200064
:10276800e0818800340037002e4090008080fb0014
:10277800b081800000804000b0818800b081800076
:102788000000e000040032003830ef005000200064
:10279800e08188002800370060002000e081880080
:1027a80025003700c0818000c12f21000080400033
:1027b800ae40900001487800c08180000000e80029
:1027c800c0818800c1818000b0818000808f500066
:1027d8001800350060002000e081880016003700ee
:1027e800ae409000014f7800b1818000a081800048
:1027f800c22f210029ff0700104798001e409000b3
:102808009e4f500006003a00b0818000804078005a
:10281800a081800000407800c22f21000800070036
:102828003c30ef00040037003c30ef0000000000af
:1028380001003700000000000080fa0000000600d8
:102848001400fa00889fbe008a9fbe008c9fbe00bd
:10285800004f780011479800120798001e80fb006f
:1028680031052000810f5000200032003105200082
:10287800810f500007003c0011052000810f500017
:102888000b00320021052000810f5000100032009b
:102898009f00370021062000810f500010003200f1
:1028a80041062000810f50001f00320098003700b9
:1028b8001e00900010407800f7fa07001e019000f3
:1028c800110020003005200022ff0700900037008b
:1028d8001e00900010407800f6fa07008c003700c0
:1028e80010002000d0818800890037001e00900069
:1028f8000000e800104078000080fb008000eb003a
:10290800a0f807000004be001e00900010407800e8
:102918000080fb008000eb009af807000801be0069
:10292800f5fc07007a0037001e0090001040780080
:102938000004e0003b003a001e00900066004000e2
:10294800104078000080fb008000eb008df8070045
:102958000001be0022079800330798001e0090006f
:1029680065004000104078000080fb008000eb000c
:1029780084f807000001be0042079800530798003a
:102988001e00900064004000104078000080fb00aa
:102998008000eb007bf807000006be001e009000d8
:1029a80063004000104078000080fb008000eb00ce
:1029b80074f807000005be001e0090000080e800c3
:1029c800104078000080fb008000eb006df80700e5
:1029d8000004be001e0090000000e80010407800cf
:1029e8000080fb008000eb0066f807002e019000d5
:1029f800be019000829fbe004e019000de01900053
:102a0800829fbe008c9fbe000a03be000802be0063
:102a18000001be004011210057040700ec87570051
:102a28003b0037001e009000660040001040780010
:102a38000080fb008000eb0052f807000001be0098
:102a480062079800730798001e0090006500400018
:102a5800104078000080fb008000eb0049f8070078
:102a68000001be00020f9800130f98001e0090008e
:102a780064004000104078000080fb008000eb00fc
:102a880040f807000006be001e00900063004000ea
:102a9800104078000080fb008000eb0039f8070048
:102aa8000005be001e0090000080e800104078007d
:102ab8000080fb008000eb0032f807000004be0035
:102ac8001e0090000000e800104078000080fb0025
:102ad8008000eb002bf807006e019000fe019000cb
:102ae800829fbe000e0990009e099000829fbe0042
:102af8008c9fbe000a03be000802be000001be0093
:102b0800401421001c040700ec8757000000000057
:102b18004f06be004f05be004f04be000080fa00fd
:102b2800000006000000fa00c301a8000080eb00c6
:102b3800e00e88000080eb00f00e8800c1e1a800dc
:102b48000080fa00000006000000fa00c305a80093
:102b58000080eb00e02e88000080eb00f02e88005b
:102b6800c1e5a8000080fa00000006000800fa008d
:102b7800889fbe008a9fbe004080800051808000f0
:102b8800008088001180880060808000718080004b
:102b98002080880031808800d0818000e10f5000bb
:102ba8000a003a006000b800008588001185880096
:102bb8006000b80020858800318588006000b80072
:102bc80040858800518588003a30ef00300e80003b
:102bd8008000eb00008fbe00500e80008000eb00ec
:102be800c000dd00000020001e0f40005e97480076
:102bf800302e80008000eb002007980031079800f5
:102c0800502e80008000eb00c000dd000000200096
:102c18002e019000be019000020040008380480011
:102c280020079800310798001e0078009e00900049
:102c3800d1f70700b29420009378230077f80700b3
:102c480040808800518088002e009000be009000cf
:102c5800c9f70700b294200093782b006ff807009b
:102c680060808800718088004480800055808000e2
:102c780000808000118080000001be000400be00ba
:102c8800dbf60700808088009180880064808000df
:102c98007580800020808000318080000001be00a7
:102ca8000400be00d2f60700a0808800b18088002a
:102cb8008480800095808000a0808000b1808000a2
:102cc8000001be000400be00c9f6070042b623009a
:102cd800f3e5230026f70700c0808800d18088002c
:102ce8008480800095808000a0808000b180800072
:102cf8000001be000400be00bef60700020020006e
:102d0800030024001af70700e0808800f18088009b
:102d18002084800031848000608488007184880069
:102d280040848000518480008084880091848800d9
:102d3800808080009180800002002000a33724005a
:102d480036f80700e0838800f1838800a0808000bf
:102d5800b180800002002000a33724002ff807006c
:102d68000084880011848800e4838000f583800053
:102d780000848000118480000001be000400be00b1
:102d88009cf607000200200003002400f8f6070064
:102d98002084880031848800c0808000d180800031
:102da80002002000a33724001cf807004084880094
:102db800518488000085800011858000a0848800e7
:102dc800b18488002085800031858000c084880017
:102dd800d18488004085800051858000e084880087
:102de800f18488000885800019858000208480008f
:102df8003184800002002000a3372400dcf607009d
:102e08000005be004085800051858000d6f6070089
:102e18000001be000a00be0000f807000001be0065
:102e28000800be0073f60700008588001185880039
:102e380028858000398580002084800031848000c6
:102e480002002000a3372400c9f607000005be00d1
:102e580040858000518580008df807000001be0084
:102e68000a00be00edf707000001be000800be0022
:102e780060f6070020858800318588004485800039
:102e880055858000c0808000d18080000001be0090
:102e98000400be0057f60700408588005185880069
:102ea800408580005185800018c0b300b2fd200025
:102eb80093042400f2f607000000e00001003c0043
:102ec8000044eb000804e000070032004085800061
:102ed80051858000b2fd2000930c240044f60700c1
:102ee8004085880051858800408580005185800094
:102ef80018c0b300b2fd200093042c00def60700d2
:102f08000000e000010035000044eb000804e00088
:102f1800070032004085800051858000b2fd200006
:102f2800930c240033f607004085880051858800fb
:102f38004f05be004f04be000080fa0000000600e6
:102f48001800fa0050818000618180000001be00f5
:102f58008000eb000e007800f40107000085800077
:102f6800118580000001be00410020000e0078009d
:102f7800d501070020858000318580000001be0052
:102f8800810020000e007800cf01070040858000f6
:102f9800518580000001be00c10020000e007800ad
:102fa800c901070020848000318480000001be0030
:102fb800010120000e007800c30107004084800052
:102fc800518480000001be00410120000e007800fd
:102fd800bd0107000e0178008101200010062000c5
:102fe8005cfd07000080fa00000006000000fa00ff
:102ff80013e1a90011e1a9001061a8001021a9009e
:1030080081088000f0fc2f000080600080088800a4
:103018000a21ef000621ef00404c200070088800cc
:1030280000402b00600888002142800080ff2f00ac
:10303800008060000000a000204288000108a9006c
:103048002108a80011e1a8000080fa00000006008d
:103058000000fa0005e1a9000421a90000002000f1
:10306800a1372400050007000068a9002068a8000f
:1030780005e1a8000080fa00000006000400fa003c
:10308800881f7800008fbe001e0178009e01900006
:103098000068290081c1240035f6070018c0b30074
:1030a80002f02f00f377240075f607000000e00017
:1030b80001003c000044eb000804e000540032002a
:1030c80021088000f0fc2f00008060000040a00074
:1030d800200888001e0178009e01900000682900e1
:1030e80081c1240022f607000200200003102400fa
:1030f8001ff6070018c0b30002f02f00f377240072
:103108005ff607000000e00001003c000044eb000f
:103118000804e0003200320021088000f0fc2f0093
:10312800008060000050a000200888001e01780080
:103138009e0190000068290081c124000cf6070058
:10314800020020000328240009f6070018c0b30075
:1031580002f02f00f377240049f607000000e00092
:1031680001003c000044eb000804e00010003200bd
:10317800210880000003200001007000200888005a
:103188001e0178009e0190000068290081c124007a
:10319800f7f507000200200003382400f4f50700c3
:1031a80039f6070000007800100888002000370072
:1031b8001e0178009e0190000068290081c124004a
:1031c800ebf507000200200003282400e8f50700bb
:1031d8002df607000000780010088800140037005a
:1031e8001e0178009e0190000068290081c124001a
:1031f800dff507000200200003102400dcf50700bb
:1032080021f6070000007800100888000800370041
:103218001e0178009e0190000068290081c12400e9
:10322800d3f5070018f6070000007800100888009a
:103238004f0478000080fa00000006000000fa0041
:103248001fe1a90000002000a14724000600070094
:103258001e21a9000368a9002368a8001fe1a8008f
:103268000080fa00000006000400fa00881f7800b9
:10327800008fbe00f1088000f0fc2f000080600085
:10328800f00888001e0178009e019000006829005f
:1032980081c12400b6f5070018c0b30002f02f0062
:1032a800f3772400f6f507000000e00001003c0079
:1032b8000044eb000804e00054003200f1088000ec
:1032c800f0fc2f00008060000040a000f00888009b
:1032d8001e0178009e0190000068290081c1240029
:1032e800a3f507000200200003102400a0f5070042
:1032f80018c0b30002f02f00f3772400e0f50700b0
:103308000000e00001003c000044eb000804e0007d
:1033180032003200f1088000f0fc2f0000806000cd
:103328000050a000f00888001e0178009e0190005f
:103338000068290081c124008df5070002002000e3
:10334800032824008af5070018c0b30002f02f00f4
:10335800f3772400caf507000000e00001003c00f4
:103368000044eb000804e00010003200f10880007f
:103378000003200001007000f00888001e0178009a
:103388009e0190000068290081c1240078f507009b
:10339800020020000338240075f50700baf507007d
:1033a80000007800d0088800200037001e0178004f
:1033b8009e0190000068290081c124006cf5070077
:1033c800020020000328240069f50700aef5070075
:1033d80000007800d0088800140037001e0178002b
:1033e8009e0190000068290081c1240060f5070053
:1033f80002002000031024005df50700a2f5070075
:1034080000007800d0088800080037001e01780006
:103418009e0190000068290081c1240054f507002e
:1034280099f5070000007800d00888004f0478005c
:103438000080fa00000006000400fa00881f7800e7
:10344800008fbe0018c0b3006011b8001e007800dd
:103458009e0090008af507000000e00001003d0092
:103468000044eb000804e000030032001e0078006e
:103478009e009000030037001e0078009e00900018
:1034880001f0a2004f0478000080fa000000060056
:103498000800fa00881f7800008fbe0022079800f5
:1034a8003307980018c0b3002e019000be019000a9
:1034b8001e0078009e00900071f507000000e000f3
:1034c80001003c000044eb000804e0000300320067
:1034d8001e0078009e009000020037002e00900029
:1034e800be0090004f0478000080fa00000006003b
:1034f8000800fa00881f7800008fbe002207980095
:103508003307980018c0b3002e019000be01900048
:103518001e0078009e00900057f507000000e000ac
:10352800010035000044eb000804e000030032000d
:103538001e0078009e009000020037002e009000c8
:10354800be0090004f0478000080fa0000000600da
:103558000c00fa00881f7800008fbe002207980030
:1035680033079800440798005507980018c0b3001f
:103578002e019000be0190001e0078009e00900071
:103588003df507000000e000010035000044eb00b5
:103598000804e000030032002e009000be009000f6
:1035a8001000370018c0b3004e019000de019000f3
:1035b8001e0078009e00900031f507000000e00032
:1035c80001003c000044eb000804e0000300320066
:1035d8004e009000de009000020037001e007800c8
:1035e8009e0090004f0478000080fa00000006005a
:1035f8000800fa002007980031079800b2fd200063
:10360800930424002e009000be00900078f4070078
:10361800b2fd2000930c24005cf50700b2fd2000e9
:103628009304240073f40700008fbe00b2fd20004d
:10363800930424001e0078009e0090006df407009b
:10364800b2fd2000930c240050f50700b2fd2000c5
:103658009304240066f407000080fa0000000600c6
:103668000a00fa003007980041079800be00900051
:103678004e009000008f40001e0078001001780076
:103688009001900012079800230798001e009000f0
:10369800ae0090000080fa00000006000600fa0064
:1036a80010079800210798009e0090002e009000b7
:1036b800008f40001e0078009000900010007800f5
:1036c8000080fa00000006000c00fa0020079800ad
:1036d8003107980042079800530798006800470090
:1036e800100798000000eb00000f78000a00370070
:1036f8003e0090001e004000ae0090000080400098
:103708009e0078001e0190008100410091407800e1
:10371800014878001e0fe8001e007800e30f5000f3
:10372800f3ff34000080fa00000006000c00fa00e5
:10373800200798003107980042079800530798001f
:1037480068004700100798000000eb00000f7800a1
:103758000b0037003e0090001e004000ae009000b5
:1037680000804000320020009e0051001e019000a1
:103778008100410091407800014878001e0fe80060
:103788001e007800e30f5000f2ff34000080fa00ba
:10379800000006000c00fa00200798003107980086
:1037a80042079800530798006800470010079800e0
:1037b8000000eb00000f78000a0037003e00900080
:1037c8001e004000ae009000008040009e0078007f
:1037d8001e01900081004100914078000148780066
:1037e8001e0fe8001e007800e70f5000f3ff3400ba
:1037f8000080fa00000006000000fa00881f780028
:10380800a0838000b183800018c0b30002002000ac
:10381800831c240098f407000000e0000100350034
:103828000044eb000804e0000e00320040838000f2
:103838005183800018c0b30002002000831c2400bc
:103848008df407000000e000010035000044eb00a3
:103858000804e00003003200500020009082880035
:10386800c1003700808380009183800018c0b300b6
:1038780002002000c32024007ff407000000e000bd
:10388800010035000044eb000804e00003003200aa
:103898005000200090828800b3003700a083800089
:1038a800b183800018c0b30002002000c3202400a8
:1038b80071f407000000e000010035000044eb004f
:1038c8000804e000190032008083800091838000a2
:1038d80018c0b30002002000831c240068f407000d
:1038e8000000e00001003c000044eb000804e00098
:1038f8000e003200408380005183800018c0b3005e
:1039080002002000c32024005df407000000e0004e
:1039180001003c000044eb000804e0000300320012
:1039280020002000908288008f003700a08380004c
:10393800b183800018c0b30002002000c320240017
:103948004ff407000000e00001003c000044eb00d9
:103958000804e00019003200808380009183800011
:1039680018c0b30002002000831c240044f40700a0
:103978000000e00001003c000044eb000804e00007
:103988000e003200408380005183800018c0b300cd
:1039980002002000c320240037f407000000e000e4
:1039a800010035000044eb000804e0000300320089
:1039b80040002000908288006b003700c0838000a0
:1039c800d183800018c0b300020020000312240035
:1039d80029f407000000e000010035000044eb0076
:1039e8000804e00041003200608380007183800099
:1039f80018c0b30002002000031224001ef40700c0
:103a08000000e000010035000044eb000804e0007d
:103a180036003200c4838000d58380006083800034
:103a28007183800018c0b3000001be000400be000e
:103a380011f407000000e000010035000044eb002d
:103a48000804e0000b003a00a0838000b1838000e6
:103a580018c0b30002002000030a240006f407007f
:103a68000000e000010035000044eb000804e0001d
:103a78000300320060002000908288003a0037007e
:103a8800c4838000d58380006083800071838000b8
:103a980018c0b3000001be000400be00f8f3070020
:103aa8000000e00001003c000044eb000804e000d6
:103ab8000b003a00408380005183800018c0b30097
:103ac80002002000030a2400ebf307000000e000d6
:103ad800010035000044eb000804e000210032003a
:103ae80070002000908288001f003700c08380008b
:103af800d183800018c0b3000200200003172400ff
:103b0800ddf307000000e000010035000044eb0091
:103b18000804e000030032001000200090828800b2
:103b280011003700608380007183800018c0b300e3
:103b38000200200003172400cff307000000e00074
:103b4800010035000044eb000804e00003003200e7
:103b58003000200090828800030037005230ef00c8
:103b68000100370000000000908280004f047800b8
:103b78000080fa00000006000e00fa00000f78002e
:103b88001207980023079800340798004507980003
:103b980056079800670798001e0078001e019000dd
:103ba800ae0190000288be001e0078003eb9970062
:103bb800ceb9970062009800730098001e00780044
:103bc8003e019000ce01900022009800330098003a
:103bd8001e0078001eb99700aeb997000208980039
:103be800130898001e0078005e019000ee01900016
:103bf80042009800530098001e0078007eb197009c
:103c08008eb9970022089800330898000080fa00bf
:103c1800000006001200fa00889fbe008a9fbe00be
:103c28006007980072079800030f98006e009000d4
:103c38007e0190008e0990000210980013109800e1
:103c48006e009000200a9000b00a90006e0090006c
:103c580090009000100078000001be000400be0033
:103c680043f307000004be006e009000b008900007
:103c7800200890000002be0005f0a2006e0090002f
:103c880090009000100078000001be000400be0003
:103c980037f307000802be000001be007e00900056
:103ca8008e0890002afe0700008fbe006e0090006c
:103cb80090009000100078001e0178009e0190008e
:103cc80056f407006e0190002011980031119800f9
:103cd8006e009000400c9000d00c90006e00900098
:103ce800400d9000d00d900002002000a337240062
:103cf8007e0090008e0890001df307000001be00b2
:103d08000a00be00bbf207000001be000800be00aa
:103d1800b8f207006e019000400998005109980018
:103d28006e009000400a9000d00a90006e0090004b
:103d3800b0009000200090000001be000400be000a
:103d48000bf307000004be006e009000d00890003e
:103d5800400890000002be0005f0a2006e0090002e
:103d6800b0009000200090000001be000400be00da
:103d7800fff207006e019000420b9000d20b9000fa
:103d88000802be000001be000600be00f0fd0700ec
:103d98006e01900040099800510998006e0090004b
:103da800400a9000d00a90006e009000b000900089
:103db800200090000001be000400be0017f40700b8
:103dc8006e01900040119800511198006e0090000b
:103dd800f0089000600890000001be007e0090008e
:103de8008e08900082f2070002002000a33724000a
:103df8000af4070020079800310798006e00900029
:103e0800200a9000b00a90006e009000d000900048
:103e1800400090000001be000400be00d4f207007c
:103e28000004be006e009000b008900020089000ca
:103e38000002be0005f0a2006e009000d0009000c5
:103e4800400090000001be000400be00c8f2070058
:103e58000802be000001be002e009000be009000c7
:103e6800bbfd070040079800510798006e009000be
:103e78007e0190008e0990006208980073089800ef
:103e88006e009000d0009000400090004e0190001d
:103e9800de019000e1f307006e01900060119800c8
:103ea800711198006e00900020129000b0129000de
:103eb8006e009000d0109000401090000001be00ed
:103ec8000400be004bf207000002be006e00900026
:103ed800f0109000601090000001be000400be00c9
:103ee80044f207004f05be004f04be000080fa00f0
:103ef800000006000400fa00881f7800008fbe004a
:103f080018c0b3006011b8001e0078009e00900031
:103f1800dbf207000000e00001003d000044eb0078
:103f28000804e000030032001e0078009e009000a4
:103f3800030037001e0078009e00900001f0a200e8
:103f48004f0478000080fa00000006000800fa001c
:103f5800881f7800008fbe0022079800330798005a
:103f680018c0b3002e019000be0190001e0078001a
:103f78009e009000c2f207000000e00001003c0033
:103f88000044eb000804e000030032001e00780043
:103f98009e009000020037002e009000be009000a6
:103fa8004f0478000080fa00000006000800fa00bc
:103fb800881f7800008fbe002207980033079800fa
:103fc80018c0b3002e019000be0190001e007800ba
:103fd8009e009000a8f207000000e00001003500f4
:103fe8000044eb000804e000030032001e007800e3
:103ff8009e009000020037002e009000be00900046
:104008004f0478000080fa00000006000c00fa0057
:10401800881f7800008fbe00220798003307980099
:10402800440798005507980018c0b3004e01900047
:10403800de0190001e0078009e00900090f20700bc
:104048000000e00001003c000044eb000804e00030
:10405800040032004e019000de019000028fbe0085
:104068000e00370018c0b3002e019000be0190006a
:104078001e0078009e0090007ff207000000e0001c
:10408800010035000044eb000804e00003003200a2
:104098002e019000be019000028fbe001e00780025
:1040a8009e0090004f0478000080fa00000006008f
:1040b8000400fa00008fbe00b2fd20009304240023
:1040c8001e0078009e00900029f2070002002000e0
:1040d8004333240051f307000080fa000000060073
:1040e8000400fa00008fbe00b2fd200093042400f3
:1040f8001e0078009e00900048f307000200200090
:10410800433324001af207000080fa00000006007a
:104118000600fa0010079800210798000040eb00fd
:10412800004f780054000700ae009000810f500047
:10413800110034000040eb00004f78000600370003
:104148001e80fb009e009000008040001040780018
:104158000b0007001e4fe8009e80fb002e00900019
:10416800808f5000f6ff3500300007000004e000a3
:1041780001003a00240007000080fa000000060051
:104188000200fa00004f7800f0818000c11721007a
:10419800008040001e487800f1818000d00f200088
:1041a800808f5000020034003e30ef0003003700db
:1041b800f08180000000e800f08188000080fa00ab
:1041c800000006000200fa0000828000c1172100ea
:1041d80000804000104f780001828000d00f20003e
:1041e800808f5000020034004030ef000300370099
:1041f800008280000000e800008288001e407800ed
:104208000080fa00000006000200fa0010c0b300a7
:1042180042f0b700ebff0700004f78001e80fb005c
:10422800201188000080fa00000006000000fa0053
:1042380042d0bf000080fa00000006000000fa002b
:10424800f181800000828000808f500004003500da
:10425800f181800000828000008050000400370057
:10426800f18180000082800000805000f00fb000d3
:104278000080fa00000006000000fa00efff0700c7
:10428800f10f2000008050000080fa0000000600b6
:104298000000fa0021e3a9002143a80001198000c9
:1042a800f0cf2f0000806000001988002043a9008b
:1042b80001198000000e200001007000001988001c
:1042c80011198000f0ff210000806000101988009b
:1042d8002343a80011198000f0cf2f000080600050
:1042e800101988001119800030f82f000080600034
:1042f8000040a000101988002203a9002223a90069
:1043080025e3a900f0c0b30024e3b7002119800019
:10431800f00f2e008080600000f020000100700087
:10432800201988003303a9004feea8002e0ea8001c
:104338002f6ea8006f2ea8001e2ea80031e3a8003b
:1043480030c3a8003163a8002e03a8003063a8007a
:104358004119800000fc2f0000806000401988008f
:1043680028e3a90001a8a90021a8a80021e3a80022
:104378000080fa00000006000000fa002023a800d0
:104388000080fa00000006000000fa00c037210093
:104398000080fa00000006000000fa0051d0bf00bb
:1043a8000080fa00000006000000fa005170ef00db
:1043b8000080fa00000006000200fa00004f7800b2
:1043c8002c0007000000e0000d003400608280002f
:1043d800c1272100008040001e48780061828000cb
:1043e800e0072000808f5000020034004c30ef00be
:1043f80003003700608280000000e80060828800c7
:104408000080fa00000006000200fa0070828000b6
:10441800c127210000804000104f78007182800081
:10442800e0072000808f5000020034004e30ef007b
:1044380003003700708280000000e8007082880066
:104448001e4078000080fa00000006000000fa0014
:104458006182800070828000808f500002003200ec
:1044680010c0b300010037000040eb000080fa00e4
:10447800000006000000fa0061828000708280005f
:10448800808f5000050034007182800060828000b7
:10449800008050000008b0000400370061828000ee
:1044a80070828000008050000008b0000080fa0090
:1044b800000006000000fa00eeff070001082000d7
:0c44c800008050000080fa000000060098
:020000040000fa
:1044d400201000000a0000008000000044100000ca
:1044e40004000000820000000f0001000000000032
:1044f4002a1000000a00000080000000561000008e
:1045040026010000800000004810000004000000a4
:104514008200000000007000410000007c130000d5
:104524000a0000008000000050100000020000009b
:104534008000000052100000020000008000000013
:104544007c11000000010000800000003e1000000b
:1045540006000000800000007c12000080000000c3
:10456400800000004c1000000400000080000000e7
:10457400fc120000800000008000000034100000e5
:104584000a0000008000000000100000200000006d
:1045940080000000541000000200000080000000b1
:0445a4000000000013
:020000040000fa
:1045a8000000fa000e2eef001e2eef002e2eef0058
:1045b8003e2eef004e2eef005e2eef006e2eef0027
:1045c800214ea90060cea90060eea90011cea90075
:1045d80011eea90020cea90020eea900002ea80007
:1045e8002136800000f82f00008060008001b300b1
:1045f800203688001134800000fc2f000080600005
:104608000000a000103488000136800000f82f0058
:1046180080806000100620000100700000368800cd
:1046280001368000f00f280080806000000026001e
:104638000100700000368800e135800000f82f0086
:10464800808060006004200001007000e035880070
:10465800e1358000f00f28008080600000502400c1
:1046680001007000e03588000080fa0000000600b4
:104678000000fa002002a9000111800090ff2f001d
:10468800008060000011880020a2a9002062a80014
:10469800500520004011880023a2a90023e2a900a8
:1046a8000188a9002188a80011118000f0f32f00cb
:1046b80000806000101188000168a9002168a80026
:1046c80021e2a8002342a8000080fa0000000600aa
:1046d8000600fa0010079800210798000040eb0038
:1046e800004f78000040eb00004f78000e003700c4
:1046f80000000000111180000020200000806000f0
:104708000000e000fbff3a001e0090001040780017
:104718000080fb00201188001e0090000000e800c7
:10472800100798001e4fe8009e80fb002e009000a6
:10473800808f5000eeff35000080fa000000060070
:104748000000fa00f0032000303a8800213a800087
:10475800f0f32f0000806000203a8800213a8000a2
:1047680000fe2f00008060000000a000203a8800b2
:104778001200200080072000a109200033742000c7
:10478800804978008149780082497800103a800091
:10479800000178000200a0006004200071052000dc
:1047a8002374200080497800814978008249780084
:1047b80000000000113a800000002700808060009f
:1047c80000002100808f5000faff3a00000000002e
:1047d800113a800000022000008060000000e00024
:0c47e800fbff32000080fa000000060019
:020000040000fa
:02000004000af0
:04afe000cfff00009f
:020000040000fa
:02000004000af0
:04afe400ffff00006b
:020000040000fa
:02000004000af0
:04afe8007fff0000e7
:020000040000fa
:02000004000af0
:04afec005fff000003
:020000040000fa
:02000004000af0
:04aff00038ff000026
:020000040000fa
:02000004000af0
:04aff400ffff00005b
:00000001FF
