:020000040000fa
:080000000002040000000000f2
:020000040000fa
:04000800f8030000f9
:020000040000fa
:04000c00f8030000f5
:020000040000fa
:04001000f8030000f1
:020000040000fa
:04001400f8030000ed
:020000040000fa
:04001800f8030000e9
:020000040000fa
:04001c00f8030000e5
:020000040000fa
:04002000f8030000e1
:020000040000fa
:04002400f8030000dd
:020000040000fa
:04002800f8030000d9
:020000040000fa
:04002c00f8030000d5
:020000040000fa
:04003000f8030000d1
:020000040000fa
:0400340002030000c3
:020000040000fa
:04003800f8030000c9
:020000040000fa
:04003c00f8030000c5
:020000040000fa
:04004000f8030000c1
:020000040000fa
:04004400f8030000bd
:020000040000fa
:04004800fa020000b8
:020000040000fa
:04004c00f8030000b5
:020000040000fa
:04005000f8030000b1
:020000040000fa
:04005400b4030000f1
:020000040000fa
:040058008a03000017
:020000040000fa
:04005c006603000037
:020000040000fa
:04006000f8030000a1
:020000040000fa
:04006400f80300009d
:020000040000fa
:04006800f803000099
:020000040000fa
:04006c00f803000095
:020000040000fa
:04007000f803000091
:020000040000fa
:04007400f80300008d
:020000040000fa
:04007800f803000089
:020000040000fa
:04007c00f803000085
:020000040000fa
:04008000f803000081
:020000040000fa
:04008400f80300007d
:020000040000fa
:04008800f803000079
:020000040000fa
:04008c00f803000075
:020000040000fa
:04009000f803000071
:020000040000fa
:040094004e03000017
:020000040000fa
:04009800f803000069
:020000040000fa
:04009c00f803000065
:020000040000fa
:0400a000f803000061
:020000040000fa
:0400a400f80300005d
:020000040000fa
:0400a800f803000059
:020000040000fa
:0400ac00f803000055
:020000040000fa
:0400b000f803000051
:020000040000fa
:0400b400f80300004d
:020000040000fa
:0400b800f803000049
:020000040000fa
:0400bc00f803000045
:020000040000fa
:0400c000f803000041
:020000040000fa
:0400c400f80300003d
:020000040000fa
:0400c800f803000039
:020000040000fa
:0400cc00f803000035
:020000040000fa
:0400d000f803000031
:020000040000fa
:0400d400f80300002d
:020000040000fa
:0400d800f803000029
:020000040000fa
:0400dc00f803000025
:020000040000fa
:0400e000f803000021
:020000040000fa
:0400e400f80300001d
:020000040000fa
:0400e800f803000019
:020000040000fa
:0400ec00f803000015
:020000040000fa
:0400f000f803000011
:020000040000fa
:0400f400f80300000d
:020000040000fa
:0400f800f803000009
:020000040000fa
:0400fc00f803000005
:020000040000fa
:04010000f803000000
:020000040000fa
:04010400f8030000fc
:020000040000fa
:04010800f8030000f8
:020000040000fa
:04010c00f8030000f4
:020000040000fa
:04011000f8030000f0
:020000040000fa
:04011400f8030000ec
:020000040000fa
:04011800f8030000e8
:020000040000fa
:04011c00f8030000e4
:020000040000fa
:04012000f8030000e0
:020000040000fa
:04012400f8030000dc
:020000040000fa
:04012800f8030000d8
:020000040000fa
:04012c00f8030000d4
:020000040000fa
:04013000f8030000d0
:020000040000fa
:04013400f8030000cc
:020000040000fa
:04013800f8030000c8
:020000040000fa
:04013c00f8030000c4
:020000040000fa
:04014000f8030000c0
:020000040000fa
:04014400f8030000bc
:020000040000fa
:04014800f8030000b8
:020000040000fa
:04014c00f8030000b4
:020000040000fa
:04015000f8030000b0
:020000040000fa
:04015400f8030000ac
:020000040000fa
:04015800f8030000a8
:020000040000fa
:04015c00f8030000a4
:020000040000fa
:04016000f8030000a0
:020000040000fa
:04016400f80300009c
:020000040000fa
:04016800f803000098
:020000040000fa
:04016c00f803000094
:020000040000fa
:04017000f803000090
:020000040000fa
:04017400f80300008c
:020000040000fa
:04017800f803000088
:020000040000fa
:04017c00f803000084
:020000040000fa
:04018000f803000080
:020000040000fa
:04018400f80300007c
:020000040000fa
:04018800f803000078
:020000040000fa
:04018c00f803000074
:020000040000fa
:04019000f803000070
:020000040000fa
:04019400f80300006c
:020000040000fa
:04019800f803000068
:020000040000fa
:04019c00f803000064
:020000040000fa
:0401a000f803000060
:020000040000fa
:0401a400f80300005c
:020000040000fa
:0401a800f803000058
:020000040000fa
:0401ac00f803000054
:020000040000fa
:0401b000f803000050
:020000040000fa
:0401b400f80300004c
:020000040000fa
:0401b800f803000048
:020000040000fa
:0401bc00f803000044
:020000040000fa
:0401c000f803000040
:020000040000fa
:0401c400f80300003c
:020000040000fa
:0401c800f803000038
:020000040000fa
:0401cc00f803000034
:020000040000fa
:0401d000f803000030
:020000040000fa
:0401d400f80300002c
:020000040000fa
:0401d800f803000028
:020000040000fa
:0401dc00f803000024
:020000040000fa
:0401e000f803000020
:020000040000fa
:0401e400f80300001c
:020000040000fa
:0401e800f803000018
:020000040000fa
:0401ec00f803000014
:020000040000fa
:0401f000f803000010
:020000040000fa
:0401f400f80300000c
:020000040000fa
:0401f800f803000008
:020000040000fa
:0401fc00f803000004
:020000040000fa
:04020000f8030000ff
:020000040000fa
:04020400f8030000fb
:020000040000fa
:04020800f8030000f7
:020000040000fa
:04020c00f8030000f3
:020000040000fa
:04021000f8030000ef
:020000040000fa
:04021400f8030000eb
:020000040000fa
:04021800f8030000e7
:020000040000fa
:04021c00f8030000e3
:020000040000fa
:04022000f8030000df
:020000040000fa
:04022400f8030000db
:020000040000fa
:04022800f8030000d7
:020000040000fa
:04022c00f8030000d3
:020000040000fa
:04023000f8030000cf
:020000040000fa
:04023400f8030000cb
:020000040000fa
:04023800f8030000c7
:020000040000fa
:04023c00f8030000c3
:020000040000fa
:04024000f8030000bf
:020000040000fa
:04024400f8030000bb
:020000040000fa
:04024800f8030000b7
:020000040000fa
:04024c00f8030000b3
:020000040000fa
:04025000f8030000af
:020000040000fa
:04025400f8030000ab
:020000040000fa
:04025800f8030000a7
:020000040000fa
:04025c00f8030000a3
:020000040000fa
:04026000f80300009f
:020000040000fa
:04026400f80300009b
:020000040000fa
:04026800f803000097
:020000040000fa
:04026c00f803000093
:020000040000fa
:04027000f80300008f
:020000040000fa
:04027400f80300008b
:020000040000fa
:04027800f803000087
:020000040000fa
:04027c00f803000083
:020000040000fa
:04028000f80300007f
:020000040000fa
:100400004f3821000eff2c000e0188000000000074
:10041000000020000000e000020032000001200087
:100420002002880014000700f30007000000e0002d
:1004300003003a0080332200010020000200370050
:100440000000200001002000810f70000100320038
:100450000f000700000020000000e0000200320052
:100460000000020000000000060902000000000079
:100470000040da000000fe00200020000000e00044
:1004800002003200100020009001880000000600e9
:10049000a1028800800478000000eb001f003700f4
:1004a000e284440054a0b4009905ba00e2844400f8
:1004b00054a0b4009906ba00e284440054a0b400e9
:1004c0000006eb00476fde00fd07b200ae018800ba
:1004d000636ce10003003a000ad801000000eb0061
:1004e0000e003700606ce10008003a00004deb00a0
:1004f0000a05e800020039003420ec000af0a000f0
:100500008b05e900f9ff3e00040037006168e10057
:10051000010032000086eb000b00070019c7ba008b
:100520000e04e0001905ba0003003a000a00e000da
:10053000dbff3a0000000600fe07b200ae028800b2
:100540008a047800f5ff37000cd0a300e20f4d00bd
:100550001c00390089027800354dba000a05e80010
:10056000020039003420ec000af0a0008b05e900fd
:100570000f003200254dba000a05e80002003900dc
:100580003420ec000af0a0008b05e90008003200de
:100590000c00e0000600320015cdba000a05e800a4
:1005a000020039003420ec000af0a0008b05e900bd
:1005b0008984e80054a0b4000b00e000e2ff3a0098
:1005c000000006009902ba00055d78008b05e9007d
:1005d000f7ff3200c82ade00055d78008b05e900d0
:1005e000f3ff32000c00e000f1ff320019ddba0029
:1005f000eeff37000000fa000108a9000080fa00b1
:10060000004006003600f800809fbe00829fbe00ba
:10061000849fbe00869fbe000200fa000068a90009
:10062000560f07005209070099060700c206070087
:10063000e505070070818000000f7800a100200010
:100640001e00780081017800110009000300d80025
:1006500001f0a7008100ea008100e900cf08de0078
:10066000814078001e0178000200e8007081880057
:100670000104e00002003200f2060700310a070020
:100680000080fa004f03be004f02be004f01be00c3
:100690004f00be003600f90000400600809fbe00fb
:1006a0000000fa000368a900508180006181800089
:1006b00061004000e080480050818800618188002e
:1006c0000080fa004f00be0000400600801f780046
:1006d0000000fa0001a8a90000188000d09b880043
:1006e00010188000e09b880020188000f09b880094
:1006f00030188000009c880040188000109c880002
:1007000010c0b3004ff0b7000080fa004f0078002f
:10071000004006003600f800809fbe00829fbe00a9
:10072000849fbe00869fbe000000fa000188a900d9
:1007300001828000f0818000808f50000200320032
:10074000b20e0700010037004270ef000080fa008f
:100750004f03be004f02be004f01be004f00be005f
:100760003600f900004006003600f800809fbe0009
:10077000829fbe00849fbe00869fbe000000fa00dc
:100780000168a90010118000640060000000e00012
:10079000010032002242a9001011800062006000b6
:1007a0000000e000060032002222a9000500370008
:1007b0003011800000407800000f07000100370072
:1007c0000000000010118000610060000000e000e7
:1007d000f7ff3a000080fa004f03be004f02be0050
:1007e0004f01be004f00be003600f9000040060079
:1007f0000040da000000fe000000050003f0a20047
:10080000889fbe008a9fbe008c1f78006e01070083
:10081000750133006450e1004f0032006420e100b4
:100820005200320003826c0007003b000905d00033
:100830000306d000820f54000c065d000200390050
:100840000200320089017800030678008582550095
:1008500004003d000003fd008103fd008502ea0065
:100860008b854200840f720002003b006000100084
:10087000e08018006011b8000005eb007a28e10064
:100880000a00390006007800c75ddd00f707b200f6
:10089000878075002d003700828171000a01780081
:1008a000610560008180d1000080d3008502e900ed
:1008b000f9ff3b00060440008784480002003b002b
:1008c00060041400e0841c000988a30007003200c3
:1008d0008a81710082817100610164008904d10004
:1008e0000884d3008b05e800170037000978a300bf
:1008f00013003a000b00e000130034008b05e90000
:100900000804440089844c000a4474000978a30058
:100910000d003a000b00e000070034008b05e900f1
:100920000804440089844c0001003a000b002000b8
:100930000978a300f7ff32000001eb000200370046
:10094000828171000a017800e40007000cf0a70022
:1009500001f0a0002d0137006420e10002003a0000
:10096000838f6c002d0133000801be000200be0021
:10097000260137000081eb005f013700889fbe0031
:100980008a9fbe008c1f78000f01070016013300fc
:1009900003866c006450e1002e0032006420e10008
:1009a000330032006150e1002f0032006120e1008d
:1009b0003100320085855500eb07b00009002000aa
:1009c00008042000050037000804440089844c0016
:1009d0000a0031000603430087834b0000015300e7
:1009e00081815b00f8ff33000203be000800a00015
:1009f0000804440089844c00f6ff3900c639dd0044
:100a00008301730001003200130020008904d1002b
:100a10000884d3000998a300050032000800a7004d
:100a20000300a0008904d1000884d3008b05e800ee
:100a30008904d1000884d3000001eb000281d200b8
:100a4000a600070001f0a1000cf0a70001f0a00033
:100a5000ee0037006420e100f00032000801be0023
:100a60000200be00f7ff37006120e100eb0032001a
:100a70006000b800f3ff37000000200001f82700f5
:100a8000f0ff37001400200086013700f4ff2f002c
:100a9000840137000001be00b60007000470a70003
:100aa00003f0a1006509b100160032000d00350009
:100ab0006828e10006003500f0ff2f00f1ff270055
:100ac0000300e00013003b000100280000000500c7
:100ad00000004000818048008502e900fcff3a00e8
:100ae00008003700f88f420002003c008000eb0055
:100af000000005008100d1000080d3008502e800dd
:100b0000fcff3a000300e00002003b006000100020
:100b1000e0801800000006000001be0095000700fc
:100b20000470a70003f0a10003f8a30013003a002b
:100b30006509b10010003200090035006928e100a4
:100b40000200350001002800000005000000400000
:100b5000818048008502e900fcff3a0000000600a1
:100b6000f88f4200050035008100d1000080d300dd
:100b70008502e800fcff3a00000006008000eb0060
:100b8000000005004f89de00820178006001370017
:100b90006011b8006e01370004002000000037002b
:100ba000889fbe008a9fbe008c1f78004f26dd0004
:100bb000850007008c0033006120e1004300320013
:100bc0006250e10041003e003e0039006420e10037
:100bd0003c003200058255000f003b000402e80093
:100be00038003a00800f5300818f5b0035003400dd
:100bf0000800be0003f0a10001f0a60003f0a00071
:100c00000cf0a700fefe070080003700060343003b
:100c100087834b000c4646000005530081855b002e
:100c2000020033000a03be000c00a0000402e90029
:100c3000f6ff3b00850578000602430087824b00e3
:100c400004003a006000b80009f0a70001f0a0001d
:100c50006e0037000002520081825a000704e00053
:100c6000040033000603430087834b008b05e90033
:100c7000faff3700090578000604be000203be0033
:100c80006011b80015000700e00f5200e08f5a0015
:100c90000700350002003c000c08a30004003200ed
:100ca0000601be0003f0a0000cf0a700d4fe070070
:100cb0000a85680001f0a1000af0a70001f0a00079
:100cc000520037000800be0050003700100220001c
:100cd0000cf0a600908288005000370081002000b0
:100ce000618055000b003d000b00200061fe2f00cd
:100cf0000100e1001d003400828171006101640087
:100d00008904d1000884d3000000e800faff3a000b
:100d100071002000610064000300700002006000a8
:100d20000900320061044400e0844c000988a500f9
:100d3000050032008b05e8006808e10002003a0077
:100d40008904d1000884d300f20f20000258e1008a
:100d500005003d00c75ddd00f907b2008980750020
:100d600008007800000006000bf827008b007800d0
:100d700000000500c70ade00f107b200f50fb2005f
:100d800008003200e1cf4200020032000170a000f2
:100d900024000500810f70000100320004080500e6
:100da00044000500810f700002003a0014000500a5
:100db0008502e9000000400081c04800fcff3b00c4
:100dc0000170a000240005000004be00e9ff070038
:100dd0000003be000405be000200be00e5ff0700e0
:100de000844f7500000006000200be006450e10060
:100df000050036006420e100020036000968a30007
:100e000001003a000800be000160a0004f06780013
:100e10004f05be004f04be0000000600f0ff2f008b
:100e2000f1ff2700f9ff3700889fbe008a9fbe00b0
:100e30008c1f7800e4ff0700ebff330003866c0093
:100e40006450e100240032006420e10027003200f9
:100e50006150e100220032006120e10021003200f7
:100e60008b854200eb07b1000134b800003ab800ae
:100e70000804420089844a00013ab8000030b800f2
:100e80008880400009014a0004003300000040004f
:100e900081804800020149008b05e900c909dd0095
:100ea000830170000100320013002000c814de002e
:100eb0004814dd004709de001200b200c808de0059
:100ec0000884700085ff070001f0a1000cf0a70066
:100ed00001f0a000cdff37006120e100cfff32001c
:100ee0000801be000200be00f7ff37006150e100bc
:100ef000fcff3a00c9ff3700889fbe008a9fbe00f2
:100f00008c9fbe00820578000004be0099ff070098
:100f10000800be006420e1000700390002003a002a
:100f2000f1ff2700f0ff2f000160a0001202200057
:100f300092828800550037006120e10003003a00ea
:100f40000b00a70001f823005000370001f0a100ba
:100f50000200210093642400cafe07000800be00be
:100f600004003500b2fd2000930c24000aff0700a6
:100f70000004be000005eb000b00a6004f0dde00d4
:100f800001f0a1000004be0032982f0023ea2300e4
:100f9000a5ff07000001eb0003f023000b00a700f2
:100fa00003f8230016fe0700bafe07000000a700a2
:100fb0000a00a200f3fe07000b00e000030032006d
:100fc0000200200003f023000cfe070001f0a20045
:100fd0000006be00020020009304240092ff0700d8
:100fe0000801be0006fe0700809fbe000c00be0088
:100ff00022a22a00d3a723008bff07004f01be00c7
:10100000fffd07000004be0001f0a1000200200067
:10101000039823009bfe07000800be00190035005e
:101020000001be0080ff07000006be00b2c5290017
:10103000e36223007cff070022222b00f3942b00a5
:10104000effd07000c01be0077ff0700e2732800e8
:1010500083c02300eafd07000c01be0072ff0700f9
:1010600042aa2a00a3e22b00e5fd07000c01be0006
:101070006dff07000801be006bff07000801be00fe
:10108000dffd07000a00a70001f0a2004f06be0026
:101090004f05be004f04be00000006000001eb003b
:1010a00095ff3700889fbe008a9fbe00841f78008e
:1010b00045ff07004f00780011003300f0ff2f00bc
:1010c000838f6c0006003b00040565000a00a70042
:1010d0000800370009f0a6001000200008003700c3
:1010e000820f5400838f5c00030039001000200041
:1010f00001003e000000200009f0a7000000ea0007
:101100004f05be004f04be000000e00000000600d6
:10111000881f7800030478000300e00007003d000a
:1011200060001000e080180060011900e0811900e3
:1011300002003b0001f02d0003003700040007000f
:1011400008f0a70001f0a0004f047800000006009e
:10115000889fbe008a9fbe0000827000040271005a
:1011600004827100260032000004be000200be00ae
:101170006011b8006b092000950220000182cf00a9
:101180000a0039000541b1000082cf000700390094
:101190000541b1000982cf00040039000541b100ca
:1011a0000882cf00010039000541b100054252001c
:1011b000120032000a003b0082817100610164006c
:1011c0008100d1000080d3008984d3000884d3003b
:1011d0008b05e8000442e800f7ff3a0007003700fb
:1011e0000804440089844c000000480081804800c5
:1011f0008b05e9000442e900f9ff3a00b7fe070059
:0c1200004f05be004f04be0000000600b9
:020000040000fa
:10120c000600fa004b0d0700ae0c0700cf020700da
:10121c001d0c07008c070700720707000508070064
:10122c00dc0c07003d060700450607006000b8000f
:10123c00b0878800c1878800d0cc2c00c1ec23007b
:10124c00d0868800e1868800510c0700e14f5000e1
:10125c0083003a00520c0700490c0700000f78007d
:10126c001e007800100078008000eb0045fe07009f
:10127c003233230033052400e8fe0700020020006f
:10128c0003582400bafd0700d2cc2c00c304240060
:10129c00e2fe070010079800210798001e0190003d
:1012ac00ae0190000000200081202400b0fd07005a
:1012bc0002002000030a24004dfd07005083880023
:1012cc00618388001e80e800100078008000eb002d
:1012dc002cfe07003233230033052400cffe070019
:1012ec000200200003582400a1fd0700d2cc2c00e2
:1012fc00c3042400c9fe07001007980021079800ba
:10130c001e019000ae0190000000200081202400fe
:10131c0097fd070002002000030a240034fd07009b
:10132c0030838800418388009e00780064804000f0
:10133c00100078008000eb0012fe0700323323000f
:10134c0033052400b5fe07000200200003582400da
:10135c0087fd0700d2cc2c00c3042400affe07008d
:10136c0010079800210798001e019000ae01900014
:10137c0000002000812024007dfd070002002000d9
:10138c00030a24001afd07007083880081838800fb
:10139c009e00780068804000100078008000eb0010
:1013ac00f8fd070032332300330524009bfe0700b1
:1013bc0002002000035824006dfd0700d2cc2c0045
:1013cc00c304240095fe070010079800210798001d
:1013dc001e019000ae01900000002000812024002e
:1013ec0063fd070002002000030a240000fd070033
:1013fc0090838800a18388009e007800668040005e
:10140c00100078008000eb00defd07003233230073
:10141c003305240081fe070002002000035824003d
:10142c0053fd0700d2cc2c00c30424007bfe070024
:10143c0010079800210798001e019000ae01900043
:10144c00000020008120240049fd0700020020003c
:10145c00030a2400e6fc0700b0838800c1838800df
:10146c002430ef0007003700e50b070026f0b7002b
:10147c0026d0bf008e040700208180000000e80009
:10148c0020818800090c07008000780020818000f2
:10149c00808f5000f4ff3e006bff37000200fa0013
:1014ac00004f78001e4178007102210082487800bc
:1014bc000080fa00000006000200fa00004f7800dd
:1014cc001e4078000004e00006003a002870ef008f
:1014dc00c0c0b30027f0b700f00020006082880085
:1014ec00060037001e407800e14f500003003a0020
:1014fc0010c0b30028f0b7002770ef000080fa008e
:10150c00000006000000fa0000818000e10f50008e
:10151c0006003a00f00020006082880064cea9002a
:10152c0064eea900254ea800110037000081800050
:10153c00e20f500006003a00400120006082880053
:10154c0064cea80064eea900254ea900080037005f
:10155c0000818000e30f500005003a00e0012000fc
:10156c006082880064cea90064eea800254ea90014
:10157c0027d0bf000080fb00cf80de00720120006e
:10158c0003002000820f5000838f5800ba003e00e9
:10159c00000601001700370020003700320037002a
:1015ac0041003700690037007200370073003700c4
:1015bc007c0037007d00370087003700880037003b
:1015cc00920037001f003700ae003700380037009c
:1015dc0042003700430037004d0037004e00370003
:1015ec00580037008b003700950037009600370005
:1015fc009f0037002a30ef002c30ef000001eb0089
:10160c006000b8008e020700120020006000b800d5
:10161c008b02070010c0b30027f0b7005281800086
:10162c0063818000803e200001002000800f51006b
:10163c00818f59009500360020c0b30027f0b70009
:10164c00930037000001eb006000b8007c0207003b
:10165c00120020006000b80079020700d0c0b3006f
:10166c0027f0b7008a003700108180000000e800e6
:10167c0010818800608280008000eb0041fd070033
:10168c000001eb006e020700608280008000eb001e
:10169c003cfd0700120020006902070030c0b300b7
:1016ac0027f0b7007a0037007b000700780037007e
:1016bc000001eb000000200001172c006002070065
:1016cc00120020000000200001172c005c02070013
:1016dc00f0c0b30027f0b7006d0037006e000700b4
:1016ec006b0037000001eb00000020000117240004
:1016fc0053020700120020000000200001102400fb
:10170c004f02070010c1b30027f0b700600037008c
:10171c00610007005e0037000001eb0000002000b4
:10172c0001102400460207001200200000002000d7
:10173c00011724004202070030c1b30027f0b700a4
:10174c005300370054000700510037000001eb0034
:10175c0000002000011724003902070012002000ad
:10176c006000b8003602070050c0b30027f0b70085
:10177c004700370048000700450037000001eb0028
:10178c006000b8002e0207001200200000002000ac
:10179c00011724002a02070070c0b30027f0b7001d
:1017ac003b0037003c000700390037000001eb001c
:1017bc00000020000112240021020700120020006a
:1017cc000000200001122c001d02070090c0b30085
:1017dc0027f0b7002e0037002f0007002c00370031
:1017ec000001eb000000200001122c001402070085
:1017fc00120020000000200001122400100207003b
:10180c00b0c0b30027f0b70021003700220007005a
:10181c001f0037000001eb00000020000110240025
:10182c0007020700120020006000b8000402070045
:10183c001201070050c1b30027f0b70014003700a5
:10184c0015000700120037000001eb006000b80023
:10185c00fb010700120020000000200001102400f2
:10186c00f701070070c1b30027f0b700080037007c
:10187c0009000700060037002770ef000000000089
:10188c0003003700000000000100370000000000da
:10189c000080fa00000006000200fa00881f7800a1
:1018ac0028d0bf00e14f5000f1003a000040eb009f
:1018bc00004f7800b0838000c183800018c0b30053
:1018cc0002002000031a24006bfc07000000e0005b
:1018dc00010035000044eb000804e0002c003a0045
:1018ec0090838000a183800018c0b3000200200008
:1018fc00031f240060fc07000000e000010035001d
:10190c000044eb000804e00021003a0070838000e2
:10191c008183800018c0b30002002000c320240083
:10192c0055fc07000000e000010035000044eb000e
:10193c000804e00016003a003083800041838000e8
:10194c0018c0b30002002000031f24004afc07004b
:10195c000000e000010035000044eb000804e0004a
:10196c000b003a00508380006183800018c0b300e4
:10197c0002002000031a24003ffc07000000e000d6
:10198c00010035000044eb000804e00005003200c3
:10199c00100020000081880095070700004f780098
:1019ac0073003700b0838000c183800018c0b3007f
:1019bc0002002000032224002ffc07000000e0009e
:1019cc00010035000044eb000804e0002c003a0054
:1019dc0090838000a183800018c0b3000200200017
:1019ec008324240024fc07000000e00001003500e3
:1019fc000044eb000804e00021003a0070838000f2
:101a0c008183800018c0b30002002000032724004b
:101a1c0019fc07000000e000010035000044eb0059
:101a2c000804e00016003a003083800041838000f7
:101a3c0018c0b30002002000832424000efc070011
:101a4c000000e000010035000044eb000804e00059
:101a5c000b003a00508380006183800018c0b300f3
:101a6c00020020000322240003fc07000000e00019
:101a7c00010035000044eb000804e00003003200d4
:101a8c00200020000081880039003700b0838000de
:101a9c00c183800018c0b300020020000322240080
:101aac00f7fb07000000e00001003d000044eb00e4
:101abc000804e0002c003a0090838000a183800091
:101acc0018c0b3000200200083242400ecfb0700a4
:101adc000000e00001003d000044eb000804e000c1
:101aec0021003a00708380008183800018c0b3000d
:101afc000200200003272400e1fb07000000e000a7
:101b0c0001003d000044eb000804e00016003a0020
:101b1c00308380004183800018c0b3000200200095
:101b2c0083242400d6fb07000000e00001003d00e8
:101b3c000044eb000804e0000b003a0050838000e6
:101b4c006183800018c0b30002002000032224002f
:101b5c00cbfb07000000e00001003d000044eb005f
:101b6c000804e000020032003000200000818800f0
:101b7c001e4078000004e00003003a0020c0b300cf
:101b8c0029f0b700300037001e407800e34f5000ba
:101b9c0003003a0000c1b30029f0b7002a00370057
:101bac001e407800e14f500003003a0020c1b30002
:101bbc0029f0b700240037001e407800e44f500095
:101bcc0003003a0040c0b30029f0b7001e003700f4
:101bdc001e407800e24f500003003a0060c0b30092
:101bec0029f0b700180037001e407800e54f500070
:101bfc000a003a0010818000610060000000e000e3
:101c0c0003003a0080c0b30029f0b7000e00370083
:101c1c00a0c0b30029f0b7000b0037001e407800bd
:101c2c00e64f500003003a0040c1b30029f0b70062
:101c3c00050037001e407800e74f500002003a00c4
:101c4c0060c1b30029f0b70029d0bf008080fb0031
:101c5c0027d0bf000080fb000000e900808f5000ff
:101c6c000300320029d0bf0027f0b70003000700a3
:101c7c004f0478000080fa00000006000600fa000d
:101c8c0075022100954278005081800061818000ae
:101c9c004808de000042780050818000618180009d
:101cac004008de0080417800508180006181800016
:101cbc004809dd004800de0000007100c808de00a5
:101ccc0000417800508180006181800000407800e4
:101cdc00054f780014479800234798003247980026
:101cec00404798000e0178005100200000052000ac
:101cfc00160207000080fa00000006000800fa0037
:101d0c00008fbe00220798003307980002002000c5
:101d1c00031224001e0078009e00900014fb0700a4
:101d2c00d0868800e186880002002000031224007f
:101d3c002e009000be0090000dfb0700b0878800bd
:101d4c00c18788000080fa00000006000000fa003d
:101d5c001160800080ff2f00008060001060880000
:101d6c0000fa20002060880023aca800238ca80077
:101d7c0011618000f03f2f000080600000a0a000e7
:101d8c00106188003000200020618800c3aca800de
:101d9c00c38ca80011668000f03f2f00008060000b
:101dac0000a0a0001066880030002000206688008b
:101dbc0001eca8000080fa00000006000000fa0008
:101dcc00889fbe001483800025838000f0828000f1
:101ddc000183800018c0b3000001be000400be00e7
:101dec0025fb07000000e000010035000044eb007b
:101dfc000804e0000d003200f882800009838000a6
:101e0c001483800025838000208280003182800032
:101e1c000001be000400be0076fa07000801be00f7
:101e2c0060080700108388002183880014838000d9
:101e3c0025838000f08280000183800018c0b300ed
:101e4c000001be000400be000dfb07000000e00016
:101e5c0001003c000044eb000804e0000d003200df
:101e6c00f882800009838000148380002583800021
:101e7c0020828000318280000001be000400be0080
:101e8c005bfa07000801be002e08070010838800cb
:101e9c0021838800108380002183800018c0b30048
:101eac006011b800f6fa07000000e00001003c00e9
:101ebc000044eb000804e00004003200c3eca9006d
:101ecc0024cea800c3cca80003003700c3cca900c3
:101edc0024eea800c3eca8001083800021838000ae
:101eec00020807000200200003222400cbfb07009d
:101efc0006fb07000000780030668800d482800062
:101f0c00e5828000b0828000c182800018c0b300de
:101f1c000001be000400be00d7fa07000000e0007c
:101f2c00010035000044eb000804e0000d00320015
:101f3c00b8828000c9828000d4828000e582800053
:101f4c0020828000318280000001be000400be00af
:101f5c0028fa07000801be0012080700d08288008a
:101f6c00e1828800d4828000e5828000b08280000b
:101f7c00c182800018c0b3000001be000400be0086
:101f8c00bffa07000000e00001003c000044eb0039
:101f9c000804e0000d003200b8828000c982800085
:101fac00d4828000e5828000208280003182800013
:101fbc000001be000400be000dfa07000801be00bf
:101fcc00e0070700d0828800e1828800d082800080
:101fdc00e182800018c0b3006011b800a8fa0700b5
:101fec000000e00001003c000044eb000804e000ad
:101ffc000400320023cca90015eea80023eca800a5
:10200c000300370023eca90015cea80023cca800b0
:10201c00d0828000e1828000b4070700020020001b
:10202c00032224007dfb0700b8fa070000007800ab
:10203c00306188004f04be000080fa0000000600ea
:10204c000600fa00008fbe00220798002e009000b8
:10205c000000e00005003a001e0178009e0190008f
:10206c00f282880003838800040037001e01780088
:10207c009e019000b2828800c38288000080fa0022
:10208c00000006000000fa00d4868000e58680007f
:10209c0010848000218480000001be000400be007a
:1020ac00d3f9070090898800a1898800b487800043
:1020bc00c587800030848000418480000001be0010
:1020cc000400be00caf90700108b8800218b880021
:1020dc0090898000a18980000001be0020112100a0
:1020ec00ca060700908b8800a18b8800108b80009b
:1020fc00218b80000001be0020142100c3060700c4
:10210c00b08b8800c18b8800b08b8000c18b8000a5
:10211c00948b8000a58b80000001be000400be00e3
:10212c00020007000080fa00000006000000fa0020
:10213c00889fbe00b0878000c1878000020020000d
:10214c005329240035fb0700d0878800e1878800dd
:10215c00d0868000e18680000200200093282400b5
:10216c002efb0700f086880001878800f886800027
:10217c0009878000d0878000e187800042b6230069
:10218c00f3e5230025fb07000200200003002400d8
:10219c00f7f907000001be000800be0095f9070022
:1021ac00f082880001838800f08280000183800027
:1021bc0004002000852c240002002000832c2c001d
:1021cc0090070700f082880001838800f886800061
:1021dc0009878000d0878000e187800042b6230009
:1021ec00f3e523000dfb0700020020000300240090
:1021fc00dff907000001be000800be007cf90700f3
:10220c00b0828800c1828800b0828000c1828000c8
:10221c0004002000852c240002002000832c2c00bc
:10222c0078070700b0828800c18288004f04be0086
:10223c000080fa00000006006000fa00f0878000c1
:10224c00018880000001be008000eb000e007800c9
:10225c001b050700d0878000e18780000001be00cd
:10226c00410020000e00780015050700108a800040
:10227c00218a80000001be00810020000e00780041
:10228c000f050700308b8000418b80000001be00e1
:10229c00c10020000e00780009050700308a80007c
:1022ac00418a80000001be00010120000e00780070
:1022bc0003050700508b8000618b80000001be007d
:1022cc00410120000e007800fd040700508a8000b8
:1022dc00618a80000001be00810120000e007800a0
:1022ec00f7040700708b8000818b80000001be001a
:1022fc00c10120000e007800f10407001087800057
:10230c00218780000001be00010220000e00780031
:10231c00eb040700f0868000018780000001be00fe
:10232c00410220000e007800e50407009088800030
:10233c00a18880000001be00810220000e00780000
:10234c00df040700b0898000c18980000001be0055
:10235c00c10220000e007800d9040700b08880006c
:10236c00c18880000001be00010320000e0078002f
:10237c00d3040700d0898000e18980000001be00f1
:10238c00410320000e007800cd040700d0888000a7
:10239c00e18880000001be00810320000e0078005f
:1023ac00c7040700f0898000018a80000001be008c
:1023bc00c10320000e007800c1040700b087800024
:1023cc00c18780000001be00010420000e007800cf
:1023dc00bb040700d0868000e18680000001be00af
:1023ec00410420000e007800b5040700708a8000bc
:1023fc00818a80000001be00810420000e0078005c
:10240c00af040700908a8000a18a80000001be0002
:10241c00c10420000e007800a9040700b08a8000d7
:10242c00c18a80000001be00010520000e0078006a
:10243c00a3040700f0888000018980000001be0021
:10244c00410520000e0078009d04070010898000d3
:10245c00218980000001be00810520000e0078005b
:10246c009704070030898000418980000001be007c
:10247c00c10520000e007800910407000e017800c1
:10248c000106200020062000300007000080fa0022
:10249c00000006000a00fa00200798003107980097
:1024ac0042079800e0cfb300204798002e00900020
:1024bc004880de00804078002e40900000c068000c
:1024cc00204798002e009000804078002e4090000d
:1024dc0000c06800204798003e0090004880de0055
:1024ec00804078002e40900000c068002047980083
:1024fc003e009000804078002e40900000c06800a4
:10250c00204798000000eb00000f7800080037000f
:10251c001e007800ce009000008040001040780033
:10252c00ae40900000c06800204798001e0fe800e5
:10253c003e0090009e007800808f5000f4ff350024
:10254c002e4090000080fa00000006000e00fa00f9
:10255c00889fbe00400798005107980062079800ba
:10256c000f0478000f007800800478000000eb0066
:10257c00000f78005e009000660040008000e900cb
:10258c00210798000000e8000000e8000000d100de
:10259c00800040000f007800818747000000e800b1
:1025ac000000d10000004000300798003e00900071
:1025bc001e004000e1cfb300014878001e0fe80078
:1025cc004e0090004880de00804078003e00900075
:1025dc001e004000014878001e0fe8004e009000dd
:1025ec00804078003e0090001e00400001487800ba
:1025fc001e0fe8005e0090004880de0080407800ee
:10260c003e0090001e004000014878001e0fe800bc
:10261c005e009000804078003e0090001e0040005c
:10262c00014878001e0fe8000000eb00100798002e
:10263c000b0037001e009000ee0090000080400060
:10264c00904078003e0090001e0040000148780049
:10265c001e0fe8001e0090000000e8001007980014
:10266c009e0090005e009000808f5000f1ff3500be
:10267c006e019000de0090004e00900085ff070078
:10268c00be0090009e804000804878001e0fe8003d
:10269c003e0090009e0078009b060700890778009a
:1026ac00880778004f04be000080fa000000060086
:1026bc000400fa0020479800e0818000e30f5000ee
:1026cc0023003200e30f500005003e00e10f5000e4
:1026dc0013003200e10f500015003e0007003700d8
:1026ec00e50f50002d003200e50f50001c003900a2
:1026fc00e60f500038003200490037002e409000a1
:10270c00e24f400002003a0010002000e0818800f7
:10271c003430ef003830ef003630ef004400370033
:10272c003430ef0020002000e081880040003700aa
:10273c002e4090008080fb00a08180000080400033
:10274c00a081880030002000e0818800380037002c
:10275c003630ef0040002000e08188003400370064
:10276c002e4090008080fb00b081800000804000f3
:10277c00b0818800b08180000000e00004003200cd
:10278c003830ef0050002000e0818800280037002e
:10279c0060002000e081880025003700c0818000a7
:1027ac00a12f210000804000ae409000014878002d
:1027bc00c08180000000e800c0818800c1818000d9
:1027cc00b0818000808f5000180035006000200020
:1027dc00e081880016003700ae409000014f780071
:1027ec00b1818000a0818000a22f210029ff070069
:1027fc00104798001e4090009e4f500006003a0073
:10280c00b081800080407800a0818000004078007a
:10281c00a22f2100080007003c30ef000400370015
:10282c003c30ef0000000000010037000000000009
:10283c000080fa00000006001400fa00889fbe0019
:10284c008a9fbe008c9fbe00004f780011479800f5
:10285c00120798001e80fb0031052000810f5000ec
:10286c002000320031052000810f500007003c0091
:10287c0011052000810f50000b00320021052000b3
:10288c00810f5000100032009f00370021062000fd
:10289c00810f50001000320041062000810f5000c3
:1028ac001f003200980037001e0090001040780086
:1028bc00fafa07001e0190001100200030052000dc
:1028cc0022ff0700900037001e0090001040780097
:1028dc00f9fa07008c00370010002000d081880026
:1028ec00890037001e0090000000e80010407800be
:1028fc000080fb008000eb00a2f807000004be0083
:10290c001e009000104078000080fb008000eb005f
:10291c009cf807000801be00f8fc07007a0037009d
:10292c001e009000104078000004e0003b003a00cc
:10293c001e00900066004000104078000080fb00f4
:10294c008000eb008ff807000001be002207980002
:10295c00330798001e00900065004000104078007e
:10296c000080fb008000eb0086f807000001be0031
:10297c0042079800530798001e0090006400400026
:10298c00104078000080fb008000eb007df8070011
:10299c000006be001e00900063004000104078004e
:1029ac000080fb008000eb0076f807000005be00fd
:1029bc001e0090000080e800104078000080fb00b2
:1029cc008000eb006ff807000004be001e009000b2
:1029dc000000e800104078000080fb008000eb0055
:1029ec0068f807002e019000be019000829fbe0087
:1029fc004e019000de019000829fbe008c9fbe00b5
:102a0c000a03be000802be000001be002011210016
:102a1c0057040700ec8757003b0037001e0090005e
:102a2c0066004000104078000080fb008000eb0046
:102a3c0054f807000001be00620798007307980065
:102a4c001e00900065004000104078000080fb00e4
:102a5c008000eb004bf807000001be00020f98004d
:102a6c00130f98001e009000640040001040780086
:102a7c000080fb008000eb0042f807000006be005f
:102a8c001e00900063004000104078000080fb00a6
:102a9c008000eb003bf807000005be001e00900014
:102aac000080e800104078000080fb008000eb0004
:102abc0034f807000004be001e0090000000e8007f
:102acc00104078000080fb008000eb002df8070020
:102adc006e019000fe019000829fbe000e099000d6
:102aec009e099000829fbe008c9fbe000a03be0010
:102afc000802be000001be00201421001c040700c7
:102b0c00ec875700000000004f06be004f05be00ca
:102b1c004f04be000080fa00000006000000fa001e
:102b2c00c301a8000080eb00e00e88000080eb00e1
:102b3c00f00e8800c1e1a8000080fa000000060039
:102b4c000000fa00c305a8000080eb00e02e88000e
:102b5c000080eb00f02e8800c1e5a8000080fa0090
:102b6c00000006000800fa00889fbe008a9fbe0085
:102b7c004080800051808000008088001180880097
:102b8c006080800071808000208088003180880007
:102b9c00d0818000e10f50000a003a006000b800bc
:102bac00f0848800018588006000b80010858800da
:102bbc00218588006000b800308588004185880038
:102bcc003a30ef00300e80008000eb00008fbe002a
:102bdc00500e80008000eb00c000dd0000002000e3
:102bec001e0f40005e974800302e80008000eb00e6
:102bfc002007980031079800502e80008000eb00d1
:102c0c00c000dd00000020002e019000be019000ed
:102c1c00020040008380480020079800310798008c
:102c2c001e0078009e009000d3f70700b29420009d
:102c3c009378230079f80700408088005180880041
:102c4c002e009000be009000cbf70700b29420003d
:102c5c0093782b0071f807006080880071808800e1
:102c6c0044808000558080000080800011808000ae
:102c7c000001be000400be00ddf607008080880065
:102c8c0091808800648080007580800020808000a6
:102c9c00318080000001be000400be00d4f60700a5
:102cac00a0808800b180880084808000958080009e
:102cbc00a0808000b18080000001be000400be0036
:102ccc00cbf6070042b62300f3e5230028f70700f4
:102cdc00c0808800d180880084808000958080002e
:102cec00a0808000b18080000001be000400be0006
:102cfc00c0f6070002002000030024001cf70700a8
:102d0c00e0808800f180880010848000218480009d
:102d1c005084880061848800308480004184800065
:102d2c00708488008184880080808000918080007d
:102d3c0002002000a337240038f80700d083880055
:102d4c00e1838800a0808000b18080000200200018
:102d5c00a337240031f80700f08388000184880031
:102d6c00d4838000e5838000f083800001848000a0
:102d7c000001be000400be009ef607000200200009
:102d8c0003002400faf607001084880021848800d0
:102d9c00c0808000d180800002002000a337240076
:102dac001ef807003084880041848800f08480007d
:102dbc000185800090848800a184880010858000a3
:102dcc0021858000b0848800c18488003085800013
:102ddc0041858000d0848800e1848800f8848000dc
:102dec00098580001084800021848000020020006e
:102dfc00a3372400def607000005be0030858000f6
:102e0c0041858000d8f607000001be000a00be0014
:102e1c0002f807000001be000800be0075f60700ae
:102e2c00f084880001858800188580002985800041
:102e3c00108480002184800002002000a33724002d
:102e4c00cbf607000005be00308580004185800070
:102e5c008ff807000001be000a00be00eff7070064
:102e6c000001be000800be0062f607001085880055
:102e7c00218588003485800045858000c0808000d5
:102e8c00d18080000001be000400be0059f607008e
:102e9c003085880041858800308580004185800020
:102eac0018c0b300b2fd200093042400f4f6070010
:102ebc000000e00001003c000044eb000804e000ce
:102ecc00070032003085800041858000b2fd200073
:102edc00930c240046f60700308588004185880055
:102eec00308580004185800018c0b300b2fd200001
:102efc0093042c00e0f607000000e0000100350010
:102f0c000044eb000804e00007003200308580002c
:102f1c0041858000b2fd2000930c240035f607009b
:102f2c0030858800418588004f05be004f04be00e7
:102f3c000080fa00000006001800fa0050818000a2
:102f4c00618180000001be008000eb000e00780063
:102f5c00f4010700f0848000018580000001be00b0
:102f6c00410020000e007800d5010700108580007c
:102f7c00218580000001be00810020000e00780039
:102f8c00cf01070030858000418580000001be0024
:102f9c00c10020000e007800c901070010848000d9
:102fac00218480000001be00010120000e00780089
:102fbc00c301070030848000418480000001be0002
:102fcc00410120000e007800bd0107000e017800c1
:102fdc0081012000100620005cfd07000080fa0033
:102fec00000006000000fa0013e1a90011e1a9009d
:102ffc001061a8001021a90081088000f0fc2f00ae
:10300c0000806000800888000a21ef000621ef0094
:10301c00404c20007008880000402b00600888009d
:10302c002142800080ff2f00008060000000a00083
:10303c00204288000108a9002108a80011e1a8007d
:10304c000080fa00000006000000fa0005e1a9006b
:10305c000421a90000002000a1372400050007006e
:10306c000068a9002068a80005e1a8000080fa000b
:10307c00000006000400fa00881f7800008fbe00d4
:10308c001e0178009e0190000068290081c1240077
:10309c0037f6070018c0b30002f02f00f3772400b6
:1030ac0077f607000000e00001003c000044eb0054
:1030bc000804e0005400320021088000f0fc2f00ce
:1030cc00008060000040a000200888001e017800ed
:1030dc009e0190000068290081c1240024f607009d
:1030ec00020020000310240021f6070018c0b300d2
:1030fc0002f02f00f377240061f607000000e000d7
:10310c0001003c000044eb000804e00032003200f7
:10311c0021088000f0fc2f00008060000050a0000f
:10312c00200888001e0178009e019000006829008c
:10313c0081c124000ef607000200200003282400a1
:10314c000bf6070018c0b30002f02f00f377240031
:10315c004bf607000000e00001003c000044eb00cf
:10316c000804e00010003200210880000003200059
:10317c0001007000200888001e0178009e0190005c
:10318c000068290081c12400f9f507000200200025
:10319c0003382400f6f507003bf607000000780022
:1031ac0010088800200037001e0178009e01900056
:1031bc000068290081c12400edf507000200200001
:1031cc0003282400eaf507002ff60700000078001a
:1031dc0010088800140037001e0178009e01900032
:1031ec000068290081c12400e1f5070002002000dd
:1031fc0003102400def5070023f60700000078001a
:10320c0010088800080037001e0178009e0190000d
:10321c000068290081c12400d5f507001af60700c3
:10322c0000007800100888004f0478000080fa0035
:10323c00000006000000fa001fe1a90000002000b9
:10324c00a1472400060007001e21a9000368a9005d
:10325c002368a8001fe1a8000080fa000000060007
:10326c000400fa00881f7800008fbe00f10880006f
:10327c00f0fc2f0000806000f00888001e01780030
:10328c009e0190000068290081c12400b8f5070058
:10329c0018c0b30002f02f00f3772400f8f50700f4
:1032ac000000e00001003c000044eb000804e000da
:1032bc0054003200f1088000f0fc2f000080600008
:1032cc000040a000f00888001e0178009e019000cc
:1032dc000068290081c12400a5f507000200200028
:1032ec0003102400a2f5070018c0b30002f02f0051
:1032fc00f3772400e2f507000000e00001003c0039
:10330c000044eb000804e00032003200f1088000b9
:10331c00f0fc2f00008060000050a000f008880036
:10332c001e0178009e0190000068290081c12400d4
:10333c008ff5070002002000032824008cf50700fd
:10334c0018c0b30002f02f00f3772400ccf507006f
:10335c000000e00001003c000044eb000804e00029
:10336c0010003200f1088000000320000100700002
:10337c00f00888001e0178009e019000006829006a
:10338c0081c124007af507000200200003382400d4
:10339c0077f50700bcf5070000007800d00888001e
:1033ac00200037001e0178009e0190000068290063
:1033bc0081c124006ef507000200200003282400c0
:1033cc006bf50700b0f5070000007800d008880006
:1033dc00140037001e0178009e019000006829003f
:1033ec0081c1240062f507000200200003102400b4
:1033fc005ff50700a4f5070000007800d0088800ee
:10340c00080037001e0178009e019000006829001a
:10341c0081c1240056f507009bf5070000007800d9
:10342c00d00888004f0478000080fa0000000600e5
:10343c000400fa00881f7800008fbe0018c0b3008b
:10344c006011b8001e0078009e0090008cf50700fb
:10345c000000e00001003d000044eb000804e00027
:10346c00030032001e0078009e009000030037001d
:10347c001e0078009e00900001f0a2004f0478001e
:10348c000080fa00000006000800fa00881f78008f
:10349c00008fbe00220798003307980018c0b300b5
:1034ac002e019000be0190001e0078009e0090003e
:1034bc0073f507000000e00001003c000044eb0045
:1034cc000804e000030032001e0078009e0090000b
:1034dc00020037002e009000be0090004f047800d0
:1034ec000080fa00000006000800fa00881f78002f
:1034fc00008fbe00220798003307980018c0b30055
:10350c002e019000be0190001e0078009e009000dd
:10351c0059f507000000e000010035000044eb0005
:10352c000804e000030032001e0078009e009000aa
:10353c00020037002e009000be0090004f0478006f
:10354c000080fa00000006000c00fa00881f7800ca
:10355c00008fbe002207980033079800440798009c
:10356c005507980018c0b3002e019000be019000c2
:10357c001e0078009e0090003ff507000000e00060
:10358c00010035000044eb000804e00003003200a9
:10359c002e009000be0090001000370018c0b30041
:1035ac004e019000de0190001e0078009e009000fd
:1035bc0033f507000000e00001003c000044eb0084
:1035cc000804e000030032004e009000de00900082
:1035dc00020037001e0078009e0090004f04780017
:1035ec000080fa00000006000800fa00200798008e
:1035fc0031079800b2fd2000930424002e009000a7
:10360c00be0090007af40700b2fd2000930c240059
:10361c005ef50700b2fd20009304240075f407004a
:10362c00008fbe00b2fd2000930424001e00780021
:10363c009e0090006ff40700b2fd2000930c240054
:10364c0052f50700b2fd20009304240068f4070033
:10365c000080fa00000006000a00fa00300798000b
:10366c0041079800be0090004e009000008f400073
:10367c001e0078001001780090019000120798004d
:10368c00230798001e009000ae0090000080fa0006
:10369c00000006000600fa001007980021079800a9
:1036ac009e0090002e009000008f40001e007800bd
:1036bc0090009000100078000080fa0000000600d6
:1036cc000c00fa0020079800310798004207980078
:1036dc005307980068004700100798000000eb00a3
:1036ec00000f78000a0037003e0090001e004000da
:1036fc00ae009000008040009e0078001e019000fb
:10370c008100410091407800014878001e0fe800cc
:10371c001e007800e30f5000f3ff34000080fa0025
:10372c00000006000c00fa002007980031079800f2
:10373c00420798005307980068004700100798004c
:10374c000000eb00000f78000b0037003e009000eb
:10375c001e004000ae0090000080400032002000af
:10376c009e0051001e0190008100410091407800a4
:10377c00014878001e0fe8001e007800e30f50008f
:10378c00f2ff34000080fa00000006000c00fa0082
:10379c0020079800310798004207980053079800bb
:1037ac0068004700100798000000eb00000f78003d
:1037bc000a0037003e0090001e004000ae00900052
:1037cc00008040009e0078001e01900081004100a6
:1037dc0091407800014878001e0fe8001e00780028
:1037ec00e70f5000f3ff34000080fa0000000600e1
:1037fc000000fa00881f780090838000a18380006d
:10380c0018c0b30002002000831c24009af40700a7
:10381c000000e000010035000044eb000804e0006b
:10382c000e003200308380004183800018c0b3004a
:10383c0002002000831c24008ff407000000e0002d
:10384c00010035000044eb000804e00003003200e6
:10385c005000200080828800c100370070838000f7
:10386c008183800018c0b30002002000c320240014
:10387c0081f407000000e000010035000044eb007b
:10388c000804e00003003200500020008082880011
:10389c00b300370090838000a183800018c0b30070
:1038ac0002002000c320240073f407000000e00095
:1038bc00010035000044eb000804e0001900320060
:1038cc00708380008183800018c0b3000200200048
:1038dc00831c24006af407000000e00001003c0097
:1038ec000044eb000804e0000e003200308380003e
:1038fc004183800018c0b30002002000c3202400c4
:10390c005ff407000000e00001003c000044eb0005
:10391c000804e000030032002000200080828800b0
:10392c008f00370090838000a183800018c0b30003
:10393c0002002000c320240051f407000000e00026
:10394c0001003c000044eb000804e00019003200c8
:10395c00708380008183800018c0b30002002000b7
:10396c00831c240046f407000000e00001003c002a
:10397c000044eb000804e0000e00320030838000ad
:10398c004183800018c0b30002002000c320240033
:10399c0039f407000000e000010035000044eb00a2
:1039ac000804e00003003200400020008082880000
:1039bc006b003700b0838000c183800018c0b30057
:1039cc0002002000031224002bf407000000e0008a
:1039dc00010035000044eb000804e0004100320017
:1039ec00508380006183800018c0b3000200200067
:1039fc000312240020f407000000e0000100350051
:103a0c000044eb000804e00036003200b483800070
:103a1c00c5838000508380006183800018c0b30090
:103a2c000001be000400be0013f407000000e0001b
:103a3c00010035000044eb000804e0000b003a00e4
:103a4c0090838000a183800018c0b3000200200086
:103a5c00030a240008f407000000e0000100350010
:103a6c000044eb000804e00003003200600020007a
:103a7c00808288003a003700b4838000c5838000c0
:103a8c00508380006183800018c0b3000001be0029
:103a9c000400be00faf307000000e00001003c0047
:103aac000044eb000804e0000b003a003083800077
:103abc004183800018c0b30002002000030a2400d8
:103acc00edf307000000e000010035000044eb00be
:103adc000804e00021003200700020008082880081
:103aec001f003700b0838000c183800018c0b30072
:103afc000200200003172400dff307000000e000a1
:103b0c00010035000044eb000804e0000300320023
:103b1c001000200080828800110037005083800044
:103b2c006183800018c0b30002002000031724003a
:103b3c00d1f307000000e000010035000044eb0069
:103b4c000804e0000300320030002000808288006e
:103b5c00030037005030ef00010037000000000078
:103b6c00808280004f0478000080fa00000006007c
:103b7c000e00fa00000f7800120798002307980037
:103b8c003407980045079800560798006707980077
:103b9c001e0078001e019000ae0190000288be004d
:103bac001e0078003eb99700ceb9970062009800cd
:103bbc00730098001e0078003e019000ce0190002a
:103bcc0022009800330098001e0078001eb9970060
:103bdc00aeb9970002089800130898001e007800f0
:103bec005e019000ee019000420098005300980096
:103bfc001e0078007eb197008eb9970022089800bd
:103c0c00330898000080fa00000006001200fa0049
:103c1c00889fbe008a9fbe006007980072079800bc
:103c2c00030f98006e0090007e0190008e099000aa
:103c3c0002109800131098006e009000200a90005b
:103c4c00b00a90006e009000900090001000780078
:103c5c000001be000400be0045f307000004be00d6
:103c6c006e009000b0089000200890000002be008a
:103c7c0005f0a2006e0090009000900010007800fb
:103c8c000001be000400be0039f307000802be00ac
:103c9c000001be007e0090008e0890002afe0700f6
:103cac00008fbe006e009000900090001000780015
:103cbc001e0178009e01900058f407006e019000e0
:103ccc0020119800311198006e009000400c90006b
:103cdc00d00c90006e009000400d9000d00d900024
:103cec0002002000a33724007e0090008e08900074
:103cfc001ff307000001be000a00be00bdf2070062
:103d0c000001be000800be00baf207006e01900070
:103d1c0040099800510998006e009000400a9000ec
:103d2c00d00a90006e009000b0009000200090002f
:103d3c000001be000400be000df307000004be002d
:103d4c006e009000d0089000400890000002be0069
:103d5c0005f0a2006e009000b000900020009000d2
:103d6c000001be000400be0001f307006e019000cc
:103d7c00420b9000d20b90000802be000001be0066
:103d8c000600be00f0fd07006e019000400998008f
:103d9c00510998006e009000400a9000d00a9000e3
:103dac006e009000b0009000200090000001be005a
:103dbc000400be0019f407006e0190004011980039
:103dcc00511198006e009000f0089000600890006f
:103ddc000001be007e0090008e08900084f2070067
:103dec0002002000a33724000cf4070020079800e1
:103dfc00310798006e009000200a9000b00a9000e5
:103e0c006e009000d0009000400090000001be00b9
:103e1c000400be00d6f207000004be006e00900045
:103e2c00b0089000200890000002be0005f0a2002f
:103e3c006e009000d0009000400090000001be0089
:103e4c000400be00caf207000802be000001be005a
:103e5c002e009000be009000bbfd070040079800ac
:103e6c00510798006e0090007e0190008e09900022
:103e7c0062089800730898006e009000d0009000c3
:103e8c00400090004e019000de019000e3f307002b
:103e9c006e01900060119800711198006e009000f6
:103eac0020129000b01290006e009000d010900084
:103ebc00401090000001be000400be004df207004f
:103ecc000002be006e009000f01090006010900098
:103edc000001be000400be0046f207004f05be0004
:103eec004f04be000080fa00000006000400fa0037
:103efc00881f7800008fbe0018c0b3006011b80096
:103f0c001e0078009e009000ddf207000000e0002b
:103f1c0001003d000044eb000804e0000300320007
:103f2c001e0078009e009000030037001e007800f1
:103f3c009e00900001f0a2004f0478000080fa006f
:103f4c00000006000800fa00881f7800008fbe00f1
:103f5c00220798003307980018c0b3002e01900078
:103f6c00be0190001e0078009e009000c4f2070075
:103f7c000000e00001003c000044eb000804e000fd
:103f8c00030032001e0078009e00900002003700f3
:103f9c002e009000be0090004f0478000080fa00c4
:103fac00000006000800fa00881f7800008fbe0091
:103fbc00220798003307980018c0b3002e01900018
:103fcc00be0190001e0078009e009000aaf207002f
:103fdc000000e000010035000044eb000804e000a4
:103fec00030032001e0078009e0090000200370093
:103ffc002e009000be0090004f0478000080fa0064
:10400c00000006000c00fa00881f7800008fbe002c
:10401c00220798003307980044079800550798002a
:10402c0018c0b3004e019000de0190001e00780015
:10403c009e00900092f207000000e00001003c009e
:10404c000044eb000804e000040032004e01900034
:10405c00de019000028fbe000e00370018c0b300c6
:10406c002e019000be0190001e0078009e00900072
:10407c0081f207000000e000010035000044eb0075
:10408c000804e000030032002e019000be019000f5
:10409c00028fbe001e0078009e0090004f04780036
:1040ac000080fa00000006000400fa00008fbe0039
:1040bc00b2fd2000930424001e0078009e009000a6
:1040cc002bf20700020020004333240053f30700b7
:1040dc000080fa00000006000400fa00008fbe0009
:1040ec00b2fd2000930424001e0078009e00900076
:1040fc004af3070002002000433324001cf207009f
:10410c000080fa00000006000600fa001007980074
:10411c00210798000040eb00004f78005400070086
:10412c00ae009000810f5000110034000040eb00f5
:10413c00004f7800060037001e80fb009e009000a8
:10414c0000804000104078000b0007001e4fe80074
:10415c009e80fb002e009000808f5000f6ff3500f3
:10416c00300007000004e00001003a0024000700c2
:10417c000080fa00000006000200fa00004f7800f0
:10418c00f0818000a1172100008040001e487800bb
:10419c00f1818000d00f2000808f5000020034008d
:1041ac003e30ef0003003700f08180000000e80093
:1041bc00f08188000080fa00000006000200fa007e
:1041cc0000828000a117210000804000104f780071
:1041dc0001828000d00f2000808f5000020034003c
:1041ec004030ef0003003700008280000000e80040
:1041fc00008288001e4078000080fa000000060053
:10420c000200fa0010c0b30042f0b700ebff070049
:10421c00004f78001e80fb00201188000080fa00ff
:10422c00000006000000fa0042d0bf000080fa0037
:10423c00000006000000fa00f1818000008280007e
:10424c00808f500004003500f181800000828000d6
:10425c000080500004003700f18180000082800053
:10426c0000805000f00fb0000080fa000000060043
:10427c000000fa00efff0700f10f20000080500053
:10428c000080fa00000006000000fa0021e3a900fb
:10429c002143a80001198000f0cf2f00008060009e
:1042ac00001988002043a90001198000000e20008d
:1042bc00010070000019880011198000f0ff210026
:1042cc0000806000101988002343a8001119800099
:1042dc00f0cf2f00008060001019880011198000a9
:1042ec0030f82f00008060000040a00010198800fa
:1042fc002203a9002223a90025e3a900f0c0b300e2
:10430c0024e3b70021198000f00f2e00808060009c
:10431c0000f0200001007000201988003303a90070
:10432c004feea8002e0ea8002f6ea8006f2ea8002e
:10433c001e2ea80031e3a80030c3a8003163a800ea
:10434c002e03a8003063a8004119800000fc2f0048
:10435c00008060004019880028e3a90001a8a9008a
:10436c0021a8a80021e3a8000080fa0000000600a4
:10437c000000fa002023a8000080fa0000000600cc
:10438c000000fa00a03721000080fa0000000600af
:10439c000000fa004fd0bf000080fa0000000600b9
:1043ac000000fa004f70ef000080fa0000000600d9
:1043bc000200fa00004f78002c0007000000e0001b
:1043cc000d00340040828000a127210000804000b5
:1043dc001e48780041828000e0072000808f50004a
:1043ec00020034004830ef000300370040828000a8
:1043fc000000e800408288000080fa0000000600ff
:10440c000200fa0050828000a127210000804000a9
:10441c00104f780051828000e0072000808f500000
:10442c00020034004a30ef00030037005082800055
:10443c000000e800508288001e4078000080fa00de
:10444c00000006000000fa004182800050828000cb
:10445c00808f50000200320010c0b3000100370002
:10446c000040eb000080fa00000006000000fa009b
:10447c004182800050828000808f50000500340003
:10448c005182800040828000008050000008b00003
:10449c000400370041828000508280000080500070
:1044ac000008b0000080fa00000006000000fa00ce
:1044bc00eeff070001082000008050000080fa0089
:1044cc00000006000000fa000e2eef001e2eef007a
:1044dc002e2eef003e2eef004e2eef005e2eef0044
:1044ec006e2eef00214ea90060cea90060eea9004f
:1044fc0011cea90011eea90020cea90020eea90032
:10450c00002ea8002136800000f82f0000806000eb
:10451c008001b300203688001134800000fc2f008d
:10452c00008060000000a00010348800013680007c
:10453c0000f82f0080806000100620000100700041
:10454c000036880001368000f00f28008080600063
:10455c00000026000100700000368800e135800064
:10456c0000f82f00808060006004200001007000c3
:10457c00e0358800e1358000f00f28008080600075
:10458c000050240001007000e03588000080fa0023
:10459c00000006000000fa002002a90001118000b2
:1045ac0090ff2f00008060000011880020a2a9005d
:1045bc002062a800500520004011880023a2a90009
:1045cc0023e2a9000188a9002188a800111180000c
:1045dc00f0f32f0000806000101188000168a90022
:1045ec002168a80021e2a8002342a8000080fa005c
:1045fc00000006000600fa0010079800210798003a
:10460c000040eb00004f78000040eb00004f7800ba
:10461c000e00370000000000111180000020200067
:10462c00008060000000e000fbff3a001e009000dc
:10463c00104078000080fb00201188001e009000c4
:10464c000000e800100798001e4fe8009e80fb0059
:10465c002e009000808f5000eeff35000080fa0095
:04466c000000060044
:020000040000fa
:10467000201000000a000000800000004c10000024
:1046800002000000820000000f0000002a1000005d
:104690000a00000080000000541000002601000005
:1046a00080000000441000000400000082000000b0
:1046b00000007000410000007a1300000a000000b2
:1046c000800000004e10000002000000800000008a
:1046d0005010000002000000800000007a1100006d
:1046e00000010000800000003e10000006000000f5
:1046f000800000007a1200008000000080000000ae
:10470000481000000400000080000000fa120000c1
:104710008000000080000000341000000a0000004b
:104720008000000000100000200000008000000059
:104730005210000002000000800000000000000095
:020000040000fa
:104740000000fa00f0032000303a8800213a80008f
:10475000f0f32f0000806000203a8800213a8000aa
:1047600000fe2f00008060000000a000203a8800ba
:104770001200200080072000a109200033742000cf
:10478000804978008149780082497800103a800099
:10479000000178000200a0006004200071052000e4
:1047a000237420008049780081497800824978008c
:1047b00000000000113a80000000270080806000a7
:1047c00000002100808f5000faff3a000000000036
:1047d000113a800000022000008060000000e0002c
:0c47e000fbff32000080fa000000060021
:020000040000fa
:02000004000af0
:04afe000cfff00009f
:020000040000fa
:02000004000af0
:04afe400ffff00006b
:020000040000fa
:02000004000af0
:04afe8007fff0000e7
:020000040000fa
:02000004000af0
:04afec005fff000003
:020000040000fa
:02000004000af0
:04aff00038ff000026
:020000040000fa
:02000004000af0
:04aff400ffff00005b
:00000001FF
